S31508000000902800209D010008B1320008BD2E000886
S3150800001081320008ED090008DD46000800000000EE
S31508000020000000000000000000000000793D000804
S31508000030AD0A000800000000D5320008814000081B
S31508000040B7010008B7010008B7010008B7010008A2
S31508000050B7010008B7010008B7010008B701000892
S31508000060B7010008B7010008B7010008B701000882
S31508000070F1090008B7010008FD090008B7010008E2
S31508000080B7010008B7010008B7010008B701000862
S31508000090B7010008B7010008B7010008B701000852
S315080000A0B7010008B7010008B7010008B701000842
S315080000B0B7010008B701000829410008B701000880
S315080000C0B7010008B7010008B7010008B701000822
S315080000D0B7010008C5460008B7010008D146000860
S315080000E0B7010008B7010008B7010008B701000802
S315080000F0B7010008B7010008B7010008B7010008F2
S31508000100B701000809330008B7010008B70100085D
S31508000110B7010008B7010008B7010008B7010008D1
S31508000120B7010008B7010008B7010008B7010008C1
S31508000130B7010008B7010008B7010008B7010008B1
S31508000140B7010008B7010008B7010008B7010008A1
S31508000150B7010008B7010008B7010008B701000891
S31508000160B7010008B7010008B7010008B701000881
S31508000170B7010008B7010008B70100080000000031
S31508000180B7010008B7010008DFF80CD000F0BAFA8A
S31508000190004800478DA6000890280020064880479A
S315080001A006480047FEE7FEE7FEE7FEE7FEE7FEE74E
S315080001B0FEE7FEE7FEE7FEE71941000889010008A9
S315080001C02DE9F05F0546002092469B46884606467E
S315080001D0814640241BE0284641464746224600F011
S315080001E0C9F853465A46C01A914110D311461846C3
S315080001F0224600F0B0F82D1A67EB01084F46224652
S315080002000120002100F0A7F817EB00094E41201E37
S31508000210A4F10104DFDC484631462A464346BDE8D8
S31508000220F09F40EA01039B0703D009E008C9121FA3
S3150800023008C0042AFAD203E011F8013B00F8013B92
S31508000240521EF9D27047D2B201E000F8012B491EBE
S31508000250FBD270470022F6E710B513460A46044655
S315080002601946FFF7F0FF204610BD10B5044604E016
S315080002700B7800F8013B03B1491C521EF8D2204600
S3150800028010BDCAB2401E10F8011F8A4202D00029CA
S31508000290F9D100207047421C10F8011B0029FBD138
S315080002A0801A704710B5002200E0521C835C8C5CF3
S315080002B0A34201D1002BF8D1D8B2E1B2401A10BD41
S315080002C030B504460020034600E05B1C934203D287
S315080002D0E05CCD5C401BF8D030BD034611F8012B1D
S315080002E000F8012B002AF9D11846704730B50346A5
S315080002F01D783DB10A4612F8014B1CB1AC42FAD141
S315080003005B1CF5E7181A30BD30B50546002008E035
S315080003100A4602E0A34207D0521C1378002BF9D1F3
S31508000320401C2C5C002CF3D130BD30B50B46014681
S3150800033000202022012409E021FA02F59D4205D376
S3150800034003FA02F5491B04FA02F52844151EA2F120
S315080003500102F1DC30BD202A04DB203A00FA02F162
S31508000360002070479140C2F1200320FA03F3194395
S3150800037090407047202A04DB203A21FA02F0002137
S31508000380704721FA02F3D040C2F120029140084397
S31508000390194670472DE9FE4F804681EA0300C00FD3
S315080003A00C46009021F0004123F00045B8EB02000E
S315080003B0A94105D24046214690461C460B460246B0
S315080003C023F00040104347D0270DC7F30A00C3F3B4
S315080003D00A510290401A019040286BDAC3F31300C1
S315080003E040F4801B0098924620B10023D2EB030A02
S315080003F063EB0B0B01985946C0F140025046FFF7D4
S31508000400AAFF06460D4650465946019A00F08CF951
S3150800041010EB08006141002487EA115284EAE77369
S315080004201A4340D0009A62B3019A012A4FEA07524A
S3150800043015DC001B61EB02014FF0004202EA07528D
S31508000440CDE90042001C41F5801132462B4600F0EA
S315080004508CF903B0BDE8F08F40462146F9E7001B4A
S3150800046061EB0201001C41F5801300185B4120185E
S31508000470A2F5001747EB030140EAD570B6196D419E
S3150800048011E06D084FEA360645EAC0754FEA07528D
S31508000490001B61EB0201001C41F5801149084FEA77
S315080004A030000019514132462B4603B0BDE8F04FE3
S315080004B000F04CB90098012240000023D0EB02025C
S315080004C063EBE073009821464FEAE074B8EB00004E
S315080004D061EB0401E9E783F000435BE781F0004143
S315080004E058E72DE9FE4F81EA030404F0004421F0A1
S315080004F0004100944FF0000B23F0004350EA01043A
S315080005005ED052EA03045BD0C3F30A54C1F30A551A
S315080005102C44A4F2F3340194A0FB0254C1F3130152
S3150800052041F48011C3F3130343F4801301FB02441F
S3150800053000FB034E840A970A44EA815447EA835724
S31508000540A4FB076802958D0A05FB07854FEA932CDD
S3150800055004FB0C542705029D4FEA065847EA16374E
S31508000560B5EB08056EEB070C870E920E47EA811766
S3150800057042EA8312A7FB0201B6EB0B0164EB000407
S315080005802B0D43EA0C335E1844EB1C50DA465146F1
S31508000590E7FB0201C5F313044FEA0B3343EA14538E
S315080005A04FEA0432019C43EA0603A4F10C040294C0
S315080005B0009CCDE900B400F0D8F803B0BDE8F08F90
S315080005C000200146F9E72DE9F04D81EA030404F01D
S315080005D0004B21F0004514464FF0000A23F0004175
S315080005E050EA050220D054EA01021DD0C5F30A5785
S315080005F00246C5F31303C1F31300C1F30A5640F4C8
S31508000600801543F48013A7EB0608101BD64608F29C
S31508000610FD3873EB050002D308F1010801E09218D2
S315080006205B41B8F1000F03DA00200146BDE8F08D02
S3150800063000204FF48011064684460EE0171B73EB24
S31508000640050705D3121B63EB050306434CEA010CA9
S3150800065049084FEA300092185B4150EA0107EDD18C
S3150800066052EA030012D082EA040083EA050108432D
S3150800067005D0101BAB4106D20122002306E000225A
S315080006804FF0004302E06FF0010253101AEB060028
S315080006904CEB085110EB0A0041EB0B01BDE8F04D9D
S315080006A000F054B8C1F30A52C1F3130140F2FF3304
S315080006B041F480119A4202DA00200146704740F25E
S315080006C033439A42A2F2334202DC5242FFF752BE49
S315080006D0FFF741BE30B5041E71F1000404DB4FF08C
S315080006E00044404264EB0101141E73F1000405DB6B
S315080006F01C464FF00043524263EB0403994208BF7D
S31508000700904230BD064C074D06E0E06840F0010314
S3150800071094E8070098471034AC42F6D3FFF738FD43
S31508000720E018010800190108202A06DBCB17203A31
S3150800073041FA02F043EAE07306E041FA02F3D040D8
S31508000740C2F12002914008431946704710B5141E9D
S3150800075073F1000408DA401C41F1000192185B416C
S315080007601A4301D120F0010010BD2DE9F04D924643
S315080007709B4611B1B1FA81F202E0B0FA80F220325A
S315080007809046FFF7E8FD04460F4640EA0A0041EAAC
S315080007900B0153465A46084313D0114653EA010043
S315080007A019D0C8F140025046FFF7E4FD05460E464B
S315080007B0504659464246FFF7CEFD084305D001206C
S315080007C004E020463946BDE8F08D0020054346EA98
S315080007D0E0762C4337430A986305E40AA0EB080041
S315080007E00022FD0A44EA47540A3002D50020014691
S315080007F0E9E7010510196941DDE90845001969416C
S31508000800BDE8F04DA2E770B58C1810F8015B15F03D
S31508000810070301D110F8013B2A1106D110F8012B64
S3150800082003E010F8016B01F8016B5B1EF9D12B0789
S3150800083005D40023521E0DD401F8013BFAE710F83F
S31508000840013BCB1A921C03E013F8015B01F8015B2C
S31508000850521EF9D5A142D8D3002070BD1CB5134845
S31508000860002240680189CDE90012C38811460F4865
S3150800087005F0D7F900234FF6FF7201210B4805F062
S31508000880F7FA0A220AA31146084805F085FA0AA3C8
S3150800089028220A21054805F07FFA02B03C22BDE865
S315080008A0104009A30A21014805F076BA2C00002059
S315080008B041626F757400000056657273696F6E3A0F
S315080008C020312E3000000000446174653A20323031
S315080008D032342F303900000010B504F0A7FCBDE80B
S315080008E01040002004F0C6BC10B504F0A8FCBDE812
S315080008F01040002004F0BEBC7047000001460148C5
S3150800090000F0F6BFCC06002010B5044801F002F846
S31508000910042801D0012010BD002010BDCC060020FF
S3150800092010B500F00BF8012801D0012010BDBDE874
S315080009301040014801F00CB9CC06002008B501208A
S315080009408DF800009DF8000008BD000038B50024A9
S31508000950009313460A460146034801F0AFF900B171
S315080009600124204638BD0000CC0600207047000050
S3150800097038B50024009313460A460146034801F099
S3150800098095FA00B10124204638BD0000CC060020A7
S315080009907047000010B510A003F0A2FE04F046FC54
S315080009A04FF4FA74204600F0A2FA05F045FB2046FB
S315080009B000F09DFA05F038FB05F054FB204600F0E0
S315080009C096FA05F047FB05F063FB204600F08FFA20
S315080009D0BDE8104005F054BB417070206D61696E2A
S315080009E020737461727465640D0A0000FEE70000E6
S315080009F0014800F00BB9000038090020014800F052
S31508000A0005B90000D808002001681823CAB2103AB0
S31508000A10B2FBF3F2054B6FF30901032A9B5CC3652E
S31508000A2000D9091D8165084670470000E0080108DD
S31508000A3010B5014600208B698A6A4FF0C07453B11D
S31508000A40B3F5005F15D072B1012A0CD0022A0AD07C
S31508000A50032A09D104E01AB1012A06D0022A03D1D1
S31508000A60C96AC90100D5012010BDC96AA142FAD0D8
S31508000A7010BD002AF7D0012AF2D0022AF3D0032AA1
S31508000A80F3D010BD30B50468256825F480252560A7
S31508000A90046863608368402B036803D09960006824
S31508000AA0C26030BD9A600068C16030BD7047000002
S31508000AB003490878002801D0401E087070470000D6
S31508000AC0C00300207FB5002400948DF80000F620AE
S31508000AD08DF8010001948DF80210100A8DF8042093
S31508000AE0089D8DF803008DF805308DF806506B20AB
S31508000AF08DF807000294039408226946014802F01B
S31508000B0097F97FBD9008002072B6FEE7002200F034
S31508000B1001B8000030B50E4B054601205C7A002C62
S31508000B2014D1587A1C54587A03EB800045605D7AD4
S31508000B3003F108002A54587A421C5A723030087059
S31508000B403A2048702F208870CC70002030BD0000F5
S31508000B50980900202DE9F0410446876D00F0C0FA97
S31508000B60054694F835000026022806D080206065E0
S31508000B7084F834600120BDE8F0812068016821F01E
S31508000B80160101602068416921F080014161206CED
S31508000B9008B9A06C20B12068016821F0080101603D
S31508000BA02068016821F0010101600CE000F098FA64
S31508000BB0401B052807D920206065032084F83500E6
S31508000BC084F83460D7E720680068C007EED194F847
S31508000BD05C103F208840B860012084F8350084F80E
S31508000BE034600020C7E790F83510022903D0802129
S31508000BF0416501207047052180F8351000680168B5
S31508000C0021F0010101600020704700002DE9F8433A
S31508000C1004464FF00009CDF8009063484FF416518A
S31508000C20A56D0068B0FBF1F72E6894F85C200821E2
S31508000C3001FA02F030420FD02068026852070BD53D
S31508000C40026822F00402026094F85C008140A96000
S31508000C50606D40F00100606594F85C104FF0010883
S31508000C6008FA01F0304208D021684969090604D516
S31508000C70A860606D40F00200606594F85C1004207E
S31508000C808840304208D021680968890704D5A860D9
S31508000C90606D40F00400606594F85C101020884090
S31508000CA0304218D021680968090714D5A860206859
S31508000CB00168490304D50068000308D5A16C07E05C
S31508000CC00168C90503D4016821F008010160216C97
S31508000CD009B12046884794F85C10202088403042A5
S31508000CE031D021680968C9062DD5A86094F8350061
S31508000CF005282068016806D0490347D5006800031F
S31508000D001DD4616C1CE021F0160101602068416960
S31508000D1021F080014161206C08B9A06C20B12068DF
S31508000D20016821F00801016094F85C103F208840B2
S31508000D30A86084F8358084F83490216D1FE0E16B53
S31508000D4009B120468847606D00282BD0606DC00722
S31508000D5014D0052084F835002068016821F00101C7
S31508000D6001600098401C0090B84203D820680068CB
S31508000D70C007F6D184F8358084F83490E16C0029F0
S31508000D8010D001B02046BDE8F04308470168C90500
S31508000D90D5D4016821F01001016084F8358084F803
S31508000DA03490CCE7BDE8F883580000202DE9F041DF
S31508000DB0044600F095F905465CB1022084F8350032
S31508000DC0002684F834602068016821F0010101607A
S31508000DD00DE00120BDE8F08100F082F9401B0528EE
S31508000DE005D920206065032084F83500F2E72068DD
S31508000DF00068C007F0D121680A6820480240D4E993
S31508000E0001031843D4E903352B4318436369184390
S31508000E10A3691843E3691843236A18431043626AAF
S31508000E20042A03D1D4E90B231A4310430860206827
S31508000E304069656A20F0070128460D430127042802
S31508000E400CD1A06A0543E06A40B12046FFF7F0FDE1
S31508000E5020B14020606584F83570BAE7206845619E
S31508000E602046FFF7D1FD94F85C203F219140816030
S31508000E70666584F835700020ACE700003F8010F006
S31508000E802DE9F0410446866D90F8340000250128C6
S31508000E900DD0012084F8340094F835700020012F15
S31508000EA007D084F8340002252846BDE8F0810220E0
S31508000EB0FBE7022784F8357060652046FFF7E2FDF8
S31508000EC094F85C103F208840B0602068016841F0C3
S31508000ED016010160206C20B12068016841F0080104
S31508000EE001602068016841F001010160DCE780B219
S31508000EF004F0B2BA2DE9F84FDFF89C910022A9F167
S31508000F00040B03274FF00F0C09F1040AABF1040E8A
S31508000F1001250B6895402B40AB426ED10C7904F045
S31508000F200304012C01D0022C15D18668540007FA57
S31508000F3004F826EA0806D1F80C8008FA04F848EA04
S31508000F400608C0F808804468AC430D79C5F3001557
S31508000F509540254345600C79E443A40708D0C56845
S31508000F60540007FA04F6B5438E68A6402E43C660B9
S31508000F700C7904F00304022C11D1D40800EB840682
S31508000F80356A5407E40E0CFA04F825EA0805D1F880
S31508000F90108008FA04F848EA0508C6F820800568AB
S31508000FA0540007FA04F6B5430E7906F00306A64080
S31508000FB02E4306604C6814F4403F66D0374C2568CB
S31508000FC045F480452560246822F0030504F480442E
S31508000FD00094334C05EB0408D8F808589407260FF4
S31508000FE00CFA06F4A5432F4CA04201D1002424E0B4
S31508000FF02D4CA04202D101241FE046E02B4CA04212
S3150800100001D1022419E02A4CA04201D1032414E09C
S31508001010284CA04201D104240FE0274CA04201D15C
S3150800102005240AE0254CA04201D1062405E0244CFB
S31508001030A04201D1072400E00824B4402C43C8F894
S315080010400848D9F800404D464E689C43F60200D53C
S315080010501C432C60DAF8004055464E689C43B6029D
S3150800106000D51C432C60DBF800405D464E689C4367
S31508001070B60300D51C432C60DEF8004075464E6862
S315080010809C43F60300D51C432C60521C102AFFF41F
S315080010903FAFBDE8F88F0000083C014044380240E5
S315080010A000300140000002400004024000080240EF
S315080010B0000C0240001002400014024000180240D2
S315080010C0001C0240426921EA02030A4043EA02413F
S315080010D0816170470AB1816170470904FBE7000026
S315080010E00148806870470000EC00002002488168CB
S315080010F00278114481607047EC0000200B4810B557
S31508001100016841F400710160016841F48061016081
S31508001110016841F480710160032000F06FF80F2028
S3150800112000F006F800F024F8002010BD003C02404C
S3150800113070B50D4D04464FF47A712878B1FBF0F07E
S315080011400A490968B1FBF0F001F08BFA48B9102C8E
S3150800115007D200222146501E00F030F800206C60AD
S3150800116070BD012070BD0000EC0000205800002072
S315080011700A4808B5016841F480410160006800F436
S31508001180804000900548001F016841F080510160C9
S31508001190006800F08050009008BD00004438024006
S315080011A0002809DB00F01F02012191404009800058
S315080011B000F1E020C0F8001170470000F0B40E4BB3
S315080011C01B68C3F30223C3F10704042C00D90424C3
S315080011D01D1D072D01D2002300E0DB1E012606FA9D
S315080011E004F56D1E0D409D409E40761E164045EA4C
S315080011F00601F0BC03F09ABA0CED00E0064A00F0CE
S31508001200070110684FF6FF03184040EA012003491A
S3150800121008431060704700000CED00E00000FA0576
S315080012202DE9F0470D46040065D0DFF81491D9F88A
S315080012300000EFB200F00700A84207D289F8007054
S31508001240D9F8000000F00700A84254D120683D4EA6
S31508001250810712D5400703D5306840F4E050306066
S315080012602078000703D5306840F460403060306865
S31508001270A16820F0F000084330602078C0072DD020
S31508001280304960680839012812D0022813D003288B
S3150800129011D00968890700292DDA316821F0030180
S315080012A001433160FFF71CFF804641F2883A0EE0A1
S315080012B009688903EFE709688901ECE7FFF710FF7A
S315080012C0A0EB0801514502D90320BDE8F087306834
S315080012D0616800F00C00B0EB810FEFD1D9F800106F
S315080012E0484601F00701A94207D90770006800F0CF
S315080012F00700A84201D00120E7E72078400705D576
S315080013003068E16820F4E050084330602078000730
S3150800131006D53068216920F4604040EAC100306093
S3150800132000F038F83168084AC1F30311515CC84027
S315080013300649086006480068FFF7FAFE0020C4E779
S31508001340003C02400838024094D4000858000020A7
S31508001350F00000200448054900680968044AC1F3FA
S315080013608221515CC8407047580000200838024066
S31508001370A4D400080448054900680968044AC1F36A
S315080013804231515CC8407047580000200838024076
S31508001390A4D40008154810B5006810F00C011448CC
S315080013A013D0431004290FD008290ED10F4C241F3F
S315080013B0216801F03F022168490207D52068C0F379
S315080013C08810A0FB030106E0184610BD2168C1F38A
S315080013D08811A1FB00010023FEF7F2FE2168C1F384
S315080013E00141491C4900B0FBF1F010BD0838024024
S315080013F00024F4002DE9F84F040075D02078DFF8B2
S3150800140038A3C007AAF1040548D00AF10400016808
S31508001410C1F38101012908D00068C0F381000228C0
S315080014200AD1DAF80000400206D52868800335D5C7
S3150800143060680028E1D031E06068B0F5803F10D0E0
S31508001440B0F5A02F286810D020F4803028602868CE
S3150800145020F4802028606068A0B1FFF741FE0646A8
S315080014600CE0286840F48030F4E740F480202860D7
S31508001470F7E7FFF735FE801B642871D828688003D4
S31508001480F7D50BE0FFF72CFE064604E0FFF728FE2B
S31508001490801B6428F1D828688003F7D42078DFF801
S315080014A09C9280074FF0000B3DD5A348001D0168AC
S315080014B011F00C0F08D00068C0F3810002280AD189
S315080014C0DAF80000400206D42868800715D5E068D7
S315080014D0012809D111E0E068B8B10120C9F8000077
S315080014E0FFF7FEFD064605E022E1FFF7F9FD801B42
S315080014F00228C2D828688007F7D52868216920F00D
S31508001500F80040EAC10028600DE0C9F800B0FFF70E
S31508001510E7FD064604E0FFF7E3FD801B02281FD817
S3150800152028688007F7D42078000722D5824F844898
S315080015306169703771B101210160FFF7D1FD064677
S3150800154004E0FFF7CDFD801B022809D8386880071C
S31508001550F7D50EE0C0F800B0FFF7C2FD064605E075
S3150800156082E0FFF7BDFD801B02287DD8386880071A
S31508001570F7D42078400765D56F484FF000083C300F
S315080015800068C0000BD46C483C30016841F08051BB
S31508001590016000684FF0010800F080500090694F24
S315080015A03868C0050FD4386840F480703860FFF793
S315080015B097FD064604E0FFF793FD801B022853D8E3
S315080015C03868C005F7D55C4FA0686C3701280FD07E
S315080015D00528386810D020F001003860386820F0F7
S315080015E004003860A068B0B1FFF77AFD06460EE041
S315080015F0386840F00100F4E740F004003860F7E787
S31508001600FFF76EFD811B41F28830814263D8386846
S315080016108007F5D50DE0FFF763FD064606E0FFF700
S315080016205FFD811B41F28830814254D838688007B3
S31508001630F5D4B8F1000F05D03F483C30016821F0D9
S3150800164080510160A069B8B33B49091D0968C1F317
S315080016508101022946D00228584606D0C9F86000FA
S31508001660FFF73EFD044639E035E04F46C9F860000D
S31508001670FFF736FD064604E0FFF732FD801B022819
S3150800168029D828688001F7D4D4E907010843A16A54
S315080016902D4A490802EB0141626A41EA8211084370
S315080016A094F82C1040EA0161CAF800100120386647
S315080016B0FFF716FD044605E03CE0FFF711FD001BA9
S315080016C0022808D828688001F7D533E0FFF708FD17
S315080016D0001B022802D90320BDE8F88F286880017C
S315080016E0F4D427E00128F7D0DAF80000E26900F41C
S315080016F0800191421CD1226A00F03F01914217D124
S3150800170047F6C071626A0140B1EB821F10D1A26A26
S315080017104FF0FF3300F4403103EB5202B1EB024FB6
S3150800172006D194F82C1000F07060B0EB016F01D070
S315080017300120D1E70020CFE70438024000004742E5
S31508001740800E4742007000400000FFFF10B5FFF70B
S31508001750D3F810BD70470000F0B5426E920F0A70BC
S31508001760426EC2F383624A70426EC2F301628A70A5
S31508001770426E120CCA70B0F86420120A0A7190F808
S3150800178064204A71826E120DCA80826EC2F30342C9
S315080017900A72B0F86820C2F3C0324A72B0F86820FC
S315080017A0C2F380328A72B0F86820C2F34032CA7235
S315080017B0B0F86820C2F300320A7300264E73436CF1
S315080017C04FF40075012463B1012B3AD002684749EA
S315080017D09163816B41F08051816380F83440012028
S315080017E0F0BDB0F86820C36E9205120D42EA9372F6
S315080017F00A61C26EC2F3C2620A75C26EC2F302629F
S315080018004A75C26EC2F342528A75C26EC2F38242EA
S31508001810CA75C26EC2F3C2320A760B695B1C43658F
S315080018200A7E02F00702921C934043650A7A02F088
S315080018300F0704FA07F28265520A5343C0E91735BF
S315080018400EE090F86820C36E9206920A42EA1342A6
S315080018500A610A69521C93024365C0E91653056674
S3150800186030F86C2FC2F3803201F8192F0288C2F3C0
S31508001870C6124A70027802F07F028A704268D20F56
S31508001880CA704268C2F341720A714268C2F3826240
S315080018904A714268C2F383528A714268C2F340525F
S315080018A0CA710E724268C2F300424A728288C2F353
S315080018B0C0328A728288C2F38032CA728288C2F3C0
S315080018C040320A738288C2F300324A738288C2F3AE
S315080018D081228A738288C2F30122CA730079C0F30F
S315080018E0460008744C740020F0BD0000FF05400057
S315080018F0426C0A60826C4A60C26C8A60026DCA6079
S31508001900426D0A61826D4A61C26D8A61006EC86164
S315080019100020704738B5002504460095B0F85000F9
S315080019200104206801F021FE28B90021206801F091
S31508001930E8FC0090284610B1A16B0143A16300980A
S31508001940C0F3432038BD0000F8B5056B04460068AF
S31508001950416B09041BD5290719D5D4E90A56002E67
S3150800196014D00027206801F0EBFC05F8010B010AEA
S3150800197005F8011B010C05F8021B000E361F7F1C1B
S3150800198005F8010C082FEDD3C4E90A56F8BD416BDA
S315080019904FF00007C9054FF0010644D531028163AF
S315080019A02068C16B4CF23A329143C1632068C16A20
S315080019B021F00101C16228071DD515F0220F09D0B3
S315080019C0206801F003FE28B1A16B0143A1632046FC
S315080019D0FFF7C0FE216840F23A50886384F8346005
S315080019E02763A80703D0204600F058FAF8BD20461A
S315080019F000F058FAF8BD2806FCD5A80609D52068CF
S31508001A0001F0E4FD28B1A16B0143A1632046FFF76D
S31508001A10A1FEA807EED12068C16A21F00801C162BB
S31508001A2084F83460E3E7416B490423D5290721D5B7
S31508001A30D4E90856002EDDD0002715F8010B0090D2
S31508001A4015F8011B361F40EA0120009015F8021B05
S31508001A5040EA0140009015F8011C40EA0160009038
S31508001A606946206801F07FFC7F1C082FE5D3C4E98E
S31508001A700856F8BD416B40F23A221142F9D0416B43
S31508001A80890703D5A16B41F00201A163416B0907E0
S31508001A9003D5A16B41F00801A163416B890603D503
S31508001AA0A16B41F02001A163416BC90603D5A16B67
S31508001AB041F01001A163416B890503D5A16B41F083
S31508001AC00801A16340F23A7181632068C16B40F254
S31508001AD03A329143C163206801F078FDA16B08434F
S31508001AE0A063280706D584F8346027632046FFF7E5
S31508001AF031FEF8BD2806FCD515F0300F0CD0E16B89
S31508001B0011480865E06BFFF76EF80028F1D0E06B26
S31508001B10BDE8F84001F020BFA8070CD0216C0B489F
S31508001B200865206CFFF75FF80028E2D0206CBDE856
S31508001B30F84001F0EFBEA76384F8346027632046B7
S31508001B40FFF704FEF8BD00005939000815390008EA
S31508001B5070B504000ED094F83400002518B925771E
S31508001B60204600F04DF8032084F83400204600F0A3
S31508001B700BF808B1012070BDA5632563012084F820
S31508001B803400002070BD0000FEB50025044676200E
S31508001B900095CDE901502B462A462946206801F0D2
S31508001BA0B9FB154E46F8A05F206801F0C5FB012574
S31508001BB035600220FFF79BF9204601F067FF28B140
S31508001BC084F83450A16B0143A16313E0204601F069
S31508001BD0E5FE0028F4D14FF40071206801F0FAFB05
S31508001BE0002808D0226805499163A16B0143A163C7
S31508001BF084F834500120FEBD00802542FF054000D0
S31508001C002DE9F04387B0044614216846FEF722FB07
S31508001C1026492068884246D125484FF000090168C0
S31508001C2041F400610160006800F4006005902048F6
S31508001C301438016841F004010160016801F00401EB
S31508001C400591016841F0080101600068022400F06E
S31508001C50080005904FF4807001278DE89100032550
S31508001C600C26DFF85080CDE9035669464046FFF753
S31508001C7041F9E0028DE81102CDE90356694640466E
S31508001C80FFF738F904208DE89100CDE90356694637
S31508001C900948FFF72FF9002203213120FFF78EFAB2
S31508001CA03120FFF77DFA07B0BDE8F083002C01402C
S31508001CB04438024000080240000C02402DE9FF4F5C
S31508001CC087B016460D460446DDF85080FFF708FA39
S31508001CD082463DB194F83400012807D0A06B40F045
S31508001CE000500DE0A06B40F0006009E00020A06302
S31508001CF00A99E26D3144914204D9A06B40F0007014
S31508001D00A06388E0032184F834102168C862616CF6
S31508001D10012900D076024FF0FF3100910A994FF061
S31508001D2001094902019102AA902102278346CDF8AA
S31508001D30149082E882086946206801F0CCFA0A986D
S31508001D40012805D927633146206801F09AFB05E08A
S31508001D50C4F830903146206801F0ABFB30B12268F8
S31508001D604D499163A16B0143A16350E0019E1FE0B9
S31508001D70406B000413D596B10027206801F0E0FAFD
S31508001D8005F8010B010A05F8011B010C05F8021BF1
S31508001D90000E361F7F1C05F8010C082FEDD3FFF740
S31508001DA09FF9A0EB0A01414522D2B8F1000F1FD0D6
S31508001DB02068416B40F22A321142D9D0416BC905DD
S31508001DC009D50A99012906D9616C032903D001F0BE
S31508001DD0FDFB0028C3D12068416B090702D4416B7B
S31508001DE089051AD52C498163A06B40F0080051E09B
S31508001DF0216829488863A06B40F00040A06384F8F6
S31508001E003490C4F830B003200BB0BDE8F08F84F8E6
S31508001E103490C4F830B00120F6E7416B890705D540
S31508001E201D498163A06B40F0020033E0416B8906CF
S31508001E301CD519498163A06B40F020002AE001F007
S31508001E407FFA05F8010B010A05F8011B010C05F8D4
S31508001E50021B000E05F8010C361FFFF741F9A0EB2F
S31508001E600A01414510D2B8F1000F0DD02068416B28
S31508001E70890201D5002EE2D1216840F23A508863E2
S31508001E8084F834900020BFE7216803488863A06B74
S31508001E9040F00040A063BAE7FF05400010B5FEF722
S31508001EA065FD10BD10B5FEF773FD10BD2DE9F04FA9
S31508001EB089B09B4615460E460446FFF711F907906A
S31508001EC03EB194F83400012807D0A06B40F00050CA
S31508001ED00DE0A06B40F0006009E00021A163E26D0F
S31508001EE005EB0B00904204D9A06B40F00070A0638C
S31508001EF079E0032084F834002068C162606C012808
S31508001F0000D06D024FF0FF3000904FEA4B204FF0A3
S31508001F1001090190CDE904199020CDE902018A460C
S31508001F206946206801F0D7F9BBF1010F06D92020D0
S31508001F3020632946206801F063FB05E01020206332
S31508001F402946206801F074FB5FEA000806D021687C
S31508001F5041488863A06B40EA080073E0019F26E0C9
S31508001F60406B40041BD5D7B1002516F8010B069027
S31508001F7016F8011B3F1F40EA0120069016F8021BBF
S31508001F8040EA0140069016F8011C40EA01600690F6
S31508001F9006A9206801F0E7F96D1C082DE5D3FFF7BF
S31508001FA09FF80799411A1298814220D2F8B1206801
S31508001FB0416B40F21A321142D2D0416BC90523D582
S31508001FC0BBF1010F20D9616C03291DD001F0FEFA7F
S31508001FD0D0B1226820499163A16B0143A16384F8BB
S31508001FE03490C4F830A0012009B0BDE8F08F21680C
S31508001FF019488863A06B40EA0800A06384F8349007
S31508002000C4F830A00320EFE72068416B090702D423
S31508002010416B890505D510498163A06B40F008001E
S3150800202010E0416B890705D50B498163A06B40F029
S31508002030020007E0416BC90606D507498163A06B14
S3150800204040F01000A063CAE740F23A51816384F871
S3150800205034900020C8E70000FF05400070B5040072
S3150800206009D0606A002540B125616561A56294F8CA
S31508002070510040B10CE0012070BD6068B0F5827F68
S31508002080F4D0E561F2E784F85050204600F044F8B1
S31508002090022084F851002068016821F0400101609F
S315080020A0A088218900F4827001F404410843A189BB
S315080020B001F400610843217C01F002010843217DF7
S315080020C001F001010843218B01F400710843217FC7
S315080020D001F03801084394F8201001F08001084304
S315080020E0218D01F40051084321680860A069042184
S315080020F001EA104094F8241001F010010843216801
S3150800210048602068C16921F40061C16165650120E4
S3150800211084F85100002070BD70B586B004461421BD
S315080021206846FEF797F8214E2068002520490222C6
S3150800213003230524B04217D11D481430066846F417
S3150800214080560660006800F480500590086840F0E4
S31508002150010008600868694600F001000590A020A3
S315080021608DE8250013481AE0134EB0421BD11048DB
S315080021701030066846F480460660006800F4804021
S315080021800590086840F0020008600868694600F093
S31508002190020005904FF460408DE825000748CDE918
S315080021A00334FEF7A7FE06B070BD000000300140FC
S315080021B03038024000000240003800400004024067
S315080021C02DE9F84F044690F8510088461D461746F3
S315080021D001283BD1B8F1000F78D0002F76D060687F
S315080021E04FF00409B0F5827F01D1A06818B3FEF755
S315080021F077FF064694F85000012827D04FF0010AC9
S3150800220084F850A084F851904FF00009C4F854900F
S31508002210C4F83880A787E787C4F83090A4F83490C4
S31508002220A4F83690C4F84090C4F84490A068B0F575
S31508002230004F0DD016E084F851900093134642469D
S315080022401146204600F01AF9BDE8F88F0220FBE790
S315080022502068016821F0400101602068016821F4C6
S315080022608041016020680168490603D4016841F08D
S3150800227040010160E068B8B132E020688168C907AA
S3150800228009D0007BA16B0870A06B401CA063E08F8F
S31508002290401EE08708E0FEF723FF801BA84202D312
S315080022A0681C01D031E07DB3E08F0028E5D11AE043
S315080022B020688168C9070AD0C068A16B0880A06B2E
S315080022C0801CA063E08F401EE08709E01AE0FEF755
S315080022D007FF801BA84202D3681C01D015E09DB1F8
S315080022E0E08F0028E4D132462946204601F082FCD8
S315080022F008B12020606584F851A084F85090606D7C
S315080023000028A1D001209FE7FFE784F851A084F8B0
S315080023105090032098E72DE9F84F1D4617468A4640
S315080023200446FEF7DDFE064694F85100012826D13C
S31508002330BAF1000F77D0002F75D094F85000012815
S315080023401DD04FF0010984F85090032084F85100FD
S315080023504FF00008C4F85480C4F830A0A786E78672
S31508002360C4F83880A4F83C80A4F83E80C4F84480B9
S31508002370C4F84080A068B0F5004F03D00CE00220F6
S31508002380BDE8F88F2068016821F0400101602068E7
S31508002390016841F48041016020680168490603D458
S315080023A0016841F040010160E068B0F5006F6068BF
S315080023B003D028B3012F23D03FE008B1012F1BD14A
S315080023C0206B21680088C86006E020688168890754
S315080023D009D5216B0988C160206B801C2063E08EBB
S315080023E0401EE08608E0FEF77BFE801BA84202D36B
S315080023F0681C01D02FE075B3E08E0028E5D11FE0F8
S31508002400206B21680078087306E0206881688907D0
S315080024100AD5216B09780173206B401C2063E08E76
S31508002420401EE08609E027E0FEF75AFE801BA84218
S3150800243002D3681C01D00EE06DB1E08E0028E4D10D
S3150800244032462946204601F003FC08B12020606583
S31508002450A06830B109E084F8519084F850800320D0
S315080024608EE72068C1688068009084F8519084F8E7
S315080024705080606D002883D0012081E72DE9FF4F49
S3150800248081B01F469346044601250E9EFEF728FE98
S31508002490804694F851006168012806D0B1F5827F1C
S315080024A03CD1A168C9BB042838D10298002870D04D
S315080024B0BBF1000FFBD0002FF9D094F8500001288B
S315080024C02CD04FF0010A84F850A094F85100042843
S315080024D002D0052084F851004FF00009C4F8549042
S315080024E0C4F838B0E787A78702992163E786A786E5
S315080024F0C4F84090C4F8449020680168490603D49B
S31508002500016841F040010160E068B0F5006F60685D
S3150800251008D0E8B3012F47D07DE0FFE7022005B0D9
S31508002520BDE8F08F08B1012F37D1206B21680088EC
S31508002530C860206B801C2063E08E401EE0862CE07D
S315080025402068816889070DD5E18E59B1012D09D119
S31508002550216B0988C160206B801C2063E08E401EB9
S31508002560E086002520688168C9070BD0E18F49B14C
S31508002570C068A16B0880A06B801CA063E08F401E1A
S31508002580E0870125FEF7ACFDA0EB0800B04201E0AC
S315080025900AE064E001D3701C4ED1E08E0028CFD14A
S315080025A0E08F0028CCD13CE0206B216800780873C6
S315080025B0206B401C2063E08E401EE0862BE02068DE
S315080025C0816889070DD5E18E59B1012D09D1216B95
S315080025D009780173206B401C2063E08E401EE0865C
S315080025E0002520688168C9070BD0E18F49B1C0680A
S315080025F0A16B0870A06B401CA063E08F401EE087AB
S315080026000125FEF76DFDA0EB0800B04202D3701C51
S3150800261001D011E086B1E08E0028D0D1E08F0028E5
S31508002620CDD142463146204601F012FB50B120205A
S31508002630606584F8509012E084F851A084F85090B0
S3150800264003206CE7A06818B92068C1688068009004
S3150800265084F851A084F85090606D0028F1D00120CC
S315080026605DE710B5401EB0F1807F01D3012010BD93
S315080026704FF0E02460610F21601702F057F8002040
S31508002680A06107202061002010BD000070B590F8F9
S315080026903C20012A32D0012580F83C50022280F8DD
S315080026A03D2002685368946823F070060B6833432C
S315080026B05360134B02689A4214D0B2F1804F11D07E
S315080026C0104B9A420ED0104B9A420BD00F4B9A429F
S315080026D008D00F4B9A4205D00E4B9A4202D00E4BA9
S315080026E09A4204D1496824F080031943916080F81E
S315080026F03D50002180F83C10084670BD022070BD90
S31508002700000001400004004000080040000C0040A2
S3150800271000040140004001400018004010B50400C4
S3150800272003D094F83D0010B107E0012010BD002049
S3150800273084F83C00204600F01EF8022084F83D008C
S31508002740211D206801F00AFD012084F8460084F85E
S315080027503E0084F83F0084F8400084F8410084F87D
S31508002760420084F8430084F8440084F8450084F85D
S315080027703D00002010BD704790F83D10012901D09A
S3150800278001207047022180F83D100168CA6842F0AE
S315080027900102CA6000681149884214D0B0F1804F1E
S315080027A011D00F4988420ED00E4988420BD00E49E7
S315080027B0884208D00D49884205D00D49884202D082
S315080027C00C49884204D1816801F00701062903D023
S315080027D0016841F0010101600020704700000140D6
S315080027E00004004000080040000C004000040140BE
S315080027F0004001400018004010B586B00446142178
S315080028006846FDF727FD2068B0F1804F14D10B48C4
S315080028100021026842F0010202600068022200F00C
S315080028200100059001200090CDE90121CDE90310B2
S3150800283069460348FEF75EFB06B010BD3038024015
S315080028400000024070B5044690F83C0000260D468C
S3150800285001280FD0012084F83C006AB1042A1DD053
S31508002860082A2FD00C2A3FD00126002084F83C00E5
S31508002870304670BD022070BD206801F0D7FC206884
S31508002880816941F0080181612068816921F00401AC
S315080028908161206881692A69114311E0206801F085
S315080028A0F5FC2068816941F40061816120688169CD
S315080028B021F480618161206881692A6941EA0221DF
S315080028C08161D2E7206801F017FD2068C16941F0EF
S315080028D00801C1612068C16921F00401C16120684D
S315080028E0C1692A69114311E0206801F039FD2068A1
S315080028F0C16941F40061C1612068C16921F4806140
S31508002900C1612068C1692A6941EA0221C161ACE74F
S3150800291010B5040003D094F83D0010B107E001207B
S3150800292010BD002084F83C00204600F01FF8022065
S3150800293084F83D00211D206801F010FC012084F870
S31508002940460084F83E0084F83F0084F8400084F886
S31508002950410084F8420084F8430084F8440084F86F
S31508002960450084F83D00002010BD000008B5006849
S31508002970B0F1804F08D10548016841F001010160B6
S31508002980006800F00100009008BD000040380240D1
S3150800299070477047F8B5016804460868CA684B6905
S315080029A010F00F0F4FF0000559D003F0010602F49E
S315080029B09077374365D0C10705D0D10503D5616C3B
S315080029C041F001016164410705D5D90703D0616C5F
S315080029D041F002016164810705D5D90703D0616C0E
S315080029E041F004016164010707D502F02001314373
S315080029F003D0616C41F008016164616C00293AD02A
S31508002A00800604D5900602D5204601F058FD2068B8
S31508002A104069616CC0F38010090700D460B3204692
S31508002A2001F018FD20684069400621D52068143059
S31508002A3050E8001F21F0400140E80012002AF5D1B5
S31508002A40E06BA8B172490165E06BFEF7CCF8002887
S31508002A5011D0E06B016D01B0BDE8F0400847830670
S31508002A600FD593060DD52046BDE8F84001F027BDE1
S31508002A702046FFF78EFFF8BD2046FFF78AFF6564FC
S31508002A80F8BD266B2023012E7ED1C6067CD5D60638
S31508002A907AD508684868009048694FF002064006EB
S31508002AA04DD5E26B106840684FF480770004000C3F
S31508002AB03AD0A18D814237D9E085D069B8422DD068
S31508002AC020680C3050E8001F21F4807140E800129D
S31508002AD0002AF5D12068143050E8001F21F00101C2
S31508002AE040E80012002AF5D12068143050E8001F8B
S31508002AF021F0400140E80012002AF5D184F842305E
S31508002B00256320680C3050E8001F21F0100140E8CA
S31508002B100012002AF5D1E06BFEF71CF86663A08D5B
S31508002B20E18D401A81B206E0A18D8142A8D1D06913
S31508002B30B842A5D166632046FFF72AFFF8BDA08DE7
S31508002B40E18D401A81B2E08D0028F7D00029F5D032
S31508002B5020680C3050E8002F22F4907240E80027D5
S31508002B60002FF5D12068143050E8002F22F001021A
S31508002B7040E80027002FF5D184F842302563206805
S31508002B800C3050E8002F00E006E022F0100240E882
S31508002B900023002BF3D1CDE705062BD5150629D53D
S31508002BA094F841002128C9D1A068B0F5805F01D109
S31508002BB02069B0B1206A411C21622168007848600A
S31508002BC0E08C401E0004000CE084B7D12068C16880
S31508002BD021F08001C1602068C16841F04001C160F0
S31508002BE0F8BD206A0088C0F308004860206A801C87
S31508002BF02062E5E74006F3D55006F1D5CA682046B7
S31508002C0022F04002CA6084F8413000F055F9F8BD58
S31508002C10B143000870B5040004D094F841000025BB
S31508002C2010B106E0012070BD84F84050204600F03F
S31508002C3023F8242084F841002068C16821F4005153
S31508002C40C160204601F09CFC2068016921F490418E
S31508002C5001612068416921F02A0141612068C16843
S31508002C6041F40051C1606564202084F8410084F86D
S31508002C7042006563002070BD2DE9F04186B0044628
S31508002C8014216846FDF7E6FA424F206842490222B7
S31508002C90032307260025B84221D13F48143004688B
S31508002CA044F010040460006800F0100005900868FD
S31508002CB040F0010008600868694600F001000590C8
S31508002CC058028DE82500CDE903363448FEF712F997
S31508002CD0002203212520FEF771FA252055E0304F02
S31508002CE0B84254D12C481030076847F4802707604B
S31508002CF0006800F480200590086840F0020008602B
S31508002D000868694600F0020005904FF440608DE8B7
S31508002D102500CDE903362348FEF7ECF8234E224872
S31508002D204FF00068E6E8020840200701A1C64FF404
S31508002D30403046F81459B561C6E907501B48756214
S31508002D40FEF734F808B1FDF7DFFEA663B463174E45
S31508002D501548603630383060C6E90185C6E903573C
S31508002D6080157561C6E906500002C6E908053046B1
S31508002D70FEF71CF808B1FDF7C7FEE6630022114608
S31508002D802720B463FEF71AFA2720FEF709FA06B0D9
S31508002D90BDE8F081001001403038024000000240D2
S31508002DA0004800400004024058600240D80800204D
S31508002DB090F84230202B01D00220704721B11AB179
S31508002DC00023036301F062BC01207047F0B4154A82
S31508002DD00168914223D1144B59880A0416D41A461D
S31508002DE04D0412784FF0000404D50A2A0DD141F497
S31508002DF0004112E00D2A0ED0C1F30D050B4E491CF9
S31508002E0089B272555980C72900D95C80F0BC012265
S31508002E100549FFF7CDBF41F480415980F6E7F0BC7C
S31508002E20704700000010014004010020A40900209A
S31508002E3037B5044690F84100202801D002203EBD4F
S31508002E40019901B3FAB12162A284E2840020606488
S31508002E50212384F84130A56B144BEB63A56B144B07
S31508002E602B64A56B134BEB64A36B1865206813469C
S31508002E70A56B021D2846FEF703F830B110206064E2
S31508002E80202084F8410001203EBD21686FF04000F3
S31508002E9008602068143050E8001F41F0800140E8BF
S31508002EA00012002AF5D100203EBD000009440008A2
S31508002EB04B440008BF43000870477047FEE7000010
S31508002EC01CB51348002240680189CDE90012C38861
S31508002ED011460F4802F0A5FE00234FF6FF720121A6
S31508002EE00B4802F0C5FF0A220AA31146084802F059
S31508002EF053FF0BA328220A21054802F04DFF02B012
S31508002F003C22BDE810400AA30A21014802F044BF4A
S31508002F102C000020496E666F20506167650000002E
S31508002F2053544D333246342050726F6A65637400C9
S31508002F304C43443A2053543737383920322E3022FE
S31508002F400000000010B503F07FF8BDE8104000202F
S31508002F5002F090B910B503F08DF8BDE810400020D6
S31508002F6002F088B910B503F09BF8BDE810400020C0
S31508002F7002F080B904490120044A887002480521F4
S31508002F80C43002F065B9000084020020993D0008AB
S31508002F9010B508B103F08CF8BDE8104002F006BA87
S31508002FA00D4808B5016841F4001101600068002267
S31508002FB000F40010009011460C20FEF7FFF80C20D4
S31508002FC0FEF7EEF8002211460E20FEF7F7F8BDE8E8
S31508002FD008400E20FEF7E4B83038024010B5044920
S31508002FE00448FDF793FD0249491E087010BD00000C
S31508002FF0F9000020E80801082DE9F04387B01421FC
S315080030006846FDF727F92F480024016841F080013A
S315080030100160016801F080010591016841F0040131
S315080030200160016801F004010591016841F00101A0
S315080030300160016801F001010591016841F0020192
S315080030400160016801F002010591016841F008017B
S31508003050016000681C4F00F0080005900122072156
S315080030603846FEF737F8DFF86480002240214046EC
S31508003070FEF730F8DFF8589041F23806002231465C
S315080030804846FEF727F8072000900125CDE90154A8
S31508003090694638460394FDF72DFF40200090CDE998
S315080030A00154694640460394FDF724FF0096CDE98E
S315080030B00154694648460394FDF71CFF07B0BDE86E
S315080030C0F083000030380240000802400000024049
S315080030D000040240064805490160002141608160FC
S315080030E0C16001614161816170470000002C0140A7
S315080030F0CC060020114810B50F4901604FF48271C3
S3150800310041604FF40041816000210222C0E90312A8
S3150800311001224261520282610822C0E90721416206
S3150800312081620A21C162FEF799FF002803D0BDE833
S315080031301040FDF7E9BC10BD0030014050070020E3
S31508003140104810B50E4901604FF4827141600021A4
S315080031508160C1604FF400720161C0E9051208225E
S31508003160C0E90721416281620A21C162FEF776FF42
S31508003170002803D0BDE81040FDF7C6BC10BD00000E
S3150800318000380040A807002010B58AB0002407942C
S315080031901C2168460894FDF75DF815484FF08041F4
S315080031A0C0E90014611EC0E9024104618461FFF7A9
S315080031B0AFFB08B1FDF7A8FC079407A90C480894CB
S315080031C0FFF764FA08B1FDF79FFC6020CDE900041B
S315080031D002940022694606480494FFF733FB08B1B7
S315080031E0FDF792FC0248FFF707FB0AB010BD000086
S315080031F0000800200C4810B50A4901604FF4E13177
S315080032004160002181600C22C160C0E9041281611D
S31508003210C161FFF7FFFC002803D0BDE81040FDF7A9
S3150800322073BC10BD00100140480800200C4810B5BA
S315080032300A4901604FF4E1314160002181600C22A6
S31508003240C160C0E904128161C161FFF7E3FC00288F
S3150800325003D0BDE81040FDF757BC10BD004800403C
S315080032609008002004490120044A88700248042175
S315080032701C3001F0EDBF000084020020993D0008D3
S31508003280FEE70000084810B5FF210170074A4170A3
S315080032900021117001218170001D02F025F8BDE89A
S315080032A0104002F067B8000084020020B411002024
S315080032B0FEE70000054A00201178052904D20448D3
S315080032C000EB4110491C117070470000C003002034
S315080032D0E811002070470A6842624A688262D1E9AA
S315080032E002231A43D1E904310B43C16A1A4321F078
S315080032F0F7011143C16200207047006800F003001F
S3150800330070470844406970470148FEF71DBB000036
S31508003310CC06002070B50DF1100C11439CE8700026
S315080033202343194329434268314347F6FF639A43C7
S315080033300A434260002070BD0321016000207047E7
S31508003340D0F8800070470A688260D1E901231A43E1
S31508003350D1E903310B43C1681A436FF30B011143DB
S31508003360C160002070470968C0F8801000207047C7
S3150800337010B585B0044600913721019140210020FF
S31508003380CDE902100801049069462046FFF7DBFFE5
S3150800339041F288323721204600F062F905B010BDA7
S315080033A010B50B4A85B0044611432920CDE9001013
S315080033B04020029000200390500D04906946204654
S315080033C0FFF7C1FF204600F003FA05B010BD000064
S315080033D00000108010B585B00446009110210191B7
S315080033E040210020CDE902100801049069462046D4
S315080033F0FFF7A9FF41F288321021204600F030F984
S3150800340005B010BD30B585B0002504460095019578
S315080034104FF480600295CDE9035069462046FFF7D0
S3150800342092FF0B484FF4FA510068B0FBF1F141F2F4
S3150800343088304143491E02D24FF0004504E0606BD4
S315080034400006F7D5C520A06305B0284630BD0000A4
S315080034505800002010B585B04FF4D57100910821A9
S315080034600446019140210020CDE90210080104908C
S3150800347069462046FFF767FF204600F00FFA05B0B9
S3150800348010BD10B585B00446009112210191402166
S315080034900020CDE902100801049069462046FFF78E
S315080034A052FF41F288321221204600F0D9F805B0C1
S315080034B010BD10B585B00446009111210191402137
S315080034C00020CDE902100801049069462046FFF75E
S315080034D03AFF41F288321121204600F0C1F805B0C2
S315080034E010BD10B585B00446072140200092CDE9ED
S315080034F00110002003904FF480600490694620462E
S31508003500FFF721FF41F288320721204600F0A8F88C
S3150800351005B010BD10B585B0002102220446C020B2
S31508003520CDE90201CDE90012500204906946204611
S31508003530FFF709FF204600F023F905B010BD10B5C6
S3150800354085B00446009109210191C0210020CDE9EA
S3150800355002104FF48060049069462046FFF7F3FE98
S31508003560204600F00DF905B010BD10B585B004462B
S3150800357000910D21019140210020CDE9021008019A
S31508003580049069462046FFF7DEFE41F288320D2197
S31508003590204600F065F805B010BD30B585B0054683
S315080035A000230320CDE900304020CDE902030001C5
S315080035B00C46049069462846FFF7C5FE22460321B5
S315080035C0284600F027F905B030BD000010B585B0D3
S315080035D00021044640200C22CDE90201CDE9001263
S315080035E00001049069462046FFF7ADFE034A0C2108
S315080035F0204600F035F805B010BD000000E1F505DD
S3150800360010B585B00446009119210191402100208A
S31508003610CDE902100801049069462046FFF793FE9B
S3150800362041F288321921204600F01AF805B010BD7B
S3150800363010B585B00446009118210191402100205B
S31508003640CDE902100801049069462046FFF77BFE83
S3150800365041F288321821204600F002F805B010BD64
S31508003660454B10B51B684FF4FA54B3FBF4F35343B8
S315080036705B1E02D24FF0004010BD426B12F0450FA0
S31508003680F6D01205F4D4426B520703D504218163A0
S31508003690084610BD426BD20702D00121816305E0BE
S315080036A0C52282630269D2B28A4201D0012010BDC6
S315080036B00021FFF726FE3149084201D1002010BD3E
S315080036C0002802DA4FF0007010BD410001D54020F5
S315080036D010BD810001D5802010BDC10002D54FF470
S315080036E0807010BD010102D54FF4007010BD410174
S315080036F002D54FF4806010BDC10102D54FF40060B9
S3150800370010BD010202D54FF4805010BD410202D50A
S315080037104FF4005010BD810202D54FF4804010BD11
S31508003720C10202D54FF4004010BD410302D54FF443
S31508003730003010BD810302D54FF4802010BDC103AF
S3150800374002D54FF4002010BD010402D54FF48010B5
S3150800375010BD410402D54FF4001010BD810402D5F6
S315080037604FF4800010BD000702D54FF4000010BDCD
S315080037704FF4803010BD00005800002008E0FFFD1F
S3150800378012494FF4FA520968B1FBF2F241F2883154
S315080037904A43521E02D24FF000407047416B11F067
S315080037A0450FF6D00905F4D4416B490703D5042122
S315080037B0816308467047416BC90703D001218163BD
S315080037C008467047C52181630020704758000020CD
S315080037D00F494FF4FA520968B1FBF2F241F2883107
S315080037E04A43521E02D24FF000407047416B11F017
S315080037F0450FF6D00905F4D4416B490703D50421D2
S31508003800816308467047C521816300207047000020
S315080038105800002030B5204B4FF4FA541B68B3FB10
S31508003820F4F441F288335C43641E02D24FF0004040
S3150800383030BD436B13F0450FF6D01B05F4D4436B2C
S315080038405B0703D504218163084630BD436BDB075C
S3150800385002D00121816303E00369DBB28B4201D008
S31508003860012030BDC52181630021FFF74AFD10F410
S31508003870604F04D0410406D54FF4005030BD000C0B
S315080038801080002030BD000402D54FF4805030BDB2
S315080038904FF4803030BD00005800002014494FF422
S315080038A0FA520968B1FBF2F241F288314A43521ED4
S315080038B002D24FF000407047416B11F0450FF6D029
S315080038C00905F4D4416B490703D5042181630846E9
S315080038D07047416BC90703D00121816308467047C9
S315080038E0416B490601D540218163002070470000DD
S315080038F05800002010B5064C01202070FDF704F88A
S3150800390018B9207820F001002070207810BD00003A
S31508003910FD00002010B5846B40F23A502168886398
S315080039202046FDF7F7FF012184F8341000212163B2
S31508003930062801D0052805D12068FFF747FEA16BA8
S315080039400843A063A06B0028204602D0FDF702FFBB
S3150800395010BDFDF7FBFE10BD10B5846B40F23A5062
S31508003960216888632046FDF7D5FF012184F83410C5
S3150800397000212163062801D0052805D12068FFF714
S3150800398025FEA16B0843A063A06B0028204602D041
S31508003990FDF7E0FE10BDFDF7D9FE10BD10B590B0DD
S315080039A004460120ADF838002068FFF7A6FC002879
S315080039B054D0606C032842D02068FFF7ABFD00287E
S315080039C04AD100212068FFF79CFC60670421206823
S315080039D0FFF797FCA06708212068FFF792FCE067CD
S315080039E00C212068FFF78DFCC4F88000606C032862
S315080039F025D00EA92068FFF7D0FD00282CD1606CD1
S31508003A0003281CD0BDF83800206501042068FFF79C
S31508003A1096FD002820D100212068FFF772FC606619
S31508003A2004212068FFF76DFCA06608212068FFF7CF
S31508003A3068FCE0660C212068FFF763FC2067042118
S31508003A402068FFF75EFC000DE06403A92046FDF739
S31508003A5083FE30B14FF0805010B010BD4FF080603B
S31508003A60FAE7B4F85000002302042068FFF739FD8E
S31508003A700028F1D104F1100007C88DE8070094E882
S31508003A800F00FFF747FC0020E6E700002DE9F84F96
S31508003A90002604460096374635460068FFF7B2FC0E
S31508003AA0002827D12068FFF7D5FC4FF0805B4FF040
S31508003AB001094FF6FF7848B1A6642068FFF7A2FC13
S31508003AC0002817D1A06C012802D01FE0C4F848903E
S31508003AD000212068FFF74CFC58B917E00021206840
S31508003AE0FFF746FC002805D151462068FFF758FC29
S31508003AF010B15846BDE8F88F00212068FFF701FC91
S31508003B000746C50F0098401C009001E0DFF824A086
S31508003B100099414501D2002DE0D0414502D34FF02E
S31508003B208070E7E7780002D5C4F8449000E0666440
S31508003B300020DFE7000010C170B5064C05460120DD
S31508003B402070FCF7EDFE18B92846FFF7D3FE207063
S31508003B50207870BDFD00002010B5124888B01446C4
S31508003B600078C00702D0032008B010BDC1B10129F2
S31508003B7005D0022908D003290CD00420F4E76846AA
S31508003B80FCF7BCFE06980AE06846FCF7B7FE0798FD
S31508003B90208005E06846FCF7B1FE0798400A2060D9
S31508003BA00020E1E7FD00002070B51D4616460846D0
S31508003BB00124A31E2A463146FCF7C8FE20B9FCF7A5
S31508003BC0A3FE0028FBD10024204670BDFFF792BE55
S31508003BD070B51D46164608460124A31E2A463146D8
S31508003BE0FCF7C6FE20B9FCF78FFE0028FBD100249F
S31508003BF0204670BDF8B5044640684FF48273984273
S31508003C0021D1A0684FF48065B0F5004F01D0A842D5
S31508003C100AD12068066826F0400606606068984261
S31508003C2011D1A068A8420ED000920B46002280212E
S31508003C30204600F043F8002804D0606D40F02000CC
S31508003C4060650320F8BD00920B4600220121EFE7CC
S31508003C50F8B515460E460B46009204460122022187
S31508003C6000F02CF8A0B9134813490068B0FBF1F02E
S31508003C704FF47A71484300906068B0F5827F0DD1A1
S31508003C803346002280212046009500F017F870B1CF
S31508003C90606D40F0200060650320F8BD009830B1E3
S31508003CA0401E009020688068C0430006F6D50020B4
S31508003CB0F8BD00005800002000366E012DE9F843D3
S31508003CC01E46914688460446089DFDF709FA401B9C
S31508003CD0351AFDF705FA074626480068C0F3CB30C3
S31508003CE068430AE0701C09D0FDF7FAF9C01BA84220
S31508003CF00FD275B10098B8B3401E0090206881684D
S31508003D0038EA010033D000204845EBD10020BDE851
S31508003D10F8832068416821F0E00141606068B0F5E9
S31508003D20827F0BD1A068B0F5004F02D0B0F5806F46
S31508003D3004D12068016821F040010160A06AB0F54D
S31508003D40005F09D12068016821F4005101602068EC
S31508003D50016841F400510160012084F851000020F7
S31508003D6084F850000320D2E7FFE70025C6E70120C4
S31508003D70CAE70000580000207047000004490120E7
S31508003D80044A8870024803217C3001F061BA0000B9
S31508003D9084020020993D00082DE9FE4F04007DD0DD
S31508003DA0616800297AD062782078824201D3401E61
S31508003DB060700420AA4E8DF80800AA48B578FCF76A
S31508003DC071FA00B10125A0787178884200D105B151
S31508003DD00125A34821780078491E814201D16278DD
S31508003DE01AB118B96078884200D1012502A920467F
S31508003DF001F0A6FADFF870824FF6E0794FF01E0B55
S31508003E00002D7BD00021404601F0EEFC0023CA4677
S31508003E104A460121404602F02BF8606805220090C8
S31508003E2092A31146404601F0B7FFA06870B100237F
S31508003E3048F230421946404602F01AF8A068009047
S31508003E408BA315220521404601F0A6FF002538E080
S31508003E502844C7B2C5EB05103A2101EB4001002200
S31508003E601FFA81F9CDE90092D8F804100BEB400649
S31508003E70B2B2CB8800217C4801F0D3FE6078B84204
S31508003E800DD1CDE9009AD8F80400B2B20021C38852
S31508003E90754801F0C6FE5346002203E0DDE0002324
S31508003EA04FF6FF720121704801F0E2FF04EB87002C
S31508003EB0B2B2C06800906DA30A216B4801F06CFF8E
S31508003EC06D1C9DF808008542A078C1DB80B10023EF
S31508003ED047F6FF720121644801F0CAFFD8F80400CA
S31508003EE065A30A22C088143881B25F4801F054FFDE
S31508003EF0A0789DF8081008448BE0FFE758486278D8
S31508003F0001788A427ED0A0784FF0FF36354688423F
S31508003F1005D89DF8083003448B4200D90E1A824210
S31508003F2005D39DF8081001448A4200D2151A002EBE
S31508003F3025DBC6EB06103A2202EB4002002192B2BC
S31508003F40CDE90021D8F804100BEB4007BAB2CB88AC
S31508003F500021454801F065FE00234FF6FF72012156
S31508003F60414801F085FFA078BAB2304404EB8000DE
S31508003F703EA3C06800900A213B4801F00DFF002DC2
S31508003F802EDBC5EB05103A2101EB400100228FB26A
S31508003F90CDE90072D8F804100BEB4006B2B2CB8814
S31508003FA00021314801F03DFECDE90079D8F804003A
S31508003FB0B2B20021C3882C4801F033FE4B460022DA
S31508003FC00121294801F054FFA078B2B2284404EB35
S31508003FD0800026A3C06800900A21234801F0DCFE71
S31508003FE0A07890B1002347F6FF7201211E4801F020
S31508003FF03FFFD8F8040020A3C088143881B20A22EB
S31508004000194800E01DE001F0C7FEA1789DF80800F8
S3150800401008442178884214D2002347F6FF7201210A
S31508004020114801F025FF9DF8080014A3C0EB001005
S315080040304200D8F80400C088143881B20A4801F052
S31508004040ABFE074D60781F222870A0786870054877
S315080040506168FCF70AF90020A870BDE8FE8F000029
S3150800406084020020B41100202C00002025730000D3
S315080040703C202573000000005E000000760000006A
S31508004080FDF734B830B593B030216846FCF7E2F84E
S3150800409014210CA8FCF7DEF81D480025016841F03C
S315080040A080510160006800F080501190194801683D
S315080040B041F4804101600068022400F480401190B8
S315080040C001200090000401908001CDE906400420FB
S315080040D00890A820CDE9090407200B906846FDF74B
S315080040E089F908B172B6FEE70CA90F2081E83100FC
S315080040F04FF4A0500F904FF48050109005210CA853
S31508004100FDF78EF8002801D072B6FEE713B030BD71
S3150800411040380240007000400248016841F47001CE
S315080041200160704788ED00E010B50A4C2068C06849
S31508004130C043C00709D108480069804721680020A4
S31508004140486221686420C862E06021686FF0010057
S31508004150086110BD6C0A002038010020F0B502681D
S31508004160274D284E284FDFF8A4C0294B4FF0804E24
S31508004170A84209D0704507D0B04205D0B84203D04E
S31508004180604501D0984203D122F070044A68224360
S31508004190A8421BD0704519D0B04217D0B84215D0E6
S315080041A0604513D0984211D01A4CA0420ED01A4C32
S315080041B0A0420BD0194CA04208D0194CA04205D0F9
S315080041C0184CA04202D0184CA04203D122F44074E5
S315080041D0CA6822434C6922F0800222438C68C46272
S315080041E00C688462A84201D0984201D1096901632A
S315080041F0016841F004010160012141610260F0BDDE
S31508004200000001400004004000080040000C004087
S3150800421000040140004001400044014000480140BC
S3150800422000180040001C004000200040F0B5026A5B
S31508004230036A23F00103036243688469114E24F07C
S3150800424073050C68104F2C4322F002058A682A432E
S31508004250B04201D0B84205D122F00805CA682A43FF
S3150800426022F00402B04201D0B84205D14D6923F4C8
S3150800427040731D438B692B434360846149684163DE
S315080042800262F0BD0000014000040140F0B5026A78
S31508004290036A23F010030362436884690D6824F4F3
S315080042A0E64444EA05248D6822F0200242EA051213
S315080042B00F4D104EA84201D0B04206D1CF6822F069
S315080042C0800242EA071222F04002A84201D0B04218
S315080042D007D14D6923F4406343EA85038D6943EAB0
S315080042E0850343608461496881630262F0BD00000A
S315080042F00000014000040140F0B5026A036A23F495
S31508004300807303624368C46922F4007224F073055B
S315080043100C68124E2C438D6842EA05220E4DA842BF
S3150800432001D0B04206D1CF6822F4006242EA0722E1
S3150800433022F48062A84201D0B04207D14D6923F425
S31508004340405343EA05138D6943EA05134360C46184
S315080043504968C1630262F0BD0000014000040140E3
S3150800436030B5036A026A22F4805202624268C4695E
S315080043700D6824F4E64444EA05248D6823F40053C2
S3150800438043EA0533084DA84202D0084DA84204D195
S315080043904D6922F4804242EA85124260C461496846
S315080043A00164036230BD00000000014000040140C2
S315080043B010B5806B0021C185FEF7EBFA10BD70B50C
S315080043C0846B2068406994F84110C0F3C01000253A
S315080043D0212904D118B1E584204600F062F8206846
S315080043E0406994F84210C0F38010222904D118B10C
S315080043F0E585204600F02EF8606C40F010006064F9
S315080044002046FEF7C6FA70BD10B50146806B0968EE
S315080044100968C90516D40021C1840168143151E818
S31508004420002F22F0800241E80023002BF5D1016815
S315080044300C3151E8002F42F0400241E80023002BDE
S31508004440F5D110BDFEF738FD10BD10B5806BFEF72F
S3150800445034FD10BD01680C3151E8002F22F490722A
S3150800446041E80023002BF5D10168143151E8002FEB
S3150800447022F0010241E80023002BF5D1016B012946
S3150800448009D101680C3151E8002F22F0100241E8E9
S315080044900023002BF5D1202180F84210002101636A
S315080044A0704701680C3151E8002F22F0C00241E83C
S315080044B00023002BF5D1202180F84110704708B55C
S315080044C090F84210222901D0022008BD81684FF4D5
S315080044D08053994201D1026922B1826A99421BD05E
S315080044E049B10AE00268816A5268C2F308020A8082
S315080044F0816A891C08E0016971B10168496801F09F
S315080045007F011170816A491C8162C18D491E0904A7
S31508004510090CC18503D01BE001684968F1E7016809
S31508004520CA6822F02002CA600168CA6822F480724A
S31508004530CA6001684A6922F001024A61202180F8AE
S31508004540421000214163026B012A03D0FEF73EFCAC
S31508004550002008BD016301680C3151E8002F22F0E4
S31508004560100241E80023002BF5D101680A68D2063B
S3150800457002D50A6849680091818DFEF709FAE7E7CE
S3150800458070B5044600680169E26821F44051114398
S315080045900161A1682069E26901436069104301432A
S315080045A02068C26849F20C639A430A43C2602068CD
S315080045B04169A26921F4407111434161314920687A
S315080045C0884202D03049884202D1FCF7D3FE01E086
S315080045D0FCF7C0FEE2690023192164253226B2F5EC
S315080045E0004F626828D0A0FB0101930F9200FBF7E9
S315080045F0E7FD0146B0FBF5F06FF01802504301EBFA
S31508004600800006EB0010B0FBF5F000F0F002B1FBFD
S31508004610F5F002EB0012B1FBF5F06FF01803584302
S3150800462001EB800006EB0010B0FBF5F000F00F0080
S3150800463021681044886070BDA0FB010192185B4197
S31508004640FBF7BEFD0146B0FBF5F00201B1FBF5F044
S315080046506FF01803584301EB800006EBC000B0FB6F
S31508004660F5F000F0F80002EB4002B1FBF5F0584314
S3150800467001EB800006EBC000B0FBF5F000F0070088
S31508004680D6E70000001001400014014081628285CF
S31508004690C28500214164222180F84210016921B1B6
S315080046A00168CA6842F48072CA6001684A6942F0C1
S315080046B001024A610068C16841F02001C16000201A
S315080046C0704700000148FEF765B900004808002059
S315080046D00148FEF75FB9000090080020FEE70000D9
S315080046E00FB4054B10B503A9044A029800F000F967
S315080046F010BC5DF814FB000099540008080100205E
S315080047007CB5044600201D46164600290BD0491ED6
S31508004710CDE90041044B6A462946304600F0E8F8E0
S31508004720009A002111707CBD1F5000080907090E68
S31508004730002804DB00F1E02080F80014704700F040
S315080047400F0000F1E02080F8141D704702E008C849
S31508004750121F08C1002AFAD170477047002001E0ED
S3150800476001C1121F002AFBD1704700002DE9FF5F27
S3150800477082B00021DDE90430020DDDF840B00343C4
S3150800478018D044F61050A2F2FF324243151411987D
S3150800479001281FD0A5EB0B00401C5FEA000A4FF06A
S315080047A000064E4FDFF83891B046504615D5CAF187
S315080047B0000413E0119801244AA3012801D16FEAE5
S315080047C00B010298119AC0E90031C0E9024206B00D
S315080047D0BDE8F09FCBF10000DFE704460021404A20
S315080047E0491842EB0450CDE9001012E0E00707D063
S315080047F032463B4640464946FBF773FE80468946A5
S3150800480032463B4610461946FBF76BFE06460F46F0
S315080048106410002CEAD1DDE90401DDE90023BAF1D0
S31508004820000F06DAFBF75DFE42464B46FBF759FEDC
S3150800483005E0FBF7C8FE42464B46FBF7C4FE0446B6
S315080048400E460022284BFBF745FF03D84FF0FF30F2
S31508004850014607E00022254B20463146FBF79AFD24
S31508004860FBF720FF102409E0002C0ADB0A220023AC
S31508004870FBF7A6FC039B30321A55641E50EA010268
S31508004880F2D1641C039AC4F111031444119A012A43
S3150800489003D0012208430DD10AE0084304D00020C2
S315080048A04FF0110B119072E7A3EB0B056D1E0DE08F
S315080048B05B4504DD4FF0000205F1010504E003DA6B
S315080048C04FF00002A5F10105002AECD002981199D3
S315080048D0C0E90231C0E9004579E70000000014404C
S315080048E00000F03F300000000000F0430000E03F09
S315080048F02DE9FF4F95B09B468946064600250FE2EF
S31508004900252877D100242746F84A0121059400E096
S31508004910044316F8013F203B01FA03F01042F7D191
S3150800492030782A2811D06FF02F033078A0F13002A2
S31508004930092A16D8059A44F0020402EB820203EB10
S3150800494042021044761C0590EFE759F8042B0592AD
S31508004950002A03DA504244F40054059044F0020455
S31508004960761C30782E2816D116F8010F44F0040468
S315080049702A280DD06FF02F023078A0F13003092BCA
S3150800498009D807EB870302EB4303C718761CF3E73E
S3150800499059F8047B761C30786C280FD006DC4C2836
S315080049A017D068280DD06A2814D104E0742810D0CE
S315080049B07A280FD10DE044F400140AE044F4801478
S315080049C001E044F440147278824202D104F580145E
S315080049D0761C761C307866280BD013DC582877D0DE
S315080049E009DC002875D04528F6D04628F4D0472893
S315080049F01AD19DE118E0632835D0642879D0652856
S31508004A0012D195E1702873D008DC6728F1D069289F
S31508004A106FD06E280DD06F2806D1B5E073282CD03C
S31508004A20752875D0782874D05A46179990476D1C02
S31508004A3075E1C4F30250022809D003280DD0D9F82D
S31508004A40001004280DD00D6009F1040967E1D9F8B2
S31508004A500010EA17C1E90052F6E7D9F800100D80F0
S31508004A60F2E70D70F0E719F8041B8DF80010002026
S31508004A708DF80100EA46012003E059F804AB4FF02F
S31508004A80FF3061074FF0000102D40DE008F1010183
S31508004A908846B9420FDA8045F8DB1AF8081000296B
S31508004AA0F4D108E008F1010188468142FADB1AF8D8
S31508004AB008100029F6D105985B46A0EB08072146A1
S31508004AC03846179A00F094FA284400EB080507E0E0
S31508004AD04DE029E10DE01AF8010B5A46179990475F
S31508004AE0B8F10108F7D25B4621463846179A13E112
S31508004AF042E00A220092C4F302524FF0000A022A48
S31508004B0008D059F804CB032A4FEAEC710AD00DE015
S31508004B1029E02AE009F1070121F00702F2E802C1BB
S31508004B20914609E00FFA8CFC4FEAEC71042A03D18E
S31508004B304FFA8CFC4FEAEC71002907DA0A46002185
S31508004B40DCF1000C61EB02012D2202E0220504D5FE
S31508004B502B228DF80420012203E0E20701D020224F
S31508004B60F7E7904659E00A2102E010220DE01021ED
S31508004B704FF0000A00910BE010224FF0000A44F0B3
S31508004B8004040827009203E008224FF0000A009266
S31508004B90C4F30252022A05D059F804CB0021032A8D
S31508004BA008D009E009F1070121F00702F2E802C17D
S31508004BB0914605E01FFA8CFC042A01D10CF0FF0C83
S31508004BC04FF00008220728D5702806D0009B83F0EE
S31508004BD0100353EA0A0305D00EE040228DF804209C
S31508004BE0012208E05CEA010206D030228DF8042092
S31508004BF08DF8050002229046009B83F0080353EACD
S31508004C000A030AD15CEA010201D1620705D53022FE
S31508004C108DF804204FF001087F1E582804D034A0D0
S31508004C2003900EA802900DE036A0F9E753466046B9
S31508004C30009AFBF7C5FA84460398825C0298401EE0
S31508004C40029002705CEA0100F0D1029806A9081ADF
S31508004C5000F1200A600702D524F4803400E0012719
S31508004C60574502DDA7EB0A0000E0002000EB0A0129
S31508004C70009005984144401A0590E00306D45B4627
S31508004C802146179A059800F0B3F90544002706E06F
S31508004C9001A85A46C05D179990476D1C7F1C474569
S31508004CA0F6DBE0030CD55B462146179A059800F01B
S31508004CB09FF9054404E030205A46179990476D1C21
S31508004CC00099481E00900029F5DC08E00298029930
S31508004CD05A460078491C0291179990476D1CBAF1FB
S31508004CE00001AAF1010AF1DC65E1000009280100CA
S31508004CF03031323334353637383961626364656644
S31508004D000000000030313233343536373839414205
S31508004D10434445460000000000F058F90544761C57
S31508004D20307800287FF4ECAD19B02846BDE8F08F3E
S31508004D30620700D4062709F1070222F0070CFCE8EF
S31508004D400223E14603F000485FEA080C02D00FF29E
S31508004D50702C0DE05FEA045C02D50FF2682C07E0C0
S31508004D605FEAC47C02D00FF2602C01E0AFF2700C4F
S31508004D704FF0FF3823F00043CDF850C065280CD01B
S31508004D8006DC452809D046281DD047283DD13DE0F8
S31508004D90662818D067287ED138E00021112F01DB5C
S31508004DA0112000E0781CCDE9000106A90EA8FFF73E
S31508004DB0DDFCDDE90F010E9A03910021009207F14F
S31508004DC0010A04914DE04FF000400097CDE901102B
S31508004DD006A90EA8FFF7CAFCDDE90F0203920E9B8F
S31508004DE011990022DDF80CA00093049211B9791CE0
S31508004DF000EB010AB7EB0A0004D4C0F1FF3007F153
S31508004E00010A0490AAEB0700019044E0012F00DA9A
S31508004E1001270021112F01DD112000E03846CDE9D8
S31508004E20000106A90EA8FFF7A1FCDDE90F010E9AFD
S31508004E300391002104910092BA4621070CD40399E4
S31508004E40514500DA8A46BAF1010F05DD009AAAF142
S31508004E500101515C302908D0B84202DA10F1040F7A
S31508004E6006DA0121CDE9011015E0AAF10101E9E709
S31508004E70002805DC049901440491AAEB000102E02C
S31508004E80411C514500DD8A460499401A401C019090
S31508004E904FF000400290200704D40198504501DBEA
S31508004EA0CDF8048000208DF84F0002980DF14F07C9
S31508004EB0B0F1004F25D02B200E9002984FF0020833
S31508004EC000280CDA404202902D200E9007E00A21B5
S31508004ED00298FBF72AFA3031029007F8011DB8F15B
S31508004EE00001A8F10108F2DC02980028EFD1791E2A
S31508004EF00E980870307800F0200040F0450007F85A
S31508004F00020D12A8C01B00F107081498007800B11A
S31508004F10012000EB0A01019801EBE0710598414474
S31508004F20401A401E0590E00306D45B462146179AB0
S31508004F30059800F05DF805441498007818B15A46AB
S31508004F40179990476D1CE00324D55B462146179AAE
S31508004F50059800F04DF805441CE00498002807DB86
S31508004F60DDE90301884203DD0098405C179901E0FA
S31508004F70179930205A469047049805F10105401CB8
S31508004F8004900198401E019004D12E205A46179984
S31508004F9090476D1CBAF10001AAF1010ADDDC05E0B3
S31508004FA017F8010B5A46179990476D1CB8F100017E
S31508004FB0A8F10108F4DC5B462146179A0598ABE68A
S31508004FC02D0000002B000000200000002DE9F04114
S31508004FD0044600251E461746880404D405E03946CB
S31508004FE02020B0476D1C641EF9D52846BDE8F0811F
S31508004FF02DE9F041044600251E469046C80301D512
S31508005000302700E02027880404D505E041463846C5
S31508005010B0476D1C641EF9D52846BDE8F0814A687C
S31508005020002A06D00A68531C0B6010704868401E98
S31508005030486070472DE9FE4F5FEA00084E481C4657
S3150800504016460F4608F120094FF0010A0ED098F8C7
S315080050503410002913D0D8F81000B919814217D98D
S3150800506046A006F029FF0520BDE8FE8F00904DA357
S315080050704EA24FF4337155A006F0FAFEFEE70090F3
S315080050805BA34AA240F2CD2150A006F0F1FEFEE74E
S31508005090D9F80810484601B18847F8070CD02046C9
S315080050A0394601230090641C7F1C1A46404605F0C9
S315080050B001FC050054D1761E0121404606F0F6FA99
S315080050C005004DD1AD208DF804000DF1040B34E038
S315080050D0BAF1000F13D05D466A1C3946404605F002
S315080050E05BFB98F8350008B1052200E00422207819
S315080050F0A854A918607848704FF0000A06E020788E
S315080051008DF80500607801228DF8060000200090D1
S315080051100023D9F80450484601A9921CA84705005F
S3150800512003D037A006F0C8FE1AE0404608F048F952
S31508005130050015D1A41CB61EBF1C022EC8D200211C
S31508005140404606F0B3FA05000AD1012E0CD1012318
S315080051501A4639464046009405F0ACFB050003D0D4
S315080051600021404606F0A2FAD9F80C10484601B1CB
S315080051708847284678E70000150F01084572726FC0
S31508005180723A20466C617368206164647265737351
S31508005190206973206F7574206F6620626F756E6460
S315080051A02E000000666C61736800000028257329CC
S315080051B02068617320617373657274206661696C17
S315080051C065642061742025732E0000002E5C2E2E47
S315080051D05C4D6964646C6577617265735C7366754A
S315080051E0645C7372635C736675642E63000000000A
S315080051F0666C6173682D3E696E69745F6F6B00003B
S315080052004572726F723A20466C61736820777269CC
S3150800521074652053504920636F6D6D756E696361BF
S315080052207465206572726F722E00000010B500F06A
S31508005230FBFE00F00FFFBDE8104000F021BF10B5DF
S3150800524000F0FAFE00F00EFFBDE8104000F020BFA7
S31508005250074B10B51B6813B11C693CB902E04FF047
S31508005260FF3010BD1861197702B1DA60002010BD51
S31508005270D41100202DE9FC411A4C05464FF0FF32A7
S31508005280206860B3217CC90729D0016839B3216039
S315080052904969E160FBF70CFC216808238A7F0869E5
S315080052A002EB420203EBC206875900268FB150F87B
S315080052B032700097142707EBC20280580190CE7708
S315080052C0887F0A6900EB400003EBC0001158684666
S315080052D088470DB1206886770020BDE8FC81104616
S315080052E0FBE70000D41100202DE9F041124E0446D8
S315080052F04FF0FF373068E8B9104800250570FDF70C
S31508005300D9FFB8B121684160616905608160E168CB
S31508005310C5604161226905618261057785774577B0
S315080053203060357460687060A068C6E902010020C4
S31508005330BDE8F0813846FBE7D4110020C003002001
S3150800534058B151B10B780278934200D90A70427865
S3150800535083789A4204D2827009E04FF0FF30704792
S315080053600978D31A8B4202DB511A491C8170002036
S31508005370704700001CB50C4C206810B1217CC90789
S3150800538002D04FF0FF301CBD616829B14268009217
S315080053908068019068468847012020742068406923
S315080053A0E06000201CBD0000D4110020F0B5264C9A
S315080053B099B02068F8B1217CC9071CD0E16839B1D9
S315080053C0426817928068189017A888470020E060FE
S315080053D021680D6965B3087F8DF80000887F8DF810
S315080053E00100487F8DF8020048680190886802909D
S315080053F000206E460EE04FF0FF3019B0F0BD00EB0E
S31508005400400305EBC30306EB80021F68D7605B69A0
S31508005410401C53639DF80020824201DD0A28EEDB1A
S31508005420C96809B13046884721689DF8020048775F
S315080054302068816931B1416817918168189181693D
S3150800544017A888470020D8E7D4110020014908602A
S3150800545070470000000100204FF47A71484300F0BD
S3150800546001B8000070B54FF0E02500216C69094AC3
S31508005470AB6912685043AA699A42FCD002D2A3EBE0
S31508005480020302E0A4EB02063344194413468142A0
S31508005490F1D370BD0001002003490A685206FCD505
S315080054A0C2B24A60704700000010014010B50028DB
S315080054B021D0114B0022001F196803E0814203D84E
S315080054C00A4649680029F9D152B11368841A9C42E0
S315080054D004D1006818441060104602E0506000E0ED
S315080054E0186039B102680B1A934203D10B681A4443
S315080054F002604968416010BD44040020F8B5684D53
S31508005500040013D006F090FE00286ED1606AB0B190
