:020000040800F2
:10000000F01A0020A1010008752900086B260008DD
:100010005D290008110900089D3A00080000000051
:100020000000000000000000000000000134000893
:10003000130900080000000099290008F5340008A1
:10004000BB010008BB010008BB010008BB010008A0
:10005000BB010008BB010008BB010008BB01000890
:10006000BB010008BB010008BB010008BB01000880
:10007000BB010008BB010008BB010008BB01000870
:10008000BB010008BB010008BB010008BB01000860
:10009000BB010008BB010008BB010008BB01000850
:1000A000BB010008BB010008BB010008BB01000840
:1000B000BB010008BB0100089D350008BB0100081A
:1000C000BB010008BB010008BB010008BB01000820
:1000D000BB010008913A0008BB010008BB01000801
:1000E000BB010008BB010008BB010008BB01000800
:1000F000BB010008BB010008BB010008BB010008F0
:10010000BB010008CD290008BB010008BB010008A5
:10011000BB010008BB010008BB010008BB010008CF
:10012000BB010008BB010008BB010008BB010008BF
:10013000BB010008BB010008BB010008BB010008AF
:10014000BB010008BB010008BB010008BB0100089F
:10015000BB010008BB010008BB010008BB0100088F
:10016000BB010008BB010008BB010008BB0100087F
:10017000BB010008BB010008BB0100080000000033
:10018000BB010008BB010008DFF810D000F05CFAEA
:100190000048004719620008AFF30080F01A002001
:1001A0000648804706480047FEE7FEE7FEE7FEE711
:1001B000FEE7FEE7FEE7FEE7FEE7FEE78D35000817
:1001C000890100082DE9F05F0546002092469B4614
:1001D00088460646814640241BE02846414647465D
:1001E000224600F069F853465A46C01A914110D38E
:1001F00011461846224600F050F82D1A67EB010808
:100200004F4622460120002100F047F817EB000975
:100210004E41201EA4F10104DFDC484631462A4647
:100220004346BDE8F09F40EA01039B0703D009E085
:1002300008C9121F08C0042AFAD203E011F8013BD2
:1002400000F8013B521EF9D27047D2B201E000F82B
:10025000012B491EFBD270470022F6E710B513466A
:100260000A4604461946FFF7F0FF204610BD30B598
:100270000B46014600202022012409E021FA02F564
:100280009D4205D303FA02F5491B04FA02F52844FE
:10029000151EA2F10102F1DC30BD202A04DB203A58
:1002A00000FA02F1002070479140C2F1200320FAC9
:1002B00003F3194390407047202A04DB203A21FAC7
:1002C00002F00021704721FA02F3D040C2F120026F
:1002D00091400843194670472DE9FE4F804681EA58
:1002E0000300C00F0C46009021F0004123F00045B0
:1002F000B8EB0200A94105D24046214690461C4673
:100300000B46024623F00040104347D0270DC7F3A9
:100310000A00C3F30A510290401A019040286BDA98
:10032000C3F3130040F4801B0098924620B10023D1
:10033000D2EB030A63EB0B0B01985946C0F1400264
:100340005046FFF7AAFF06460D4650465946019A09
:1003500000F08CF910EB08006141002487EA11528B
:1003600084EAE7731A4340D0009A62B3019A012AE3
:100370004FEA075215DC001B61EB02014FF000420F
:1003800002EA0752CDE90042001C41F580113246D5
:100390002B4600F08CF903B0BDE8F08F40462146B3
:1003A000F9E7001B61EB0201001C41F58013001806
:1003B0005B412018A2F5001747EB030140EAD57016
:1003C000B6196D4111E06D084FEA360645EAC07571
:1003D0004FEA0752001B61EB0201001C41F580113E
:1003E00049084FEA30000019514132462B4603B00C
:1003F000BDE8F04F00F04CB9009801224000002306
:10040000D0EB020263EBE073009821464FEAE07400
:10041000B8EB000061EB0401E9E783F000435BE720
:1004200081F0004158E72DE9FE4F81EA030404F012
:10043000004421F0004100944FF0000B23F00043F2
:1004400050EA01045ED052EA03045BD0C3F30A54BD
:10045000C1F30A552C44A4F2F3340194A0FB0254D6
:10046000C1F3130141F48011C3F3130343F4801368
:1004700001FB024400FB034E840A970A44EA8154BC
:1004800047EA8357A4FB076802958D0A05FB078599
:100490004FEA932C04FB0C542705029D4FEA0658A3
:1004A00047EA1637B5EB08056EEB070C870E920E80
:1004B00047EA811742EA8312A7FB0201B6EB0B0160
:1004C00064EB00042B0D43EA0C335E1844EB1C5024
:1004D000DA465146E7FB0201C5F313044FEA0B333A
:1004E00043EA14534FEA0432019C43EA0603A4F1A1
:1004F0000C040294009CCDE900B400F0D8F803B0DD
:10050000BDE8F08F00200146F9E72DE9F04D81EAC2
:10051000030404F0004B21F0004514464FF0000A9C
:1005200023F0004150EA050220D054EA01021DD018
:10053000C5F30A570246C5F31303C1F31300C1F311
:100540000A5640F4801543F48013A7EB0608101BED
:10055000D64608F2FD3873EB050002D308F1010816
:1005600001E092185B41B8F1000F03DA0020014668
:10057000BDE8F08D00204FF48011064684460EE061
:10058000171B73EB050705D3121B63EB050306432B
:100590004CEA010C49084FEA300092185B4150EADE
:1005A0000107EDD152EA030012D082EA040083EA87
:1005B0000501084305D0101BAB4106D201220023E0
:1005C00006E000224FF0004302E06FF001025310FA
:1005D0001AEB06004CEB085110EB0A0041EB0B0143
:1005E000BDE8F04D00F054B8C1F30A52C1F3130155
:1005F00040F2FF3341F480119A4202DA00200146B2
:10060000704740F233439A42A2F2334202DC524234
:10061000FFF752BEFFF741BE30B5041E71F1000472
:1006200004DB4FF00044404264EB0101141E73F1FF
:10063000000405DB1C464FF00043524263EB040309
:10064000994208BF904230BD064C074D06E0E06875
:1006500040F0010394E8070098471034AC42F6D309
:10066000FFF796FD98AB0008B8AB0008202A06DB20
:10067000CB17203A41FA02F043EAE07306E041FA70
:1006800002F3D040C2F1200291400843194670475E
:1006900010B5141E73F1000408DA401C41F100018A
:1006A00092185B411A4301D120F0010010BD2DE9E1
:1006B000F04D92469B4611B1B1FA81F202E0B0FAD8
:1006C00080F220329046FFF7E8FD04460F4640EAEC
:1006D0000A0041EA0B0153465A46084313D011461B
:1006E00053EA010019D0C8F140025046FFF7E4FD7B
:1006F00005460E46504659464246FFF7CEFD084392
:1007000005D0012004E020463946BDE8F08D0020E8
:10071000054346EAE0762C4337430A986305E40A2A
:10072000A0EB08000022FD0A44EA47540A3002D533
:1007300000200146E9E7010510196941DDE9084596
:1007400000196941BDE8F04DA2E770B58C1810F8AA
:10075000015B15F0070301D110F8013B2A1106D106
:1007600010F8012B03E010F8016B01F8016B5B1E20
:10077000F9D12B0705D40023521E0DD401F8013BFB
:10078000FAE710F8013BCB1A921C03E013F8015B67
:1007900001F8015B521EF9D5A142D8D3002070BDEB
:1007A0001CB51348002240680189CDE90012C388B6
:1007B00011460F4805F0CBFA00234FF6FF720121D6
:1007C0000B4805F0EDFB0A220AA31146084805F084
:1007D0007BFB0AA328220A21054805F075FB02B01D
:1007E0003C22BDE8104009A30A21014805F06CBB7A
:1007F0002C00002041626F75740000005665727312
:10080000696F6E3A20312E3000000000446174653B
:100810003A20323032342F30390000007047000067
:100820000146014800F09ABE6405002010B5044856
:1008300000F0A6FE042801D0012010BD002010BD4C
:100840006405002010B500F00BF8012801D001204C
:1008500010BDBDE81040014800F0ACBF64050020A9
:1008600008B501208DF800009DF8000008BD0000CB
:1008700038B50024009313460A460146034801F0A8
:1008800051F800B10124204638BD00006405002065
:100890007047000038B50024009313460A4601460D
:1008A000034801F037F900B10124204638BD0000AB
:1008B000640500207047000010B510A003F0F0F8A8
:1008C00003F088FD4FF4FA74204600F028F905F093
:1008D0006FFC204600F023F905F062FC05F07EFC79
:1008E000204600F01CF905F071FC05F087FC20465D
:1008F00000F015F9BDE8104005F078BC417070209B
:100900006D61696E20737461727465640D0A000014
:10091000FEE7704703490878002801D0401E0870A0
:1009200070470000E002002072B6FEE7002200F0EF
:1009300001B8000030B50E4B054601205C7A002C52
:1009400014D1587A1C54587A03EB800045605D7AC4
:1009500003F108002A54587A421C5A723030087049
:100960003A2048702F208870CC70002030BD0000E5
:10097000D80800202DE9F047384F394D394C3878E8
:100980004FF400484FF400794FF4005698B13146C7
:10099000284600F0BFF9A8B14146204600F0BAF958
:1009A00080B14946284600F0B5F958B13146204695
:1009B00000F0B0F930B13146284600F0ABF901281B
:1009C00037D049E00A2000F0AAF83146284600F066
:1009D000A1F970B14146204600F09CF948B1494662
:1009E000284600F097F920B13146204600F092F9F0
:1009F00090BB002038703146284600F08BF978B162
:100A00004146204600F086F968B14946284600F084
:100A100081F950B13146204600F07CF938B11BE035
:100A20000120BDE8F0870220FBE70320F9E704205E
:100A3000F7E74146204600F06DF901280CD1494600
:100A4000284600F067F9012806D13146204600F01B
:100A500061F9012800D138700020E2E7340200205B
:100A6000000C0240000402402DE9F0410446876D6D
:100A700000F062F9064694F835000025022806D0F9
:100A80008020606584F834500120BDE8F081206842
:100A9000016821F0160101602068416921F08001A0
:100AA0004161206C08B9A06C20B12068016821F078
:100AB000080101602068016821F0010101600CE07B
:100AC00000F03AF9801B052807D920206065032033
:100AD00084F8350084F83450D7E720680068C007F0
:100AE000EED194F85C103F208840B860012084F873
:100AF000350084F834500020C7E790F835100229FB
:100B000003D08021416501207047052180F8351010
:100B10000068016821F0010101600020704780B287
:100B200004F040B82DE9F84FDFF8BCA10022012500
:100B300003264FF00F090AF1040BAAF1040E00BFBF
:100B40000B6805FA02F42340A34270D10F7907F035
:100B50000307012F01D0022F16D187684FEA420800
:100B600006FA08FC27EA0C07D1F80CC00CFA08FCBE
:100B70004CEA070CC0F808C04768A7430C79C4F3D7
:100B8000001494403C4344600C79E443A4070AD029
:100B9000C4684FEA420C06FA0CF7BC438F6807FAA8
:100BA0000CF72743C7600C7904F00304022C12D120
:100BB000D40800EB840CDCF820405707FF0E09FA3C
:100BC00007F824EA0804D1F8108008FA07F848EA80
:100BD0000408CCF8208004684FEA420C06FA0CF7AF
:100BE000BC430F7907F0030707FA0CF727430760A8
:100BF0004C6814F4403F70D03C4C276847F4804761
:100C00002760246822F0030704F480440094384CE1
:100C100007EB040CDCF8084897074FEA177809FA45
:100C200008F7BC43334FB84202D1002724E054E018
:100C3000314FB84201D101271EE0304FB84201D1F7
:100C4000022719E02E4FB84201D1032714E02D4F9F
:100C5000B84201D104270FE02B4FB84201D105273C
:100C60000AE02A4FB84201D1062705E0284FB842D2
:100C700001D1072700E0082707FA08F72743CCF837
:100C80000878DAF800405746D1F804C09C435FEA80
:100C9000CC2C00D51C433C60DBF800405F46D1F80B
:100CA00004C09C435FEA8C2C00D51C433C60DEF8FA
:100CB00000407746D1F804C09C435FEA8C3C00D5E5
:100CC0001C433C60084F083F3C68D1F804C09C437B
:100CD0005FEACC3C00D51C433C60521C102AFFF458
:100CE0002FAFBDE8F88F0000083C014044380240B7
:100CF00000300140000002400004024000080240B1
:100D0000000C024000100240001402400018024093
:100D1000001C02400069084000D001207047426971
:100D200021EA02030A4043EA0241816170470AB1A5
:100D3000816170470904FBE7014880687047000043
:100D40006000002002488168027811448160704789
:100D5000600000200B4810B5016841F4007101608B
:100D6000016841F480610160016841F480710160B3
:100D7000032000F06FF80F2000F006F800F024F8D0
:100D8000002010BD003C024070B50D4D04464FF4EC
:100D90007A712878B1FBF0F00A490968B1FBF0F0EC
:100DA00001F0D5F848B9102C07D200222146501E78
:100DB00000F030F800206C6070BD012070BD0000B4
:100DC000600000206C0000200A4808B5016841F46A
:100DD00080410160006800F4804000900548001FD9
:100DE000016841F080510160006800F0805000907F
:100DF00008BD000044380240002809DB00F01F0253
:100E0000012191404009800000F1E020C0F800116C
:100E100070470000F0B40E4B1B680C46C3F302236E
:100E2000C3F10705042D00D90425191D072901D296
:100E3000002300E0DB1E012606FA05F1491E2140D1
:100E400099409E40761E16403143F0BC02F052BEDF
:100E50000CED00E0064900F0070208684FF6FF03BA
:100E6000184040EA0220034A10430860704700001F
:100E70000CED00E00000FA052DE9F0470E460500F4
:100E800065D0DFF81481D8F80000F7B200F0070051
:100E9000B04207D288F80070D8F8000000F00700D0
:100EA000B04254D128683D4C810712D5400703D584
:100EB000206840F4E05020602878000703D52068BF
:100EC00040F4604020602068A96820F0F0000843EA
:100ED00020602878C0072DD030496868083901287B
:100EE00012D0022813D0032811D0096889070029DD
:100EF0002DDA216821F0030101432160FFF71CFF77
:100F0000814641F2883A0EE009688903EFE70968F3
:100F10008901ECE7FFF710FFA0EB0901514502D969
:100F20000320BDE8F0872068696800F00C00B0EB92
:100F3000810FEFD1D8F80010404601F00701B1420F
:100F400007D90770006800F00700B04201D0012007
:100F5000E7E72878400705D52068E96820F4E050E5
:100F6000084320602878000706D52068296920F406
:100F7000604040EAC100206000F038F82168084A6B
:100F8000C1F30311515CC840064908600648006877
:100F9000FFF7FAFE0020C4E7003C02400838024098
:100FA000B87500086C000020640000200448054962
:100FB00000680968044AC1F38221515CC840704747
:100FC0006C00002008380240C87500080448054934
:100FD00000680968044AC1F34231515CC840704757
:100FE0006C00002008380240C8750008154810B58C
:100FF000006810F00C02144813D04110042A0FD0DE
:10100000082A0ED10F4C241F2268236802F03F02E9
:101010005B0207D52068C0F38810A0FB010106E041
:10102000084610BD2168C1F38811A1FB000100230F
:10103000FFF7C8F82168C1F30141491C4900B0FB22
:10104000F1F010BD083802400024F4002DE9F84FFB
:1010500004006ED02078DFF84C93C007A9F1040596
:101060004AD009F104000168C1F38101012908D0C7
:101070000068C0F3810002280AD1D9F800004002BC
:1010800006D52868800337D560680028E1D033E0B2
:101090006068B0F5803F10D0B0F5A02F286810D060
:1010A00020F480302860286820F480202860606860
:1010B000A8B1FFF741FE06460DE0286840F48030F5
:1010C000F4E740F480202860F7E700BFFFF734FE24
:1010D000801B642873D828688003F7D50CE0FFF7DD
:1010E0002BFE064605E000BFFFF726FE801B6428A6
:1010F000F0D828688003F7D42078DFF8AC82800726
:101100004FF0000A3ED5A748001D016811F00C0FF2
:1011100008D00068C0F3810002280BD1D9F8000084
:10112000400207D42868800716D5E068012800D15E
:1011300012E033E1E068B8B10120C8F80000FFF721
:10114000FBFD064605E000BFFFF7F6FD801B022809
:10115000C0D828688007F7D52868216920F0F800F2
:1011600040EAC10028600DE0C8F800A0FFF7E4FDE8
:10117000064604E0FFF7E0FD801B02281FD8286820
:101180008007F7D42078000722D5864F8748616909
:10119000703771B101210160FFF7CEFD064604E012
:1011A000FFF7CAFD801B022809D838688007F7D5E9
:1011B0000EE0C0F800A0FFF7BFFD064605E082E0A4
:1011C000FFF7BAFD801B02287DD838688007F7D466
:1011D0002078400768D5DFF8CCB100270BF13C0B35
:1011E000DBF80000C0000BD4DBF8001041F08051A8
:1011F000CBF80010DBF80000012700F080500090D1
:101200006B4E3068C00510D4306840F48070306098
:10121000FFF792FD009005E0FFF78EFD0099401A60
:10122000022850D83068C005F6D55E4EA0686C36EE
:1012300001280FD00528306810D020F00100306060
:10124000306820F004003060A068B8B1FFF774FD8A
:1012500000900FE0306840F00100F4E740F0040037
:101260003060F7E7FFF768FD0099411A41F28830D6
:10127000814266D830688007F4D50EE0FFF75CFD48
:10128000009007E0FFF758FD0099411A41F28830BD
:10129000814256D830688007F4D42FB1DBF80010B3
:1012A00021F08051CBF80010A069C8B33D49091D59
:1012B0000968C1F3810102294AD00228504607D0AB
:1012C000C8F8600000E03CE0FFF736FD04463BE074
:1012D0004746C8F86000FFF72FFD064605E000BF4F
:1012E000FFF72AFD801B02282BD828688001F7D43D
:1012F000D4E907010843A16A2E4A490802EB0141DB
:10130000626A41EA8211084394F82C1040EA0161B4
:10131000C9F8001001203866FFF70EFD044606E00C
:101320003EE000BFFFF708FD001B022809D828682F
:101330008001F7D534E000BFFFF7FEFC001B022858
:1013400002D90320BDE8F88F28688001F4D427E093
:101350000128F7D0D9F80000E26900F48001914239
:101360001CD1226A00F03F01914217D147F6C071AB
:10137000626A0140B1EB821F10D1A26A4FF0FF33C5
:1013800000F4403103EB5202B1EB024F06D194F866
:101390002C1000F07060B0EB016F01D00120D1E79C
:1013A0000020CFE70438024000004742800E474249
:1013B000007000400000FFFF10B5FFF72FFA10BDCE
:1013C00070470000F0B5426E920F0A70426EC2F391
:1013D00083624A70426EC2F301628A70426E120CDE
:1013E000CA70B0F86420120A0A7190F864204A7139
:1013F000826E120DCA80826EC2F303420A72B0F886
:101400006820C2F3C0324A72B0F86820C2F380325A
:101410008A72B0F86820C2F34032CA72B0F868200D
:10142000C2F300320A7300264E73426C4FF400750B
:10143000012462B1012A3AD0026847499163816B65
:1014400041F08051816380F834400120F0BDB0F854
:101450006820C36E9205120D42EA93720A61C26E51
:10146000C2F3C2620A75C26EC2F302624A75C26EEC
:10147000C2F342528A75C26EC2F38242CA75C26E0C
:10148000C2F3C2320A760A69521C42650B7E03F02F
:1014900007039B1C9A4042650B7A03F00F0704FA7E
:1014A00007F383655B0A5A43C0E917250EE090F8FD
:1014B0006820C36E9206920A42EA13420A610A69E0
:1014C000521C92024265C0E91652056630F86C2F34
:1014D000C2F3803201F8192F0288C2F3C6124A7093
:1014E000027802F07F028A704268D20FCA704268A6
:1014F000C2F341720A714268C2F382624A71426861
:10150000C2F383528A714268C2F34052CA710E72AA
:101510004268C2F300424A728288C2F3C0328A72C1
:101520008288C2F38032CA728288C2F340320A7360
:101530008288C2F300324A738288C2F381228A739E
:101540008288C2F30122CA730079C0F3460008748E
:101550004C740020F0BD0000FF054000426C0A60A2
:10156000826C4A60C26C8A60026DCA60426D0A6118
:10157000826D4A61C26D8A61006EC8610020704749
:1015800070B50446B0F8500000250104206801F051
:1015900056FB18B1A16B0143A16304E00021206850
:1015A00001F011FA0546C5F3432070BDF8B5056B8F
:1015B00004460068416B09041BD5290719D5D4E9F5
:1015C0000A56002E14D00027206801F01BFA05F8F7
:1015D000010B010A05F8011B010C05F8021B000EA6
:1015E000361F7F1C05F8010C082FEDD3C4E90A56FD
:1015F000F8BD416B4FF00006C9054FF0010744D517
:10160000390281632068C16B4CF23A329143C16365
:101610002068C16A21F00101C16228071DD515F0BB
:10162000220F09D0206801F03BFB28B1A16B0143D8
:10163000A1632046FFF7C4FE216840F23A50886358
:1016400084F834702663A80703D0204600F05AFAC5
:10165000F8BD204600F05AFAF8BD2806FCD5A806C9
:1016600009D5206801F01CFB28B1A16B0143A163DF
:101670002046FFF7A5FEA807EED12068C16A21F039
:101680000801C16284F83470E3E7416B490424D552
:10169000290722D5D4E90856002EDDD05FF00007D7
:1016A00015F8010B009015F8011B361F40EA0120C8
:1016B000009015F8021B40EA0140009015F8011C4B
:1016C00040EA016000906946206801F0AEF97F1C95
:1016D000082FE5D3C4E90856F8BD416B40F23A2221
:1016E0001142F9D0416B890703D5A16B41F002018A
:1016F000A163416B090703D5A16B41F00801A16308
:10170000416B890603D5A16B41F02001A163416BB8
:10171000C90603D5A16B41F01001A163416B890596
:1017200003D5A16B41F00801A16340F23A718163D6
:101730002068C16B40F23A329143C163206801F0E6
:10174000AFFAA16B0843A063280706D584F834706C
:1017500026632046FFF734FEF8BD2806FCD515F0B9
:10176000300F0CD0E16B11480865E06BFFF7C5F94D
:101770000028F1D0E06BBDE8F84001F059BCA807A3
:101780000CD0216C0A480865206CFFF7B6F90028D8
:10179000E2D0206CBDE8F84001F028BCA66384F8D4
:1017A000347026632046FFF707FEF8BD313000088D
:1017B000ED2F000870B504000ED094F83400002519
:1017C00018B92577204600F04FF8032084F834003C
:1017D000204600F00BF808B1012070BDA563256319
:1017E000012084F83400002070BD0000FEB5002503
:1017F000044676200095CDE9015029460B460A465D
:10180000206801F0E9F848BB154E46F8A05F206853
:1018100001F0F4F8012535600220FFF780F9204639
:1018200001F0A0FC30B100BF84F83450A16B01433B
:10183000A16313E0204601F01DFC0028F4D14FF411
:101840000071206801F02AF9002808D022680549B3
:101850009163A16B0143A16384F834500120FEBD64
:1018600000802542FF0540002DE9F04387B0044683
:1018700014216846FEF7F0FC26492068884246D1CC
:1018800025484FF00009016841F4006101600068DB
:1018900000F40060059020481438016841F004010C
:1018A0000160016801F004010591016841F008013F
:1018B00001600068022400F0080005904FF4807079
:1018C00001278DE8910003250C26DFF85080CDE933
:1018D000035669464046FFF725F9E0028DE81102FC
:1018E000CDE9035669464046FFF71CF904208DE810
:1018F0009100CDE9035669460948FFF713F9002224
:1019000003213120FFF786FA3120FFF775FA07B07F
:10191000BDE8F083002C014044380240000802403A
:10192000000C02402DE9F04F87B09B4616460D464D
:101930000446FFF701FA00903DB194F83400012805
:1019400007D0A06B40F000500DE0A06B40F00060AD
:1019500009E00020A063E26D06EB0B01914204D97F
:10196000A06B40F00070A0638AE0032184F834107B
:101970002168C862616C012900D076024FF0FF3106
:1019800001914FEA4B2102914FF0010803AA9021E7
:1019900002278146CDF8188082E8820201A92068DA
:1019A00000F0FBFFBBF1010F05D92763314620682A
:1019B00001F0CEF805E0C4F830803146206801F02F
:1019C000E0F8DFF83CA130B12268C2F838A0A16B82
:1019D0000143A16350E0029E1FE0406B000413D559
:1019E00096B10027206801F00DF805F8010B010AF7
:1019F00005F8011B010C05F8021B000E361F7F1CA9
:101A000005F8010C082FEDD3FFF796F90146009871
:101A1000091A1098814220D2F8B12068426B40F236
:101A20002A310A42D9D0416BC90509D5BBF1010F52
:101A300006D9616C032903D001F032F90028C3D123
:101A40002068416B090702D4416B89051AD5C0F89B
:101A500038A0A06B40F0080050E02168C1F838A021
:101A6000A06B40F00040A06384F83480C4F830904C
:101A7000032007B0BDE8F08F84F83480C4F83090BC
:101A80000120F6E7416B890705D5C0F838A0A06BA7
:101A900040F0020032E0416B89061BD5C0F838A047
:101AA000A06B40F0200029E000F0ACFF05F8010B2E
:101AB000010A05F8011B010C05F8021B000E05F8D0
:101AC000010C361FFFF738F90099411A109881422E
:101AD0000ED268B12068416B890201D5002EE3D196
:101AE000216840F23A50886384F834800020C0E7CF
:101AF0002168C1F838A0A06B40F00040A063BBE7AC
:101B0000FF05400010B5FEF7C3FE10BD10B5FEF78F
:101B1000D1FE10BD2DE9F04F8DB09B4616460D4607
:101B20000446FFF709F90A903DB194F83400012802
:101B300007D0A06B40F000500DE0A06B40F00060BB
:101B400009E00020A063E26D06EB0B01914204D98D
:101B5000A06B40F00070A0637AE0032184F8341099
:101B60002168C862616C012900D076024FF0FF3114
:101B700003914FEA4B2104919021CDE905104FF0DC
:101B80000109CDE90709824603A9206800F005FF95
:101B9000BBF1010F06D9202020633146206801F0F7
:101BA00099F805E0102020633146206801F0ABF879
:101BB0005FEA000806D0216841488863A06B40EACC
:101BC000080074E0049E27E0406B40041CD5DEB1A1
:101BD0005FF0000715F8010B009015F8011B361F88
:101BE00040EA0120009015F8021B40EA01400090F5
:101BF00015F8011C40EA016000906946206800F079
:101C000014FF7F1C082FE5D3FFF796F80A99411AB5
:101C10001698814220D2F8B12068416B40F21A3206
:101C20001142D1D0416BC90523D5BBF1010F20D999
:101C3000616C03291DD001F033F8D0B1226820492E
:101C40009163A16B0143A16384F83490C4F830A080
:101C500001200DB0BDE8F08F216819488863A06BA2
:101C600040EA0800A06384F83490C4F830A0032050
:101C7000EFE72068416B090702D4416B890505D560
:101C80000F498163A06B40F0080010E0416B8907A9
:101C900005D50B498163A06B40F0020007E0416B62
:101CA000C90606D506498163A06B40F01000A06309
:101CB000CAE740F23A51816384F834900020C8E7C3
:101CC000FF05400070B5040009D0606A002540B1EE
:101CD00025616561A56294F8510040B10CE00120D6
:101CE00070BD6068B0F5827FF4D0E561F2E784F8FA
:101CF0005050204600F044F8022084F8510020683B
:101D0000016821F040010160A088218900F48270FF
:101D100001F404410843A18901F400610843217CD6
:101D200001F002010843217D01F001010843218BEC
:101D300001F400710843217F01F03801084394F851
:101D4000201001F080010843218D01F40051084367
:101D500021680860A069042101EA104094F8241069
:101D600001F010010843216848602068C16921F42E
:101D70000061C1616565012084F85100002070BDDB
:101D800010B586B0044614216846FEF765FA13497B
:101D90002068884220D112480021026842F4805213
:101DA0000260006800F4805005900D481438026805
:101DB00042F001020260006800F001000590A020DE
:101DC00000900220CDE9010103200390052004903A
:101DD00069460448FEF7A6FE06B010BD003001407B
:101DE00044380240000002402DE9F84F984616465C
:101DF0008A460446FEF7A0FF814694F85100012868
:101E00001ED1BAF1000F73D0002E71D094F850009B
:101E1000012815D0012784F85070032084F8510060
:101E200000256565C4F830A0A686E686A563A5876B
:101E3000E58765642564A068B0F5004F03D00CE029
:101E40000220BDE8F88F2068016821F040010160A0
:101E50002068016841F480410160206801684906FA
:101E600003D4016841F040010160E068B0F5006F03
:101E7000606803D048B3012E27D047E008B1012E97
:101E80001FD1206B21680088C86006E02068816847
:101E9000890709D5216B0988C160206B801C2063EC
:101EA000E08E401EE0860CE0FEF746FFA0EB090145
:101EB000414503D3B8F1FF3F03D035E0B8F1000F3F
:101EC00032D0E08E0028E1D123E0206B2168007839
:101ED000087306E02068816889070AD5216B0978B4
:101EE0000173206B401C2063E08E401EE0860DE0F5
:101EF0002BE0FEF721FFA0EB0901414503D3B8F128
:101F0000FF3F03D010E0B8F1000F0DD0E08E0028A5
:101F1000E0D14A464146204601F0E0F908B12020D0
:101F20006065A06830B109E084F8517084F85050C1
:101F3000032086E72068C1688068009084F85170AB
:101F400004F8505F60680028F3D0012079E710B5ED
:101F5000401EB0F1807F01D3012010BD4FF0E0247E
:101F600060610F21601701F0C5FD0020A06107200E
:101F70002061002010BD000070B590F83C20012ABF
:101F800032D0012480F83C40022280F83D200368D2
:101F90005A689D6822F070060A6832435A60134BF3
:101FA00002689A4214D0B2F1804F11D0104B9A427D
:101FB0000ED0104B9A420BD00F4B9A4208D00F4BC9
:101FC0009A4205D00E4B9A4202D00E4B9A4204D14F
:101FD000496825F080031943916080F83D40002155
:101FE00080F83C10084670BD022070BD0000014022
:101FF0000004004000080040000C004000040140C4
:10200000004001400018004010B5040003D094F8CF
:102010003D0010B107E0012010BD002084F83C0015
:10202000204600F01EF8022084F83D00211D2068A3
:1020300001F0CEFA012084F8460084F83E0084F8CE
:102040003F0084F8400084F8410084F8420084F89E
:10205000430084F8440084F8450084F83D000020E3
:1020600010BD704790F83D10012901D00120704744
:10207000022180F83D100168CA6842F00102CA607E
:1020800000681149884214D0B0F1804F11D00F4937
:1020900088420ED00E4988420BD00E49884208D0A3
:1020A0000D49884205D00D49884202D00C4988422A
:1020B00004D1816801F00701062903D0016841F0CD
:1020C0000101016000207047000001400004004051
:1020D00000080040000C00400004014000400140A6
:1020E0000018004010B586B0044614216846FEF77B
:1020F000B3F82068B0F1804F14D10B48002102687A
:1021000042F0010202600068022200F00100059026
:1021100001200090CDE90121CDE903106946034873
:10212000FEF700FD06B010BD30380240000002404E
:1021300070B5044690F83C0000260D4601280FD0EB
:10214000012084F83C006AB1042A1DD0082A2FD04F
:102150000C2A3FD00126002084F83C00304670BD98
:10216000022070BD206801F09FFA2068816941F06B
:10217000080181612068816921F004018161206882
:1021800081692A69114311E0206801F0BDFA2068D5
:10219000816941F4006181612068816921F4806175
:1021A0008161206881692A6941EA02218161D2E75F
:1021B000206801F0DFFA2068C16941F00801C161BF
:1021C0002068C16921F00401C1612068C1692A69E0
:1021D000114311E0206801F001FB2068C16941F45E
:1021E0000061C1612068C16921F48061C16120681A
:1021F000C1692A6941EA0221C161ACE710B5040056
:1022000003D094F83D0010B107E0012010BD00207C
:1022100084F83C00204600F01FF8022084F83D00BE
:10222000211D206801F0D4F9012084F8460084F8CB
:102230003E0084F83F0084F8400084F8410084F8B0
:10224000420084F8430084F8440084F8450084F890
:102250003D00002010BD000008B50068B0F1804FBF
:1022600008D10548016841F001010160006800F0F3
:102270000100009008BD00004038024070477047E0
:10228000F8B5016804460868CA684B6910F00F0F7A
:102290004FF0000559D003F0010602F49077374360
:1022A00065D0C10705D0D10503D5616C41F00101AE
:1022B0006164410705D5D90703D0616C41F0020183
:1022C0006164810705D5D90703D0616C41F0040131
:1022D0006164010707D502F02001314303D0616C2E
:1022E00041F008016164616C00293AD0800604D590
:1022F000900602D5204601F0C8FA20684069616C5A
:10230000C0F38010090700D460B3204601F096FAAC
:1023100020684069400621D52068143050E8001F2D
:1023200021F0400140E80012002AF5D1E06BA8B18D
:102330006E490165E06BFEF7E0FB002811D0E06B11
:10234000016D01B0BDE8F040084783060FD5930644
:102350000DD52046BDE8F84001F097BA2046FFF7BA
:102360008EFFF8BD2046FFF78AFF6564F8BD266B37
:102370002023012E7DD1C6067BD5D60679D50868E7
:102380004868009048694FF00206400641D5E16B6D
:10239000086840680004000CE8D0A28D8242E5D9AC
:1023A000E085C869B0F5807F2DD020680C3050E8FA
:1023B000001F21F4807140E80012002AF5D1206846
:1023C000143050E8001F21F0010140E80012002AFB
:1023D000F5D12068143050E8001F21F0400140E89A
:1023E0000012002AF5D184F84230256320680C30B1
:1023F00050E8001F21F0100140E80012002AF5D13A
:10240000E06BFEF731FB6663A08DE18D401A81B26F
:102410002AE0A08DE18D401A81B2E08D0028A5D080
:102420000029A3D022680C3252E8000F20F49070EB
:1024300042E80007002FF5D12068143050E8002F43
:1024400022F0010240E80027002FF5D184F8423045
:10245000256320680C3050E8002F22F0100240E87D
:102460000023002BF5D166632046FFF707FFF8BD78
:10247000FFE705062BD5150629D594F8410021283C
:10248000F5D1A068B0F5805F01D12069B0B1206AB4
:10249000411C2162216800784860E08C401E0004E5
:1024A000000CE084E3D12068C16821F08001C160A4
:1024B0002068C16841F04001C160D8E7206A008807
:1024C000C0F308004860206A801C2062E5E74006EF
:1024D000CDD55006CBD5CA68204622F04002CA604E
:1024E00084F8413000F0C0F8C1E700002D38000842
:1024F00070B5040004D094F84100002510B106E046
:10250000012070BD84F84050204600F023F82420BC
:1025100084F841002068C16821F40051C160204660
:1025200001F014FA2068016921F4904101612068EA
:10253000416921F02A0141612068C16841F40051DC
:10254000C1606564202084F8410084F8420065631E
:10255000002070BD30B500681F4987B0884238D16F
:102560001E48016841F010010160006800F0100091
:1025700005901A481438016841F0010101600168B2
:1025800001F001010591016841F00101016000685D
:10259000012100F0010005904FF40070009002202E
:1025A000CDE901010724CDE903040D4D6946284614
:1025B000FEF7B8FA28150090694604942846FEF7FD
:1025C000B1FA2520FEF718FC032211462520FEF75C
:1025D00021FC07B030BD000000100140443802402B
:1025E0000000024090F84230202B01D002207047BA
:1025F00021B11AB10023036301F02EBA0120704704
:1026000030B400681549884225D1154841880A042C
:1026100016D402464C0412784FF0000304D50A2A5F
:102620000DD141F4004114E00D2A10D0C1F30D0486
:102630000C4D491C89B22A554180C72900D94380D5
:102640000848012230BC0649C830FFF7CBBF41F42F
:1026500080414180F4E730BC704700000010014029
:102660002C0200202C0900207047FEE71CB51348FF
:10267000002240680189CDE90012C38811460F4845
:1026800003F065FB00234FF6FF7201210B4803F0B6
:1026900087FC0A220AA31146084803F015FC0BA385
:1026A00028220A21054803F00FFC02B03C22BDE8B5
:1026B00010400AA30A21014803F006BC2C000020A8
:1026C000496E666F205061676500000053544D33BA
:1026D0003246342050726F6A656374004C43443A4A
:1026E0002053543737383920322E30220000000072
:1026F000012808D0022809D003280AD004280AD1CA
:10270000012002F0A3B8012002F05EB9012002F01E
:102710003DB902F03FB8704710B5FEF72BF9040041
:1027200006D003F077FD2046BDE81040FFF7E0BF7C
:1027300010BD000010B504490448FEF7F7F802493F
:10274000491E087010BD00005A000020A475000842
:102750002DE9F04786B014216846FDF77DFD3F481E
:102760000024016841F080010160016801F08001EE
:102770000591016841F004010160016801F0040164
:102780000591016841F001010160016801F001015A
:102790000591016841F002010160016801F0020148
:1027A0000591016841F00801016000682C4F00F0BC
:1027B00008000590012207213846FEF7B8FADFF835
:1027C000A480002240214046FEF7B1FADFF898903D
:1027D000FE14002231464846FEF7A9FADFF88CA025
:1027E000002238215046FEF7A2FA0720009001256A
:1027F000CDE90154694638460394FEF793F9402029
:102800000090CDE90154694640460394FEF78AF9E9
:102810004FF420408DE8310069465046FEF782F9BA
:102820004FF408508DE8310069464846FEF77AF9C2
:102830000220CDE90204CDE9006569464846FEF76D
:1028400071F938200090CDE901546946504603944F
:10285000FEF768F906B0BDE8F087000030380240A6
:102860000008024000000240000C02400004024048
:10287000064805490160002141608160C160016135
:102880004161816170470000002C01406405002017
:10289000114810B50F4901604FF4827141604FF447
:1028A0000041816000210222C0E90312012242613D
:1028B000520282610822C0E90721416281620A2135
:1028C000C162FFF7FFF9002803D0BDE81040FEF712
:1028D0002BB810BD00300140E805002010B58AB0CB
:1028E000002407941C2168460894FDF7B5FC1548A0
:1028F0004FF08041C0E90014611EC0E9024104614B
:102900008461FFF77BFC08B1FEF70EF8079407A976
:102910000C480894FFF730FB08B1FEF705F860207B
:10292000CDE9000402940022694606480494FFF7AA
:10293000FFFB08B1FDF7F8FF0248FFF7D3FB0AB031
:1029400010BD000040060020024A0321024801F0A9
:102950000FBF00001934000850020020FEE70000FD
:1029600010B5034801F0B0FFBDE8104001F0F2BF20
:1029700038020020FEE70000054A002011780529F2
:1029800004D2044800EB4110491C1170704700004C
:10299000E0020020500A002070470A6842624A683C
:1029A0008262D1E902231A43D1E904310B43C16A9F
:1029B0001A4321F0F7011143C162002070470068FB
:1029C00000F0030070470844406970470148FEF773
:1029D000EDBD00006405002070B50DF1100C114331
:1029E0009CE870002343194329434268314347F66A
:1029F000FF639A430A434260002070BD03210160D7
:102A000000207047D0F8800070470A688260D1E9E2
:102A100001231A43D1E903310B43C1681A436FF311
:102A20000B011143C160002070470968C0F8801095
:102A30000020704710B585B004463720CDE900105E
:102A400040200290002003904FF48060049069467B
:102A50002046FFF7DAFF41F288323721204600F0A6
:102A60006BF905B010BD000010B504460A4885B0EA
:102A700001432920CDE9001040200290002003905E
:102A80004FF48060049069462046FFF7BEFF204661
:102A900000F00AFA05B010BD0000108010B585B036
:102AA00004461020CDE90010402002900020039041
:102AB0004FF48060049069462046FFF7A6FF41F27C
:102AC00088321021204600F037F905B010BD000013
:102AD00030B585B000240546009401944FF4806021
:102AE0000294CDE9034069462846FFF78EFF0B4864
:102AF0004FF4FA510068B0FBF1F041F288314843DD
:102B0000401E03D24FF0004005B030BD696B09068E
:102B1000F6D5C520A8632046F6E700006C0000202B
:102B200010B585B004464FF4D57000900820019090
:102B300040200290002003904FF48060049069468A
:102B40002046FFF762FF204600F014FA05B010BDE2
:102B500010B585B004461220CDE900104020029047
:102B6000002003904FF48060049069462046FFF7F0
:102B70004CFF41F288321221204600F0DDF805B00A
:102B800010BD10B585B004461120CDE900104020DD
:102B90000290002003904FF4806004906946204624
:102BA000FFF733FF41F288321121204600F0C4F8CC
:102BB00005B010BD10B585B004460720CDE9002052
:102BC00040200290002003904FF4806004906946FA
:102BD0002046FFF71AFF41F288320721204600F015
:102BE000ABF805B010BD10B585B004460021022039
:102BF000CDE90010C020CDE902014FF480600490BF
:102C000069462046FFF701FF204600F025F905B090
:102C100010BD10B585B004460920CDE90010C020D4
:102C20000290002003904FF4806004906946204693
:102C3000FFF7EBFE204600F00FF905B010BD10B510
:102C400085B004460D20CDE9001040200290002000
:102C500003904FF48060049069462046FFF7D5FE4C
:102C600041F288320D21204600F066F805B010BD13
:102C700030B585B00C46054600210320CDE9001093
:102C80004020CDE902010001049069462846FFF783
:102C9000BCFE22460321284600F028F905B030BDCD
:102CA00010B585B0044600210C20CDE9001040206D
:102CB000CDE902010001049069462046FFF7A5FE18
:102CC000034A0C21204600F037F805B010BD000083
:102CD00000E1F50510B585B004461920CDE90010D6
:102CE00040200290002003904FF4806004906946D9
:102CF0002046FFF78AFE41F288321921204600F073
:102D00001BF805B010BD10B585B004461820CDE9FC
:102D1000001040200290002003904FF48060049047
:102D200069462046FFF771FE41F28832182120469D
:102D300000F002F805B010BD454B10B51B684FF40C
:102D4000FA54B3FBF4F353435B1E02D24FF000403E
:102D500010BD426B12F0450FF6D01205F4D4426B51
:102D6000520703D504218163084610BD426BD20788
:102D700002D00121816305E0C52282630269D2B2DB
:102D80008A4201D0012010BD0021FFF71CFE31490D
:102D9000084201D1002010BD002802DA4FF0007077
:102DA00010BD410001D5402010BD810001D580201B
:102DB00010BDC10002D54FF4807010BD010102D5D5
:102DC0004FF4007010BD410102D54FF4806010BD7A
:102DD000C10102D54FF4006010BD010202D54FF4CD
:102DE000805010BD410202D54FF4005010BD810249
:102DF00002D54FF4804010BDC10202D54FF400400F
:102E000010BD410302D54FF4003010BD810302D53F
:102E10004FF4802010BDC10302D54FF4002010BD37
:102E2000010402D54FF4801010BD410402D54FF4C7
:102E3000001010BD810402D54FF4800010BD0007C2
:102E400002D54FF4000010BD4FF4803010BD0000DB
:102E50006C00002008E0FFFD12494FF4FA520968A7
:102E6000B1FBF2F141F288325143491E02D24FF0D8
:102E700000407047426B12F0450FF6D01205F4D4B3
:102E8000416B490703D50421816308467047416BB4
:102E9000C90703D00121816308467047C5218163BA
:102EA000002070476C0000200F494FF4FA52096867
:102EB000B1FBF2F141F288325143491E02D24FF088
:102EC00000407047426B12F0450FF6D01205F4D463
:102ED000416B490703D50421816308467047C5212A
:102EE00081630020704700006C00002030B5204B4B
:102EF0004FF4FA541B68B3FBF4F341F28834634394
:102F00005B1E02D24FF0004030BD446B14F0450F01
:102F1000F6D02405F4D4436B5B0703D50421816309
:102F2000084630BD436BDB0702D00121816303E01B
:102F30000369DBB28B4201D0012030BDC521816322
:102F40000021FFF740FD10F4604F04D0410406D586
:102F50004FF4005030BD000C1080002030BD000444
:102F600002D54FF4805030BD4FF4803030BD0000AA
:102F70006C00002014494FF4FA520968B1FBF2F1D9
:102F800041F288325143491E02D24FF0004070474F
:102F9000426B12F0450FF6D01205F4D4416B49078D
:102FA00003D50421816308467047416BC90703D0EC
:102FB0000121816308467047416B490601D54021D4
:102FC00081630020704700006C00002010B5064CA3
:102FD00001202070FDF72AFC18B9207820F00100AC
:102FE0002070207810BD00005800002010B5846BC0
:102FF00040F23A50216888632046FEF7C1FA012169
:1030000084F8341000212163062801D0052805D159
:103010002068FFF745FEA16B0843A063A06B002862
:10302000204602D0FEF7CCF910BDFEF7C5F910BD61
:1030300010B5846B40F23A50216888632046FEF751
:103040009FFA012184F8341000212163062801D061
:10305000052805D12068FFF723FEA16B0843A06374
:10306000A06B0028204602D0FEF7AAF910BDFEF79B
:10307000A3F910BD10B590B004460120ADF838009A
:103080002068FFF79CFC002854D0606C032842D0D5
:103090002068FFF7A8FD00284AD100212068FFF72B
:1030A00092FC606704212068FFF78DFCA06708216F
:1030B0002068FFF788FCE0670C212068FFF783FC9D
:1030C000C4F88000606C032825D00EA92068FFF7A3
:1030D000CFFD00282CD1606C03281CD0BDF838002F
:1030E000206501042068FFF794FD002820D100210D
:1030F0002068FFF768FC606604212068FFF763FC26
:10310000A06608212068FFF75EFCE0660C212068BD
:10311000FFF759FC206704212068FFF754FC000DDD
:10312000E06403A92046FEF74DF930B14FF080501E
:1031300010B010BD4FF08060FAE7B4F850000023E3
:1031400002042068FFF736FD0028F1D104F11000D9
:1031500007C88DE8070094E80F00FFF73DFC00204A
:10316000E6E700002DE9F84F0026044600963546B4
:10317000B0460068FFF7ACFC002827D12068FFF7B5
:10318000CFFC4FF0805B4FF001094FF6FF7748B15D
:10319000A6642068FFF79CFC002817D1A06C0128CA
:1031A00002D020E0C4F8489000212068FFF742FCDC
:1031B00058B918E000212068FFF73CFC002805D131
:1031C00051462068FFF750FC10B15846BDE8F88F13
:1031D00000212068FFF7F7FB05464FEAD0780098FA
:1031E000401C009002E0DFF82CA00098B84202D208
:1031F000B8F1000FDED00098B84202D34FF08070D3
:10320000E4E7680002D5C4F8449000E0666400205A
:10321000DCE70000000010C170B5064C0546012037
:103220002070FDF70FFB18B92846FFF7CFFE20707E
:10323000207870BD5800002010B5124888B01446A0
:103240000078C00702D0032008B010BDC1B1012929
:1032500005D0022908D003290CD00420F4E76846E1
:10326000FDF7DEFA06980AE06846FDF7D9FA0798F6
:10327000208005E06846FDF7D3FA0798400A2060F1
:103280000020E1E75800002070B51D4616460846AC
:103290000124A31E2A463146FDF7EAFA28B900BFE9
:1032A000FDF7C4FA0028FBD10024204670BDFFF7CB
:1032B0008DBE000070B51D46164608460124A31EAB
:1032C0002A463146FDF7E6FA28B900BFFDF7AEFA07
:1032D0000028FBD10024204670BD0000F8B515463B
:1032E0000E460B46009204460122022100F02CF803
:1032F000A0B9134813490068B0FBF1F04FF47A719C
:10330000484300906068B0F5827F0DD133460022BB
:1033100080212046009500F017F870B1606D40F0F4
:10332000200060650320F8BD009830B1401E009079
:1033300020688068C0430006F6D50020F8BD000074
:103340006C00002000366E012DE9F8431E469146C0
:1033500088460446089DFDF7EFFC401B351AFDF733
:10336000EBFC074625480068C0F3CB30684338E0E3
:10337000701C37D0FDF7E0FCC01BA84203D215B18A
:10338000009860B32CE02068416821F0E0014160C2
:103390006068B0F5827F0BD1A068B0F5004F02D015
:1033A000B0F5806F04D12068016821F04001016010
:1033B000A06AB0F5005F09D12068016821F40051CE
:1033C00001602068016841F400510160012084F827
:1033D0005100002084F850000320BDE8F883002548
:1033E000401E00902068816838EA010004D0002166
:1033F0004945BDD10020F0E70121F9E76C0000202C
:1034000070470000024A0321024801F0B1B90000F0
:1034100019340008980200202DE9FE4F0546334F6D
:1034200004208DF80800786800220189CDE9001297
:10343000C3881146384602F08AFC4FF6E079002333
:103440004A460121384602F0ABFD6868052200902B
:1034500027A31146384602F037FD02A9284601F09D
:103460005FFA4FF6FF7A002352460121384602F0F8
:1034700097FD00244FF01E0832E0A8782044C6B221
:103480006878B04217D14B4600220121174802F05C
:1034900087FDC4EB04103A2202EB400292B2CDE960
:1034A0000029796808EB400082B2CB8800210F48E0
:1034B00002F04DFC05E00023524601210B4802F0CA
:1034C0006FFD05EB8600C4EB0411C068009008EBAB
:1034D000410082B206A30A21044802F0F5FC641CF4
:1034E0009DF808008442C8DBBDE8FE8F2C00002058
:1034F00025730000FDF726BC30B593B03021684637
:10350000FCF7AAFE14210CA8FCF7A6FE1D48002516
:10351000016841F080510160006800F08050119016
:103520001948016841F4804101600068022400F4F8
:103530008040119001200090000401908001CDE9AD
:10354000064004200890A820CDE9090407200B902C
:103550006846FDF77BFD08B172B6FEE70CA90F20A7
:1035600081E831004FF4A0500F904FF4805010903C
:1035700005210CA8FDF780FC002801D072B6FEE7FB
:1035800013B030BD4038024000700040024801686E
:1035900041F470010160704788ED00E010B50A4CFD
:1035A0002068C068C043C00709D108480069804747
:1035B00021680020486221686420C862E0602168B8
:1035C0006FF00100086110BDE40800203401002004
:1035D000F0B50268294C2A4D2A4E2B4F2B4B4FF049
:1035E000804CA04209D0604507D0A84205D0B04227
:1035F00003D0B84201D0984204D122F0700E4A683C
:1036000042EA0E02A0421BD0604519D0A84217D052
:10361000B04215D0B84213D0984211D01C4DA842E8
:103620000ED01C4DA8420BD01B4DA84208D01B4DFC
:10363000A84205D01A4DA84202D01A4DA84203D183
:1036400022F44075CA682A434D6922F080022A4359
:1036500002608A68C2620A688262A04201D098420F
:1036600001D109690163012141610169C90703D0E1
:10367000016921F001010161F0BD0000000001407D
:103680000004004000080040000C0040000401401D
:103690000040014000440140004801400018004043
:1036A000001C004000200040F0B5036A026A22F0CE
:1036B0000102026242688469124E24F073050C68AC
:1036C0002C4323F002058B682B430D4DA84201D0FB
:1036D000B04205D123F00807CB683B4323F0040335
:1036E000A84201D0B04205D14D6922F44072154381
:1036F0008A692A4342608461496841630362F0BD7C
:103700000000014000040140F0B5026A036A23F0A2
:1037100010030362436884690D6824F4E64444EAB4
:1037200005248D6822F0200242EA05120F4D104E4A
:10373000A84201D0B04206D1CF6822F0800242EA0E
:10374000071222F04002A84201D0B04207D14D69D1
:1037500023F4406343EA85038D6943EA85034360AC
:103760008461496881630262F0BD0000000001408D
:1037700000040140F0B5026A036A23F48073036217
:103780004368C46922F4007224F073050C68124E79
:103790002C438D6842EA05220E4DA84201D0B0426A
:1037A00006D1CF6822F4006242EA072222F4806246
:1037B000A84201D0B04207D14D6923F4405343EAF7
:1037C00005138D6943EA05134360C4614968C16309
:1037D0000262F0BD000001400004014030B5046AFF
:1037E000026A22F4805202624268C3690D6823F4BF
:1037F000E64343EA05238D6824F4005444EA053483
:10380000084DA84202D0084DA84204D14D6922F4C7
:10381000804242EA85124260C361496801640462E1
:1038200030BD0000000001400004014010B5806B75
:103830000021C185C184FEF722FD10BD01680C3155
:1038400051E8002F22F4907241E80023002BF5D1BB
:103850000168143151E8002F22F0010241E80023F1
:10386000002BF5D1016B012909D101680C3151E818
:10387000002F22F0100241E80023002BF5D1202177
:1038800080F8421000210163704708B590F842109B
:10389000222901D0022008BD82684FF480539A4249
:1038A00001D1016921B1816A9A421BD04AB10AE073
:1038B0000268816A5268C2F308020A80816A891C20
:1038C00008E0026972B10268526802F07F020A7071
:1038D000816A491C8162C18D491E0904090CC18598
:1038E00003D01BE002685268F1E70168CA6822F061
:1038F0002002CA600168CA6822F48072CA60016846
:103900004A6922F001024A61202180F84210002118
:103910004163026B012A03D0FEF772FE002008BD4E
:10392000016301680C3151E8002F22F0100241E8D8
:103930000023002BF5D101680A68D20602D50A6877
:1039400049680091818DFEF799FCE7E770B5044660
:1039500000680169E26821F4405111430161216965
:10396000A068E26908436169114308432168CA6895
:1039700049F20C639A430243CA6020684169A26914
:1039800021F440711143416131492068884202D0DD
:103990003049884202D1FDF719FB01E0FDF706FB33
:1039A000E2690023192164253226B2F5004F6268CE
:1039B00028D0A0FB0101930F9200FCF703FC014605
:1039C000B0FBF5F06FF01802504301EB800006EBFE
:1039D0000010B0FBF5F000F0F002B1FBF5F002EBE7
:1039E0000012B1FBF5F06FF01803584301EB8000B3
:1039F00006EB0010B0FBF5F000F00F00216810445A
:103A0000886070BDA0FB010192185B41FCF7DAFBF6
:103A10000146B0FBF5F00201B1FBF5F06FF01803C1
:103A2000584301EB800006EBC000B0FBF5F000F05E
:103A3000F80002EB4002B1FBF5F0584301EB8000C7
:103A400006EBC000B0FBF5F000F00700D6E7000081
:103A5000001001400014014081628285C28500216E
:103A60004164222180F84210016921B10168CA68CD
:103A700042F48072CA6001684A6942F001024A61F8
:103A80000068C16841F02001C1600020704700005B
:103A90000148FEF7F5BB0000F4090020FEE7000036
:103AA0000FB4054B10B503A9044A029800F004F9BD
:103AB00010BC5DF814FB00008157000830020020A4
:103AC0007CB50C001D461646014601D0601E00E084
:103AD0000020CDE90010064B6A462946304600F02A
:103AE000EBF8002C02D0009A002111707CBD000080
:103AF000BF4300080907090E002804DB00F1E0209D
:103B000080F80014704700F00F0000F1E02080F80A
:103B1000141D704702E008C8121F08C1002AFAD11C
:103B200070477047002001E001C1121F002AFBD13D
:103B3000704700002DE9FF5F82B00021DDE904300D
:103B4000020DDDF840B0034318D044F61050A2F245
:103B5000FF3242431514119801281FD0A5EB0B002A
:103B6000401C5FEA000A4FF000064E4FDFF8389124
:103B7000B046504615D5CAF1000413E0119801244F
:103B80004AA3012801D16FEA0B010298119AC0E9FA
:103B90000031C0E9024206B0BDE8F09FCBF1000061
:103BA000DFE704460021404A491842EB0450CDE9C2
:103BB000001012E0E00707D032463B464046494637
:103BC000FCF731FC8046894632463B461046194692
:103BD000FCF729FC06460F466410002CEAD1DDE90B
:103BE0000401DDE90023BAF1000F06DAFCF71BFC43
:103BF00042464B46FCF717FC05E0FCF786FC4246C4
:103C00004B46FCF782FC04460E460022284BFCF78C
:103C100003FD03D84FF0FF30014607E00022254B9B
:103C200020463146FCF758FBFCF7DEFC102409E087
:103C3000002C0ADB0A220023FCF7C4FA039B303273
:103C40001A55641E50EA0102F2D1641C039AC4F1B1
:103C500011031444119A012A03D0012208430DD103
:103C60000AE0084304D000204FF0110B119072E7D6
:103C7000A3EB0B056D1E0DE05B4504DD4FF000026C
:103C800005F1010504E003DA4FF00002A5F101059A
:103C9000002AECD002981199C0E90231C0E9004530
:103CA00079E70000000014400000F03F3000000001
:103CB0000000F0430000E03F2DE9FF4F95B09A4629
:103CC000884606460025EEE1252877D100242746C0
:103CD000F94A0121039400E0044316F8013F203B18
:103CE00001FA03F01042F7D130782A2811D06FF092
:103CF0002F033078A0F13002092A16D8039A44F035
:103D0000020402EB820203EB42021044761C039091
:103D1000EFE758F8042B0392002A03DA504244F4E8
:103D20000054039044F00204761C30782E2816D1FB
:103D300016F8010F44F004042A280DD06FF02F026A
:103D40003078A0F13003092B09D807EB870302EB89
:103D50004303C718761CF3E758F8047B761C3078C9
:103D60006C280FD006DC4C2817D068280DD06A28A4
:103D700014D104E0742810D07A280FD10DE044F457
:103D800000140AE044F4801401E044F44014727812
:103D9000824202D104F58014761C761C30786628A5
:103DA0000BD013DC582877D009DC002875D04528C3
:103DB000F6D04628F4D047281AD193E118E06328BA
:103DC00035D0642879D0652812D18BE1702873D062
:103DD00008DC6728F1D069286FD06E280DD06F28D5
:103DE00006D1ACE073282CD0752874D0782853D035
:103DF0005246179990476D1C54E1C4F302500228B3
:103E000009D003280DD0D8F8001004280DD00D607B
:103E100008F1040846E1D8F80010EA17C1E9005299
:103E2000F6E7D8F800100D80F2E70D70F0E718F80B
:103E3000041B8DF8001000208DF80100EB460120D6
:103E400003E058F804BB4FF0FF3061074FF000016A
:103E500002D40DE009F101018946B9420FDA81452A
:103E6000F8DB1BF809100029F4D108E009F1010181
:103E700089468142FADB1BF809100029F6D1039824
:103E80005346A0EB090721463846179A00F080FAFE
:103E9000284400EB090507E044E008E10DE01BF8C9
:103EA000010B524617999047B9F10109F7D25346D1
:103EB00021463846179AF2E039E00A21C4F302524B
:103EC0004FF0000B0091022A06D058F8040BC117DE
:103ED000032A09D00AE023E008F1070020F00702D6
:103EE000F2E80201904605E000B2C117042A01D1B0
:103EF00040B2C117002906DA0A460021404261EBB0
:103F000002012D2202E0220504D52B228DF8042087
:103F1000012203E0E20701D02022F7E7914657E0B3
:103F20000A2100E010214FF0000B00910BE010215E
:103F30004FF0000B44F004040827009103E0082030
:103F40004FF0000B0090C4F30252022A05D058F83B
:103F5000040B0021032A08D008E008F1070020F034
:103F60000702F2E80201904603E080B2042A00D181
:103F7000C0B24FF0000922072AD53278702A07D044
:103F8000DDF800C08CF0100C5CEA0B0C05D00EE0E4
:103F900040228DF80420012208E050EA010306D0F7
:103FA00030238DF804308DF8052002229146009BC5
:103FB00083F0080353EA0B030AD150EA010201D14E
:103FC000620705D530228DF804204FF001097F1ECD
:103FD0003278582A04D039A20C920CAA02920BE033
:103FE0003BA2F9E75B46009AFCF7ECF80C9B9B5C64
:103FF000029A521E0292137050EA0102F2D1029804
:1040000004A9081A00F1200B600702D524F48034BB
:1040100000E001275F4502DDA7EB0B0000E0002078
:1040200000EB0B01009003984944401A0390E00311
:1040300006D453462146179A039800F0A9F905447F
:10404000002706E001A85246C05D179990476D1CF5
:104050007F1C4F45F6DBE0030CD553462146179AEB
:10406000039800F095F9054404E030205246179972
:1040700090476D1C0099481E00900029F5DC08E06F
:104080000298029952460078491C0291179990476C
:104090006D1CBBF10001ABF1010BF1DC5BE100F049
:1040A00065F90544761C307800287FF40DAE19B010
:1040B0002846BDE8F08F0000092801003031323376
:1040C0003435363738396162636465660000000054
:1040D000303132333435363738394142434445463E
:1040E00000000000600700D4062708F1070020F058
:1040F0000700F0E80223804603F0004C5FEA0C0062
:1041000001D097A009E0200501D596A005E0E007C1
:1041100001D095A001E0AFF24C001390307823F06D
:10412000004365280CD006DC452809D046281DD060
:1041300047287FD13BE0662818D067287AD136E03F
:104140000021112F01DB112000E0781CCDE90001D6
:1041500004A90CA8FFF7EEFCDDE90D010C9A4FF065
:10416000000B07F10109109200914EE04FF0004062
:104170000097CDE9011004A90CA8FFF7DBFCDDE9ED
:104180000D020C9B0F994FF0000B9146109300927B
:1041900011B9791C00EB0109B7EB090003D4C0F198
:1041A000FF3B07F10109A9EB0700019042E0012F55
:1041B00000DA01270021112F01DD112000E038462F
:1041C000CDE9000104A90CA8FFF7B4FCDDE90D015D
:1041D0000C9A00914FF0000BB946109221070FD4B2
:1041E000009A4A4503DA914601E0A9F10109B9F1C3
:1041F000010F05DD109AA9F10101515C3029F4D0BD
:10420000B84202DA10F1040F03DA0121CDE90110FE
:1042100010E0002803DC8344A9EB000102E0411C0C
:10422000494500DD8946A0EB0B00401C01904FF092
:1042300000400290200705D40198484502DB4FF06A
:10424000FF30019000208DF84B0002980DF14B07D4
:10425000B0F1004F25D002200C902B200D90029839
:1042600000280CDA404202902D200D9007E00A2130
:104270000298FBF7FCFF3031029007F8011D0C9902
:10428000481E0C900029F2DC02980028EFD1791E1C
:104290000D980870307800F0200040F0450007F8D5
:1042A000020D11A8C01BC01D02901398007800B128
:1042B000012000EB0901019801EBE0710298014433
:1042C0000398401A401E0390E00306D4534621464B
:1042D000179A039800F05CF805441398007818B119
:1042E0005246179990476D1CE00323D5534621464B
:1042F000179A039800F04CF805441BE0BBF1000F3F
:1043000007DB0098584504DD1098179910F80B004A
:1043100001E0179930205246904701980BF1010BAC
:10432000401E05F10105019004D12E205246179937
:1043300090476D1CB9F10001A9F10109DEDC05E02F
:1043400017F8010B5246179990476D1C0299481EA9
:1043500002900029F4DC53462146179A03989EE602
:104360002D0000002B000000200000002DE9F0418E
:10437000044600251E461746880404D405E0394645
:104380002020B0476D1C641EF9D52846BDE8F08199
:104390002DE9F041044600251E469046C80301D58C
:1043A000302700E02027880404D505E04146384640
:1043B000B0476D1C641EF9D52846BDE8F0814A68F7
:1043C000002A06D00A68531C0B6010704868401E13
:1043D0004860704710B501F0E3FE01F0F7FEBDE85C
:1043E000104001F003BF000010B5ADF5327D28226A
:1043F00030A1A8A8FBF717FF00223849384800F081
:1044000071FD08B137A009E03BA0FFF749FB0A2284
:104410003EA101A800F092FD38B13FA0FFF740FB9C
:10442000FCF782FA0DF5327D10BD41A0FFF738FB95
:10443000A6AB2522A8A901A800F076FFA69901B194
:1044400008B141A0EAE701A800F038FD43A0FFF75A
:1044500027FB01222DA101A800F070FD08B144A0A6
:10446000DCE7A7AB64228DA901A800F06DFE04462D
:1044700000231F220121454801F092FD8DA80090E4
:1044800043A396220021414801F01EFDA79800B1E8
:104490000CB144A0C2E701A800F010FDDDE9A601BF
:1044A000814201D044A0B9E74AA0FFF7F9FA01F030
:1044B000AFFEB7E7582050756C73652053544D33E9
:1044C000324634303720776F726B696E67207769B8
:1044D0007468204661744673000000005A00002092
:1044E000880600204661744673206D6F756E7420D7
:1044F0006572726F720D0A004372656174696E674E
:104500002066696C652E2E2E0D0A000053544D3323
:10451000322E54585400000046696C652063726561
:104520006174696F6E206572726F720D0A0000000F
:1045300057726974696E6720746F2066696C652EA6
:104540002E2E0D0A0000000046696C652077726906
:104550007465206572726F720D0A000052656164A5
:10456000696E672066696C652E2E2E0D0A000000AC
:1045700046696C65206F70656E20666F722072658B
:104580006164206572726F720D0A00002C000020B9
:10459000526561642066726F6D2066696C653A20B1
:1045A0002573000046696C65207265616420657240
:1045B000726F720D0A0000004461746120766572AA
:1045C000696669636174696F6E206661696C6564B0
:1045D0000D0A0000534420436172642074657374B3
:1045E00020706173736564207375636365737366AC
:1045F000756C6C79210D0A0010B505A0FFF750FA13
:10460000FFF7F2FEBDE8104008A0FFF749BA00002E
:104610005374617274696E672053442043617264FD
:1046200020746573742E2E2E0D0A0000534420430F
:10463000617264207465737420636F6D706C65744F
:104640006564210D0A00000010B504460020E070EA
:10465000401EE062204601F060FE08B1042010BD5B
:1046600004F22E2001F096FDA0F52A41553901D023
:10467000032010BD94F83000E92805D0EB2814D1B0
:1046800094F83200902810D104F1660001F077FD13
:104690000749B1EB002F06D004F1820001F06FFD55
:1046A0000449884201D1002010BD022010BD000045
:1046B0000046415446415433F0B50022144D134690
:1046C00005EB021426685EB10768BE4209D1666830
:1046D0008768BE4205D1A4684669B44204D000E0B0
:1046E0000123521C022AEBD3022A01D069B904E04B
:1046F0004BB9022907D01220F0BD05EB02108089CA
:10470000B0F5807F01D00020F0BD1020F0BD00008A
:10471000B808002030B50021054B0C4603EB011210
:104720001568854200D11460491C0229F6D330BDBA
:10473000B80800200268490AC06A5289B1FBF2F148
:10474000001D04C81AB1914203D3891AF8E700206A
:1047500070470068084470474269891E921E8A4269
:1047600001D800207047826A408901FB0020704711
:10477000074B10B51B6813B11C693CB902E04FF040
:10478000FF3010BD1861197702B1DA60002010BD4A
:104790003C0A00202DE9FC412B4D4FF0FF362C68E0
:1047A000002C4FD02069E8B3287CC0074AD0FEF720
:1047B000E3F8B8B3A27F216902EB4202142351F857
:1047C00032104160A27F216902EB420203EBC20278
:1047D0000C2689588160002101610177E268C2607E
:1047E000A37F226903EB430306EBC3031027D258D0
:1047F0004261A67F236906EB460607EBC6069B5976
:10480000836181770121C1770460EA602860A17F1C
:10481000226901EB4103042101EBC303D25872B1B9
:10482000426800E00EE0009280680190A27F20695B
:1048300002EB420201EBC201415868468847002062
:10484000BDE8FC813046FBE73C0A00202DE9FC4135
:104850001C4C05464FF0FF32206880B3217CC9070D
:104860002ED0016859B321604969E160FCF752F824
:104870002068817F026901EB4103082101EBC3033A
:104880000026D258AAB1827F036902EB420253F894
:1048900032700097142707EBC2029A580192C6772C
:1048A0000269807F00EB400001EBC00011586846B0
:1048B00088470DB1206886770020BDE8FC81FFE7BE
:1048C0001046FAE73C0A00202DE9F041124E054659
:1048D0004FF0FF373068E8B9104800240470FEF745
:1048E0004BF8B8B129684160696904608160E96882
:1048F000C46041612A6904618261047784774477E6
:104900003060347468687060A868C6E902010020ED
:10491000BDE8F0813846FBE73C0A0020E0020020B9
:1049200058B151B10B780278934200D90A7042789D
:1049300083789A4204D2827009E04FF0FF307047CA
:104940000978D31A8B4202DB511A491C817000206E
:10495000704700001CB50C4C206810B1217CC907C1
:1049600002D04FF0FF301CBD616829B1426800924F
:10497000806801906846884701202074206840695B
:10498000E06000201CBD00003C0A00200D4A10B56C
:1049900011684FF0FF3461B10B6953B1127CD2073B
:1049A00007D00A7F8B7F521E934204DA5B1C8B7701
:1049B00004E0204610BD18B100208877002010BD0B
:1049C0008A77F6E73C0A00200D4A10B511684FF0CF
:1049D000FF3349B10C693CB1127CD20704D08A7F05
:1049E00022B1521E8A7705E0184610BD20B1087F1B
:1049F000401E8877002010BD00208877F4E7000073
:104A00003C0A00202DE9F04105680F00804606D0E1
:104A100000F0C0FE022809D20120BDE8F081EE6856
:104A200016B16869B04207D8012605E0411CF4D0F0
:104A300069698142F1D83E4634466869641CA042E7
:104A400002D80224022E0AD32146404600F0A2FEDC
:104A500038B10128E1D0411CDFD0B442EDD10020B3
:104A6000DBE74FF0FF3632462146284601F06EFC68
:104A700030B957B122463946284601F067FC20B1CB
:104A800001280FD001242046C7E7EC60D5E90401D6
:104A9000891E884201D8401E2861287940F0010013
:104AA0002871F0E73446EEE72DE9F0410E46243058
:104AB0000D6804460B22202101F028FC002001464D
:104AC00008272A5C401C202A12D92F2A0BD05C2AE6
:104AD00009D02E2A01D0B94214D30B2F22D02E2A6E
:104AE00020D10CE0401C2B5C2F2BFBD05C2BF9D091
:104AF00028443060B1B12078E5281FD020E008219B
:104B00000B27DEE7802A03D3114B1A4412F8802CBE
:104B100010A300E05B1C93F800C0BCF1000F04D0B0
:104B20009445F7D10620BDE8F081A2F16103192B6D
:104B300001D8203AD2B26254491CC2E70520207045
:104B4000202A01D8042000E00020E0720020EAE7DB
:104B5000D0750008222A2B2C3A3B3C3D3E3F5B5D42
:104B60007C7F0000401E022812D20A4901EB00118E
:104B70008889B0F5807F05D008B1401E80B2888159
:104B800010B103E00020FAE7002008600020704721
:104B900002207047B80800200149086070470000F3
:104BA000280200204FF47A71484300F001B8000059
:104BB00070B54FF0E024002265690949A3690968CE
:104BC0004843A1699942FCD002D2A3EB010302E061
:104BD000A5EB010633441A440B468242F1D370BD63
:104BE000280200202DE9F04104460021056800F06C
:104BF000D8F8002826D12846E16901F08EFB020092
:104C00001FD1206A017899B1C17A01F03F01A171E9
:104C1000C17A09070FD404F124010B2610F8013BD7
:104C200011F8017BDB1B761E04D0002BF6D002E0CE
:104C3000042206E02BB10021204600F005F8020016
:104C4000D9D01046BDE8F0812DE9F0470546476907
:104C50000468C0698946203710B1B7F5001F02D338
:104C60000420BDE8F087F90560D1401CE861A9691E
:104C70004FF0000829B16089401E10EA572F05D077
:104C800054E02089B0EB571F1DD94FE0284600F0B3
:104C900081FD064601281BD9701C33D06069B042E3
:104CA0003ED8B9F1000F0ED02846A969FFF7AAFE39
:104CB00006000BD0012E0BD0701C23D0204601F033
:104CC0005BFCF8B906E0C5F81C80C9E70720C8E717
:104CD0000220C6E74FF40072002104F1300001F019
:104CE00015FB4FF0000831462046FFF735FD4FF029
:104CF0000109E0620DE000BF84F80390204601F056
:104D00003BFC08B10120ACE7E06A08F10108401C57
:104D1000E06261894145EFD8E16AA1EB0800E062F9
:104D200031462046AE61FFF717FDE861C7F3080082
:104D3000204430306F612862002092E770B504464D
:104D40000021066800F02DF80DE03046E16901F021
:104D5000E4FA50B9206A0078E52809D040B1012171
:104D60002046FFF771FF0028EFD0042807D007E0A6
:104D70003046E16901F0D1FA050003D00FE00720C9
:104D800005460CE020220021206A01F0BFFA0B2228
:104D900004F12401206A01F0AFFA0120F0702846E6
:104DA00070BD2DE9F04107680E460546B1F5001FBC
:104DB00036D2F00634D16E61AC6824B93878032855
:104DC00005D37C6A1CB178894FEA402812E0388903
:104DD000B0EB561F24D9786A12E0284600F0DAFCBE
:104DE0000446401C1AD0022C1AD37869A04217D965
:104DF000A6EB080646452146EFD23846FFF7ACFC45
:104E0000C5E9064060B100EB5620E861C6F3080032
:104E10003844303028620020BDE8F0810120FBE7F3
:104E20000220F9E770B5094C05460020615D0029B4
:104E30000AD104EB850160194968007A096888473E
:104E4000002801D10121615570BD0000D808002063
:104E500030B4054C231804EB80001B7A40680469C9
:104E60001846A44630BC6047D808002030B4054D31
:104E70002C1805EB8000247A406885682046AC46F3
:104E800030BC6047D8080020044A111802EB8000AB
:104E9000097A40684268084610470000D808002098
:104EA00030B4054D2C1805EB8000247A4068C568A5
:104EB0002046AC4630BC6047D808002038B50446D0
:104EC00000F0EBF900280CD16946204602F04EFBB9
:104ED000002806D12069FFF745FE002801D10021F6
:104EE000216038BD2DE9F74181B0904602980090CD
:104EF000684600F0B0FC040003D50B2004B0BDE808
:104F0000F0810D4E002756F824501DB12846FFF7BA
:104F100001FC2F700198002800D0077046F824008B
:104F200002D0B8F1010F01D00020E7E7002201A96B
:104F300002A800F0C1FAE1E7740000202DE9F74370
:104F400092B005000BD002F03F063246694613A826
:104F500000F0B2FA04004FF0000804D0ECE00920A1
:104F600015B0BDE8F0830098049004A8139900F0F0
:104F7000CDFB04000ED19DF83F00000601D50624AC
:104F800008E0700801D0012100E0002104A8FFF72B
:104F900093FB044616F01C0F5DD04FF00109C4B11D
:104FA000042C10D10020674902E0401C022804D2E2
:104FB00001EB00121268002AF7D1022807D004A8DA
:104FC000FFF7BCFE044646F008065CB1B4E01224CC
:104FD000B2E09DF8160010F0110F47D1700701D50F
:104FE0000824A9E0300747D500F033FC07460C98A9
:104FF00039460E3001F06FFA0C983946163001F040
:105000006AFA0C982021C1720C99009801F0A4F85A
:10501000074600220C99009801F049FA0C980021EB
:105020001C3001F058FA009981F8039017B3D1F8B9
:105030002C900022394604A801F0FFF904007BD12E
:105040004946009801F069F904000098A7F10107AA
:10505000C7600DD070E0ECBB9DF81600C10601D50D
:10506000042469E0B10703D5C00701D0072463E039
:10507000300701D546F040060098C06A68620C9877
:10508000A862700801D0012100E0002104A800F00E
:1050900001FC2861B8B30C99009801F05DF8A86094
:1050A0000C981C3001F06BF8C5F82C80E860009972
:1050B0002960009905F130004FF40072C988A98079
:1050C0002E7585F81580C5F8208000218146C5F829
:1050D000188000E030E001F019F9B0062ED5EE6836
:1050E00066B3AE610098A968408947020FE0284680
:1050F00000F050FB0146012800D80224481C03D0D0
:10510000F61B24B105E01BE00124F61B01E0BE42C2
:10511000EDD8E96184B9F00510D00098FFF71CFBC9
:1051200070B100EB56222A6200980123494640786C
:10513000FFF79CFE10B10124C5F8008020460FE760
:105140000224F9E7B80800202DE9FE4F8846002127
:10515000196099461546044602A902F007FA00288C
:1051600012D1607D00280FD1207DC0070BD0E168EF
:10517000A0690127081A4FF0020A04F1300B85429A
:1051800000D9054684E00720BDE8FE8FA169C80567
:1051900066D102984089401E10EA512611D129B1EA
:1051A000E06A28B12046FFF7C5FA05E0A06803E0F1
:1051B0002046E16900F0EEFA02281BD3411C4AD0D8
:1051C000E061E1690298FFF7C7FA98B130440190B5
:1051D000680A009025D0029932184889824201D984
:1051E000801B0090DDE9003248784146FFF73EFE23
:1051F00088BB03E084F815A00220C5E7207D0006E7
:105200000CD5216A0198081A0099884206D208EB49
:1052100040204FF40072594601F06EF800984602A3
:105220002CE0226A0198824218D0207D00060AD51F
:105230000298012359464078FFF732FE58B9207D85
:1052400000F07F0020750298012359464078019AAA
:10525000FFF70CFE10B16775012095E701982062F9
:10526000208BC0F30800C0F50076AE4200D92E4670
:10527000011932464046303101F03EF8A069B04491
:105280003044A061D9F800008119AD1BC9F80010A5
:10529000002D7FF47BAF002076E7F8B50446694621
:1052A00002F064F900280ED1217D4A060BD50806CC
:1052B0000ED50098226A0123407804F13001FFF7EF
:1052C000EFFD08B10120F8BD207D00F07F002075C2
:1052D00000F0BFFA0646616A009801F01EF8002847
:1052E000F1D1A56A2946E87A40F02000E872A26868
:1052F000206801F0DCF805F11C00E16801F0EBF832
:10530000314605F1160001F0E6F8002105F1120022
:1053100001F0E9F800980121C17001F0E9F8217D60
:1053200001F0BF012175F8BD2DE9FE4F04460020B4
:10533000884618609946154602A9204602F016F9DB
:10534000002806D1607D002803D1207D800702D48B
:105350000720BDE8FE8FA069012742194FF0020A1D
:1053600004F1300B824200D2C5439BE0A169C8051D
:1053700075D102984089401E10EA512618D129B1F2
:10538000E06A38B12046FFF7D5F907E0A06838B9E0
:10539000002100E0E1692046FFF734FB00287DD0C2
:1053A00001282DD0411C54D0E061A16801B9A06052
:1053B000207D00060BD50298226A012340785946C9
:1053C000FFF76EFDA0BB207D00F07F002075E16936
:1053D0000298FFF7C1F998B130440190680A009033
:1053E00027D03218029841898A4201D9891B00913D
:1053F000DDE9003240784146FFF752FDC0B903E0D5
:1054000084F815A00220A4E7216A0198081A0099DF
:1054100088420AD208EB40214FF40072584600F04F
:105420006BFF207D00F07F0020750098460228E089
:105430000FE0216A019881420FD0E168A06988429B
:105440000BD20298012359464078019AFFF70EFDCE
:1054500018B1677501207CE701E001982062208B7C
:10546000C0F30800C0F50076AE4200D92E462044B5
:1054700032464146303000F03FFF207D40F0800052
:105480002075A069B0443044A061E168884200D82A
:105490000846E060D9F80000811900E005E0AD1B86
:1054A000C9F80010002D7FF461AF207D40F040006E
:1054B000207500204DE700002DE9FF4100279046B0
:1054C0000E460F6000F0C7F9050003D50B2004B0AD
:1054D000BDE8F0818A4850F825409CB134602078BE
:1054E00008F0FE0620B16078FFF7CEFCC1070BD0B4
:1054F0002770E8B2B8466070FFF794FCC10708D087
:105500000320E4E70C20E2E70EB1400704D40020BA
:10551000DDE71EB1400701D50A20D8E70026314655
:105520002046FFF791F8022822D100254FEA0D0707
:1055300004EB051090F8F21100F5F77019B108307E
:1055400000F01DFE00E0002047F825006D1C042D32
:10555000EED3002557F8256036B131462046FFF7D7
:1055600073F8022801D203E003206D1C042DF1D34F
:10557000042809D002286DD204F13B0000F00AFE95
:10558000B0F5007F66D101E00120A0E704F14600FC
:1055900000F000FE18B904F1540000F0F0FDA06125
:1055A00094F84050A570012D01D0022D52D14543F1
:1055B00094F83D006081E8B3411E08424AD104F1ED
:1055C000410000F0E7FD2081000743D104F14300D2
:1055D00000F0E0FD070004D104F1500000F0CFFD21
:1055E000074604F13E0000F0D5FD010032D02389CA
:1055F000481900EB131297422CD3B81A6789B0FBF5
:10560000F7F0B8B103274FF6F57C604500D80227C4
:1056100040F6F57C604500D80127801C3244A26228
:1056200031446061C4E90761032F15D013B12944E7
:10563000616200E00EE0022F1FD000F0010100EBDC
:10564000400001EB500000BFA16900F2FF10B1EB78
:10565000502F14D20D203AE704F15A0000F09AFDC1
:105660000028F7D120890028F4D104F15C0000F073
:1056700086FD606260698000E6E74000E4E74FF085
:10568000FF302061E06080202071032F2CD104F1D5
:10569000600000F07FFD012826D1711C204600F03B
:1056A0003CFE08BB84F8048004F22E2000F072FD5A
:1056B000A0F52A41553917D104F1300000F05FFD03
:1056C0001049884210D104F5057000F058FD0E49CC
:1056D000884209D104F5067000F051FD206104F5FF
:1056E000077000F04CFDE06005492770091F08882D
:1056F000401C0880E0802046FFF70CF807E7000018
:1057000074000020525261417272416173B50446C7
:105710000568019801E0401C019001782F29FAD01A
:105720005C29F8D00021A16001980078202806D2D9
:10573000802084F82F002046FFF733FB7CBD01A9B1
:105740002046FFF7B1F90028F8D12046FFF74AFAC2
:1057500094F82F1028B10428F0D14907EED4052081
:105760007CBD4907FCD4A079C006F8D5A08AC0F357
:10577000080041192846303100F0EEFCA060DEE759
:1057800003490A685206FCD5C2B24A60704700005D
:10579000001001402DE9F04104680D4602290BD3A9
:1057A0006069A84208D920784FF0FF36012807D059
:1057B00002282BD0032839D001263046BDE8F081DD
:1057C000206A05EB550700EB5721204600F0A5FDA8
:1057D0000028F2D1C7F3080020447F1C90F83080E5
:1057E000206A00EB5721204600F097FD0028E4D105
:1057F000C7F30800204490F8301048EA0120E90778
:1058000001D00609D9E7C0F30B06D6E7206A00EB02
:105810001521204600F081FD0028CED1E8B204EB2E
:105820004000303000F0B6FC0646C6E7206A00EBC8
:10583000D511204600F071FD0028BED140F2FF10C6
:1058400000EA85002044303000F099FC20F07046DA
:10585000B3E70020704710B504464FF0FF302268D0
:10586000002A13D0114600E0491C0B78212B0ED3DF
:105870003A2BF9D112F8013B303B0A2B06D28A426F
:1058800004D1002B02D1491C1846216010BD002014
:1058900010BD0000F0B502461D4BD2F800500020AC
:1058A00003EB00142668AE4207D166689768BE42D3
:1058B00003D1A4685669B44202D0401C0228EFD339
:1058C000022814D1002002E0401C022804D203EB7D
:1058D00000142468002CF7D102280ED003EB00142A
:1058E0002560956865605269A2600022A281002946
:1058F00003EB0011898902D019B10020F0BD491CC9
:1059000001E04FF4807103EB0012401C9181F0BD67
:10591000B80800201CB5426813895B1E9BB2CDE914
:105920000031D1880022491E8BB2114600F00FFAD7
:105930001CBD00002DE9F04F04468DB00068112217
:10594000012100F0F1FB052000F0F2F960684D4AFA
:105950004179007902EB800036220B5C022120683D
:1059600000F0E2FB05233A220221206800F0DCFB74
:105970004FF00C0B33200022CDF800B0CDE9012010
:1059800003905B46B2220621206800F0CDFB352350
:10599000B7220221206800F0C7FB1923BB22022195
:1059A000206800F0C1FB2C23C0220221206800F0F7
:1059B000BBFB0123C2220221206800F0B5FB1223A9
:1059C000C3220221206800F0AFFB2023C422022161
:1059D000206800F0A9FB0F23C6220221206800F0F6
:1059E000A3FBA1200090A423D0220321206800F073
:1059F0009BFB18224C23CDE9073209AA23261F2539
:105A00000B210D2082E863004FF0110954274FF05D
:105A10003F0ACDF80890CDE905A70427CDE900702D
:105A20002B234FF01308CDE90383D023E0220F216D
:105A3000206800F079FB512244230C96CDE9063210
:105A40002F212020CDF814A0CDE90815CDE90A506A
:105A50002C23CDF80890CDE90383CDE9007BD0233A
:105A6000E1220F21206800F05FFB21220121206844
:105A700000F05AFB20680DB02922BDE8F04F01214B
:105A800000F052BBB80000202DE9F04304468DB071
:105A900000681122012100F047FB052000F048F9C1
:105AA0006068514A4179007902EB800036220B5C34
:105AB0000221206800F038FB05233A2202212068E9
:105AC00000F032FB0C21009133254FF00009CDE9A5
:105AD000019503950B46B2220621206800F024FBB5
