:020000040800F2
:1000000000210020A1010008D5360008072F0008B4
:10001000BD3600086D090008C14A00080000000054
:1000200000000000000000000000000089410008FE
:10003000E10A000800000000F936000875440008D5
:10004000BB010008BB010008BB010008BB010008A0
:10005000BB010008BB010008BB010008BB01000890
:10006000BB010008BB010008BB010008BB01000880
:10007000BB010008BB010008BB010008BB01000870
:10008000BB010008BB010008BB010008BB01000860
:10009000BB010008BB010008BB010008BB01000850
:1000A000BB010008BB010008BB010008BB01000840
:1000B000BB010008BB0100081D450008BB0100088A
:1000C000BB010008BB010008BB010008BB01000820
:1000D000BB010008A94A0008B54A0008BB01000896
:1000E000BB010008BB010008BB010008BB01000800
:1000F000BB010008BB010008BB010008BB010008F0
:10010000BB01000855370008BB010008BB0100080F
:10011000BB010008BB01000851450008BB010008F5
:10012000BB010008BB010008BB010008BB010008BF
:10013000BB010008BB010008BB010008BB010008AF
:10014000BB010008BB010008BB010008BB0100089F
:10015000BB010008BB010008BB010008BB0100088F
:10016000BB010008BB010008BB010008BB0100087F
:10017000BB010008BB010008BB0100080000000033
:10018000BB010008BB010008DFF810D000F08AFABC
:1001900000480047B17A0008AFF30080002100203A
:1001A0000648804706480047FEE7FEE7FEE7FEE711
:1001B000FEE7FEE7FEE7FEE7FEE7FEE70D45000887
:1001C000890100082DE9F05F0546002092469B4614
:1001D00088460646814640241BE02846414647465D
:1001E000224600F096F853465A46C01A914110D361
:1001F00011461846224600F07DF82D1A67EB0108DB
:100200004F4622460120002100F074F817EB000948
:100210004E41201EA4F10104DFDC484631462A4647
:100220004346BDE8F09F40EA01039B0703D009E085
:1002300008C9121F08C0042AFAD203E011F8013BD2
:1002400000F8013B521EF9D27047D2B201E000F82B
:10025000012B491EFBD270470022F6E710B513466A
:100260000A4604461946FFF7F0FF204610BD10B5B8
:10027000044604E00B7800F8013B03B1491C521E10
:10028000F8D2204610BD10B5002200E0521C835C5D
:100290008C5CA34201D1002BF8D1D8B2E1B2401A54
:1002A00010BD00F0004230F000400AD0C10D01F551
:1002B0006071C0F3160042EA0151C20840071143C1
:1002C000704700200146704730B50B4601460020BC
:1002D0002022012409E021FA02F59D4205D303FA08
:1002E00002F5491B04FA02F52844151EA2F1010289
:1002F000F1DC30BD202A04DB203A00FA02F10020B4
:1003000070479140C2F1200320FA03F31943904053
:100310007047202A04DB203A21FA02F000217047BE
:1003200021FA02F3D040C2F120029140084319465D
:1003300070472DE9FE4F804681EA0300C00F0C464E
:10034000009021F0004123F00045B8EB0200A941E4
:1003500005D24046214690461C460B46024623F0F5
:100360000040104347D0270DC7F30A00C3F30A51DA
:100370000290401A019040286BDAC3F3130040F456
:10038000801B0098924620B10023D2EB030A63EB56
:100390000B0B01985946C0F140025046FFF7AAFFE7
:1003A00006460D4650465946019A00F08DF910EB6D
:1003B00008006141002487EA115284EAE7731A4376
:1003C00040D0009A62B3019A012A4FEA075215DC25
:1003D000001B61EB02014FF0004202EA0752CDE937
:1003E0000042001C41F5801132462B4600F08DF989
:1003F00003B0BDE8F08F40462146F9E7001B61EBF2
:100400000201001C41F5801300185B412018A2F581
:10041000001747EB030140EAD570B6196D4111E0B2
:100420006D084FEA360645EAC0754FEA0752001BD1
:1004300061EB0201001C41F5801149084FEA3000D0
:100440000019514132462B4603B0BDE8F04F00F091
:100450004DB90098012240000023D0EB020263EB6B
:10046000E073009821464FEAE074B8EB000061EBBE
:100470000401E9E783F000435BE781F0004158E7BE
:100480002DE9FE4F81EA030404F0004421F000410D
:1004900000944FF0000B23F0004350EA01045ED0BB
:1004A00052EA03045BD0C3F30A54C1F30A552C4447
:1004B000A4F2F3340194A0FB0254C1F3130141F4FC
:1004C0008011C3F3130343F4801301FB024400FBC8
:1004D000034E840A970A44EA815447EA8357A4FBEF
:1004E000076802958D0A05FB07854FEA932C04FBEC
:1004F0000C542705029D4FEA065847EA1637B5EB1C
:1005000008056EEB070C870E920E47EA811742EA48
:100510008312A7FB0201B6EB0B0164EB00042B0D69
:1005200043EA0C335E1844EB1C50DA465146E7FBB5
:100530000201C5F313044FEA0B3343EA14534FEAA5
:100540000432019C43EA0603A4F10C040294009CCB
:10055000CDE900B400F0D9F803B0BDE8F08F002079
:100560000146F9E72DE9F04D81EA030404F0004B60
:1005700021F0004514464FF0000A23F0004150EAF4
:10058000050220D054EA01021DD0C5F30A570246E5
:10059000C5F31303C1F31300C1F30A5640F48015E9
:1005A00043F48013A7EB0608101BD64608F2FD386B
:1005B00073EB050002D308F1010801E092185B41DA
:1005C000B8F1000F03DA00200146BDE8F08D0020ED
:1005D0004FF48011064684460EE0171B73EB0507A7
:1005E00005D3121B63EB050306434CEA010C4908D3
:1005F0004FEA300092185B4150EA0107EDD152EA10
:10060000030012D082EA040083EA0501084305D002
:10061000101BAB4106D20122002306E000224FF05E
:10062000004302E06FF0010253101AEB06004CEB9E
:10063000085110EB0A0041EB0B01BDE8F04D00F052
:1006400055B8C1F30A52C1F3130140F2FF3341F42C
:1006500080119A4202DA00200146704740F233438B
:100660009A42A2F2334202DC5242FFF752BEFFF737
:1006700041BE000030B5041E71F1000404DB4FF0F0
:100680000044404264EB0101141E73F1000405DBD9
:100690001C464FF00043524263EB0403994208BFEB
:1006A000904230BD064C074D06E0E06840F0010383
:1006B00094E8070098471034AC42F6D3FFF768FD82
:1006C00094C70008B4C70008202A06DBCB17203ADD
:1006D00041FA02F043EAE07306E041FA02F3D04047
:1006E000C2F12002914008431946704710B5141E0C
:1006F00073F1000408DA401C41F1000192185B41DB
:100700001A4301D120F0010010BD2DE9F04D9246B1
:100710009B4611B1B1FA81F202E0B0FA80F22032C8
:100720009046FFF7E7FD04460F4640EA0A0041EA1B
:100730000B0153465A46084313D0114653EA0100B1
:1007400019D0C8F140025046FFF7E3FD05460E46BA
:10075000504659464246FFF7CDFD084305D00120DB
:1007600004E020463946BDE8F08D0020054346EA06
:10077000E0762C4337430A986305E40AA0EB0800AF
:100780000022FD0A44EA47540A3002D500200146FF
:10079000E9E7010510196941DDE9084500196941DA
:1007A000BDE8F04DA2E770B58C1810F8015B15F0AC
:1007B000070301D110F8013B2A1106D110F8012BD3
:1007C00003E010F8016B01F8016B5B1EF9D12B07F8
:1007D00005D40023521E0DD401F8013BFAE710F8AE
:1007E000013BCB1A921C03E013F8015B01F8015B9B
:1007F000521EF9D5A142D8D3002070BD1CB51348B4
:10080000002240680189CDE90012C38811460F48D3
:1008100006F0E9FE00234FF6FF7201210B4807F0B6
:100820000BF80A220AA31146084806F099FF0AA30A
:1008300028220A21054806F093FF02B03C22BDE8B9
:10084000104009A30A21014806F08ABF14000020C5
:1008500041626F757400000056657273696F6E3A7D
:1008600020312E3000000000446174653A2032309F
:1008700032342F3039000000704700000146014833
:1008800000F09CBF1C06002010B5044800F0A8FF33
:10089000042801D0012010BD002010BD1C0600203E
:1008A00010B500F00BF8012801D0012010BDBDE803
:1008B0001040014801F0AEB81C06002008B5012028
:1008C0008DF800009DF8000008BD000038B5002438
:1008D000009313460A460146034801F053F900B15C
:1008E0000124204638BD00001C060020704700008F
:1008F00038B50024009313460A460146034801F028
:1009000039FA00B10124204638BD00001C06002041
:100910007047000010B510A004F014FA04F0C2FEF5
:100920004FF4FA74204600F02AFA07F08DF82046BA
:1009300000F025FA07F080F807F09CF8204600F058
:100940001EFA07F08FF807F0A5F8204600F017FA16
:10095000BDE8104007F096B8417070206D61696E77
:1009600020737461727465640D0A0000FEE7000074
:100970002D4B10B500211A780846D40702D06FF02D
:100980000A010120940701D5401C0939540701D5FB
:10099000401CC91F140701D5401C491FD40601D5AE
:1009A000401CC91E940601D5401C491E540601D5A1
:1009B000401C491C120601D5401CC91C5A78D3079B
:1009C00001D0401C491D930701D5401CC91D530788
:1009D00001D5401C0931120701D5401C0B310028FC
:1009E0001CD000EE101A40F2DC514A42F8EEC00A68
:1009F00000EE100A0C48B8EEC01A001F008880EE06
:100A0000810A00EE900AF8EE600A20EE200ABDEEA0
:100A1000C00A10EE100A884201DD084610BD90425F
:100A2000FCDA104610BD0000A40200202DE9F047BA
:100A300000270425DFF8A080DFF8A09050383E465C
:100A400001F1060A102845D2DFE800F01108130C66
:100A50001517191B1D1F2144444444233424032526
:100A6000402702E03D2403252E27012613E03024F1
:100A700011E037242BE03A2429E041240BE04524FF
:100A800009E0492407E04D2405E0512403E0552402
:100A900001E0D8F82840032A19D04DB16A0009EBCB
:100AA0004400FFF7C0FBD8F818202946204690479D
:100AB000002E0FD0720009EB47005146FFF7B3FB41
:100AC00031463846D8F81820BDE8F04710470325CE
:100AD0000026E3E7BDE8F08764030020B80F00209C
:100AE000704700F04CB9000003490878002801D095
:100AF000401E087070470000600300203C21014840
:100B000001F00EBD400700203C21014801F008BD66
:100B10008807002072B6FEE7002200F001B800004E
:100B200030B50E4B054601205C7A002C14D1587A62
:100B30001C54587A03EB800045605D7A03F108008D
:100B40002A54587A421C5A72303008703A20487041
:100B50002F208870CC70002030BD0000080C0020D1
:100B60002DE9F047384F394E394DB8784FF40048E9
:100B70004FF400794FF4005498B14146304600F0EC
:100B8000F9F9A8B12146284600F0F4F980B14946A8
:100B9000284600F0EFF958B12146304600F0EAF956
:100BA00030B14146304600F0E5F9012837D049E040
:100BB0000A2000F0E4F84146304600F0DBF970B15D
:100BC0002146284600F0D6F948B14946284600F0AB
:100BD000D1F920B12146304600F0CCF990BB00207D
:100BE000B8704146304600F0C5F978B12146284634
:100BF00000F0C0F968B14946284600F0BBF950B191
:100C00002146304600F0B6F938B11BE00120BDE8BE
:100C1000F0870220FBE70320F9E70420F7E72146ED
:100C2000284600F0A7F901280CD14946284600F0D3
:100C3000A1F9012806D12146304600F09BF9012890
:100C400000D1B8700020E2E7B402002000040240A6
:100C5000000C024000EE100ADFED171AB5EE002A74
:100C6000B8EEC00AF3EE0E2A9FED153A154820EEB5
:100C7000210A20EE020AC0EE220AB2EE0A0A80EE33
:100C8000801ADFED0E0A21EE201A21EE031A80ED04
:100C9000051A01EE101AB8EEC11A21EE211A21EE42
:100CA000021AC1EE221A81EE801A21EE200A20EEED
:100CB000030A80ED060A704700004843DB0F4940F5
:100CC00000008642780200202DE9F0410446876D3D
:100CD00000F062F9064694F835000025022806D097
:100CE0008020606584F834500120BDE8F0812068E0
:100CF000016821F0160101602068416921F080013E
:100D00004161206C08B9A06C20B12068016821F015
:100D1000080101602068016821F0010101600CE018
:100D200000F03AF9801B052807D9202060650320D0
:100D300084F8350084F83450D7E720680068C0078D
:100D4000EED194F85C103F208840B860012084F810
:100D5000350084F834500020C7E790F83510022998
:100D600003D08021416501207047052180F83510AE
:100D70000068016821F0010101600020704780B225
:100D800005F0CAB82DE9F84FDFF8BCA10022012513
:100D900003264FF00F090AF1040BAAF1040E00BF5D
:100DA0000B6805FA02F42340A34270D10F7907F0D3
:100DB0000307012F01D0022F16D187684FEA42089E
:100DC00006FA08FC27EA0C07D1F80CC00CFA08FC5C
:100DD0004CEA070CC0F808C04768A7430C79C4F375
:100DE000001494403C4344600C79E443A4070AD0C7
:100DF000C4684FEA420C06FA0CF7BC438F6807FA46
:100E00000CF72743C7600C7904F00304022C12D1BD
:100E1000D40800EB840CDCF820405707FF0E09FAD9
:100E200007F824EA0804D1F8108008FA07F848EA1D
:100E30000408CCF8208004684FEA420C06FA0CF74C
:100E4000BC430F7907F0030707FA0CF72743076045
:100E50004C6814F4403F70D03C4C276847F48047FE
:100E60002760246822F0030704F480440094384C7F
:100E700007EB040CDCF8084897074FEA177809FAE3
:100E800008F7BC43334FB84202D1002724E054E0B6
:100E9000314FB84201D101271EE0304FB84201D195
:100EA000022719E02E4FB84201D1032714E02D4F3D
:100EB000B84201D104270FE02B4FB84201D10527DA
:100EC0000AE02A4FB84201D1062705E0284FB84270
:100ED00001D1072700E0082707FA08F72743CCF8D5
:100EE0000878DAF800405746D1F804C09C435FEA1E
:100EF000CC2C00D51C433C60DBF800405F46D1F8A9
:100F000004C09C435FEA8C2C00D51C433C60DEF897
:100F100000407746D1F804C09C435FEA8C3C00D582
:100F20001C433C60084F083F3C68D1F804C09C4318
:100F30005FEACC3C00D51C433C60521C102AFFF4F5
:100F40002FAFBDE8F88F0000083C01404438024054
:100F5000003001400000024000040240000802404E
:100F6000000C024000100240001402400018024031
:100F7000001C02400069084000D00120704742690F
:100F800021EA02030A4043EA0241816170470AB143
:100F9000816170470904FBE70148806870470000E1
:100FA0007C0000200248816802781144816070470B
:100FB0007C0000200B4810B5016841F4007101600D
:100FC000016841F480610160016841F48071016051
:100FD000032000F06FF80F2000F006F800F024F86E
:100FE000002010BD003C024070B50D4D04464FF48A
:100FF0007A712878B1FBF0F00A490968B1FBF0F08A
:1010000001F0D5F848B9102C07D200222146501E15
:1010100000F030F800206C6070BD012070BD000051
:101020007C000020880000200A4808B5016841F4CF
:1010300080410160006800F4804000900548001F76
:10104000016841F080510160006800F0805000901C
:1010500008BD000044380240002809DB00F01F02F0
:10106000012191404009800000F1E020C0F800110A
:1010700070470000F0B40E4B1B680C46C3F302230C
:10108000C3F10705042D00D90425191D072901D234
:10109000002300E0DB1E012606FA05F1491E21406F
:1010A00099409E40761E16403143F0BC03F08ABE44
:1010B0000CED00E0064900F0070208684FF6FF0358
:1010C000184040EA0220034A1043086070470000BD
:1010D0000CED00E00000FA052DE9F0470E46050092
:1010E00065D0DFF81481D8F80000F7B200F00700EF
:1010F000B04207D288F80070D8F8000000F007006E
:10110000B04254D128683D4C810712D5400703D521
:10111000206840F4E05020602878000703D520685C
:1011200040F4604020602068A96820F0F000084387
:1011300020602878C0072DD0304968680839012818
:1011400012D0022813D0032811D00968890700297A
:101150002DDA216821F0030101432160FFF71CFF14
:10116000814641F2883A0EE009688903EFE7096891
:101170008901ECE7FFF710FFA0EB0901514502D907
:101180000320BDE8F0872068696800F00C00B0EB30
:10119000810FEFD1D8F80010404601F00701B142AD
:1011A00007D90770006800F00700B04201D00120A5
:1011B000E7E72878400705D52068E96820F4E05083
:1011C000084320602878000706D52068296920F4A4
:1011D000604040EAC100206000F038F82168084A09
:1011E000C1F30311515CC840064908600648006815
:1011F000FFF7FAFE0020C4E7003C02400838024036
:10120000F88E00088800002080000020044805496E
:1012100000680968044AC1F38221515CC8407047E4
:101220008800002008380240088F0008044805495B
:1012300000680968044AC1F34231515CC8407047F4
:101240008800002008380240088F0008154810B5B3
:10125000006810F00C02144813D04110042A0FD07B
:10126000082A0ED10F4C241F2268236802F03F0287
:101270005B0207D52068C0F38810A0FB010106E0DF
:10128000084610BD2168C1F38811A1FB00010023AD
:10129000FEF798FF2168C1F30141491C4900B0FBEA
:1012A000F1F010BD083802400024F4002DE9F84F99
:1012B00004006ED02078DFF84C93C007A9F1040534
:1012C0004AD009F104000168C1F38101012908D065
:1012D0000068C0F3810002280AD1D9F8000040025A
:1012E00006D52868800337D560680028E1D033E050
:1012F0006068B0F5803F10D0B0F5A02F286810D0FE
:1013000020F480302860286820F4802028606068FD
:10131000A8B1FFF741FE06460DE0286840F4803092
:10132000F4E740F480202860F7E700BFFFF734FEC1
:10133000801B642873D828688003F7D50CE0FFF77A
:101340002BFE064605E000BFFFF726FE801B642843
:10135000F0D828688003F7D42078DFF8AC828007C3
:101360004FF0000A3ED5A748001D016811F00C0F90
:1013700008D00068C0F3810002280BD1D9F8000022
:10138000400207D42868800716D5E068012800D1FC
:1013900012E033E1E068B8B10120C8F80000FFF7BF
:1013A000FBFD064605E000BFFFF7F6FD801B0228A7
:1013B000C0D828688007F7D52868216920F0F80090
:1013C00040EAC10028600DE0C8F800A0FFF7E4FD86
:1013D000064604E0FFF7E0FD801B02281FD82868BE
:1013E0008007F7D42078000722D5864F87486169A7
:1013F000703771B101210160FFF7CEFD064604E0B0
:10140000FFF7CAFD801B022809D838688007F7D586
:101410000EE0C0F800A0FFF7BFFD064605E082E041
:10142000FFF7BAFD801B02287DD838688007F7D403
:101430002078400768D5DFF8CCB100270BF13C0BD2
:10144000DBF80000C0000BD4DBF8001041F0805145
:10145000CBF80010DBF80000012700F0805000906E
:101460006B4E3068C00510D4306840F48070306036
:10147000FFF792FD009005E0FFF78EFD0099401AFE
:10148000022850D83068C005F6D55E4EA0686C368C
:1014900001280FD00528306810D020F001003060FE
:1014A000306820F004003060A068B8B1FFF774FD28
:1014B00000900FE0306840F00100F4E740F00400D5
:1014C0003060F7E7FFF768FD0099411A41F2883074
:1014D000814266D830688007F4D50EE0FFF75CFDE6
:1014E000009007E0FFF758FD0099411A41F288305B
:1014F000814256D830688007F4D42FB1DBF8001051
:1015000021F08051CBF80010A069C8B33D49091DF6
:101510000968C1F3810102294AD00228504607D048
:10152000C8F8600000E03CE0FFF736FD04463BE011
:101530004746C8F86000FFF72FFD064605E000BFEC
:10154000FFF72AFD801B02282BD828688001F7D4DA
:10155000D4E907010843A16A2E4A490802EB014178
:10156000626A41EA8211084394F82C1040EA016152
:10157000C9F8001001203866FFF70EFD044606E0AA
:101580003EE000BFFFF708FD001B022809D82868CD
:101590008001F7D534E000BFFFF7FEFC001B0228F6
:1015A00002D90320BDE8F88F28688001F4D427E031
:1015B0000128F7D0D9F80000E26900F480019142D7
:1015C0001CD1226A00F03F01914217D147F6C07149
:1015D000626A0140B1EB821F10D1A26A4FF0FF3363
:1015E00000F4403103EB5202B1EB024F06D194F804
:1015F0002C1000F07060B0EB016F01D00120D1E73A
:101600000020CFE70438024000004742800E4742E6
:10161000007000400000FFFF10B5FFF72DF910BD6E
:1016200070470000F0B5426E920F0A70426EC2F32E
:1016300083624A70426EC2F301628A70426E120C7B
:10164000CA70B0F86420120A0A7190F864204A71D6
:10165000826E120DCA80826EC2F303420A72B0F823
:101660006820C2F3C0324A72B0F86820C2F38032F8
:101670008A72B0F86820C2F34032CA72B0F86820AB
:10168000C2F300320A7300264E73426C4FF40075A9
:10169000012462B1012A3AD0026847499163816B03
:1016A00041F08051816380F834400120F0BDB0F8F2
:1016B0006820C36E9205120D42EA93720A61C26EEF
:1016C000C2F3C2620A75C26EC2F302624A75C26E8A
:1016D000C2F342528A75C26EC2F38242CA75C26EAA
:1016E000C2F3C2320A760A69521C42650B7E03F0CD
:1016F00007039B1C9A4042650B7A03F00F0704FA1C
:1017000007F383655B0A5A43C0E917250EE090F89A
:101710006820C36E9206920A42EA13420A610A697D
:10172000521C92024265C0E91652056630F86C2FD1
:10173000C2F3803201F8192F0288C2F3C6124A7030
:10174000027802F07F028A704268D20FCA70426843
:10175000C2F341720A714268C2F382624A714268FE
:10176000C2F383528A714268C2F34052CA710E7248
:101770004268C2F300424A728288C2F3C0328A725F
:101780008288C2F38032CA728288C2F340320A73FE
:101790008288C2F300324A738288C2F381228A733C
:1017A0008288C2F30122CA730079C0F3460008742C
:1017B0004C740020F0BD0000FF054000426C0A6040
:1017C000826C4A60C26C8A60026DCA60426D0A61B6
:1017D000826D4A61C26D8A61006EC86100207047E7
:1017E00070B50446B0F8500000250104206802F0EE
:1017F000EAF818B1A16B0143A16304E0002120685D
:1018000001F0A4FF0546C5F3432070BDF8B5056B94
:1018100004460068416B09041BD5290719D5D4E992
:101820000A56002E14D00027206801F0AFFF05F8FB
:10183000010B010A05F8011B010C05F8021B000E43
:10184000361F7F1C05F8010C082FEDD3C4E90A569A
:10185000F8BD416B4FF00006C9054FF0010744D5B4
:10186000390281632068C16B4CF23A329143C16303
:101870002068C16A21F00101C16228071DD515F059
:10188000220F09D0206802F0CFF828B1A16B0143E4
:10189000A1632046FFF7C4FE216840F23A508863F6
:1018A00084F834702663A80703D0204600F05AFA63
:1018B000F8BD204600F05AFAF8BD2806FCD5A80667
:1018C00009D5206802F0B0F828B1A16B0143A163EB
:1018D0002046FFF7A5FEA807EED12068C16A21F0D7
:1018E0000801C16284F83470E3E7416B490424D5F0
:1018F000290722D5D4E90856002EDDD05FF0000775
:1019000015F8010B009015F8011B361F40EA012065
:10191000009015F8021B40EA0140009015F8011CE8
:1019200040EA016000906946206801F042FF7F1C98
:10193000082FE5D3C4E90856F8BD416B40F23A22BE
:101940001142F9D0416B890703D5A16B41F0020127
:10195000A163416B090703D5A16B41F00801A163A5
:10196000416B890603D5A16B41F02001A163416B56
:10197000C90603D5A16B41F01001A163416B890534
:1019800003D5A16B41F00801A16340F23A71816374
:101990002068C16B40F23A329143C163206802F083
:1019A00043F8A16B0843A063280706D584F8347078
:1019B00026632046FFF734FEF8BD2806FCD515F057
:1019C000300F0CD0E16B11480865E06BFFF7C5F9EB
:1019D0000028F1D0E06BBDE8F84002F0EDB9A807AF
:1019E0000CD0216C0A480865206CFFF7B6F9002876
:1019F000E2D0206CBDE8F84002F0BCB9A66384F8E0
:101A0000347026632046FFF707FEF8BDB93D000895
:101A1000753D000870B504000ED094F83400002520
:101A200018B92577204600F04FF8032084F83400D9
:101A3000204600F00BF808B1012070BDA5632563B6
:101A4000012084F83400002070BD0000FEB50025A0
:101A5000044676200095CDE9015029460B460A46FA
:101A6000206801F07DFE48BB154E46F8A05F206857
:101A700001F088FE012535600220FFF780F920463D
:101A800002F034FA30B100BF84F83450A16B014346
:101A9000A16313E0204602F0B1F90028F4D14FF41D
:101AA0000071206801F0BEFE002808D022680549B8
:101AB0009163A16B0143A16384F834500120FEBD02
:101AC00000802542FF0540002DE9F04387B0044621
:101AD00014216846FEF7C0FB26492068884246D19B
:101AE00025484FF00009016841F400610160006879
:101AF00000F40060059020481438016841F00401AA
:101B00000160016801F004010591016841F00801DC
:101B100001600068022400F0080005904FF4807016
:101B200001278DE8910003250C26DFF85080CDE9D0
:101B3000035669464046FFF725F9E0028DE8110299
:101B4000CDE9035669464046FFF71CF904208DE8AD
:101B50009100CDE9035669460948FFF713F90022C1
:101B600003213120FFF786FA3120FFF775FA07B01D
:101B7000BDE8F083002C01404438024000080240D8
:101B8000000C02402DE9F04F87B09B4616460D46EB
:101B90000446FFF701FA00903DB194F834000128A3
:101BA00007D0A06B40F000500DE0A06B40F000604B
:101BB00009E00020A063E26D06EB0B01914204D91D
:101BC000A06B40F00070A0638AE0032184F8341019
:101BD0002168C862616C012900D076024FF0FF31A4
:101BE00001914FEA4B2102914FF0010803AA902185
:101BF00002278146CDF8188082E8820201A9206878
:101C000001F08EFDBBF1010F05D927633146206835
:101C100001F062FE05E0C4F830803146206801F032
:101C200074FEDFF83CA130B12268C2F838A0A16B85
:101C30000143A16350E0029E1FE0406B000413D5F6
:101C400096B10027206801F0A1FD05F8010B010AFB
:101C500005F8011B010C05F8021B000E361F7F1C46
:101C600005F8010C082FEDD3FFF796F9014600980F
:101C7000091A1098814220D2F8B12068426B40F2D4
:101C80002A310A42D9D0416BC90509D5BBF1010FF0
:101C900006D9616C032903D001F0C6FE0028C3D128
:101CA0002068416B090702D4416B89051AD5C0F839
:101CB00038A0A06B40F0080050E02168C1F838A0BF
:101CC000A06B40F00040A06384F83480C4F83090EA
:101CD000032007B0BDE8F08F84F83480C4F830905A
:101CE0000120F6E7416B890705D5C0F838A0A06B45
:101CF00040F0020032E0416B89061BD5C0F838A0E5
:101D0000A06B40F0200029E001F040FD05F8010B38
:101D1000010A05F8011B010C05F8021B000E05F86D
:101D2000010C361FFFF738F90099411A10988142CB
:101D30000ED268B12068416B890201D5002EE3D133
:101D4000216840F23A50886384F834800020C0E76C
:101D50002168C1F838A0A06B40F00040A063BBE749
:101D6000FF05400010B5FEF7C1FD10BD10B5FEF730
:101D7000CFFD10BD2DE9F04F8DB09B4616460D46A8
:101D80000446FFF709F90A903DB194F834000128A0
:101D900007D0A06B40F000500DE0A06B40F0006059
:101DA00009E00020A063E26D06EB0B01914204D92B
:101DB000A06B40F00070A0637AE0032184F8341037
:101DC0002168C862616C012900D076024FF0FF31B2
:101DD00003914FEA4B2104919021CDE905104FF07A
:101DE0000109CDE90709824603A9206801F098FCA2
:101DF000BBF1010F06D9202020633146206801F095
:101E00002DFE05E0102020633146206801F03FFEE2
:101E10005FEA000806D0216841488863A06B40EA69
:101E2000080074E0049E27E0406B40041CD5DEB13E
:101E30005FF0000715F8010B009015F8011B361F25
:101E400040EA0120009015F8021B40EA0140009092
:101E500015F8011C40EA016000906946206801F015
:101E6000A8FC7F1C082FE5D3FFF796F80A99411AC2
:101E70001698814220D2F8B12068416B40F21A32A4
:101E80001142D1D0416BC90523D5BBF1010F20D937
:101E9000616C03291DD001F0C7FDD0B12268204933
:101EA0009163A16B0143A16384F83490C4F830A01E
:101EB00001200DB0BDE8F08F216819488863A06B40
:101EC00040EA0800A06384F83490C4F830A00320EE
:101ED000EFE72068416B090702D4416B890505D5FE
:101EE0000F498163A06B40F0080010E0416B890747
:101EF00005D50B498163A06B40F0020007E0416B00
:101F0000C90606D506498163A06B40F01000A063A6
:101F1000CAE740F23A51816384F834900020C8E760
:101F2000FF05400070B5040009D0606A002540B18B
:101F300025616561A56294F8510040B10CE0012073
:101F400070BD6068B0F5827FF4D0E561F2E784F897
:101F50005050204600F044F8022084F851002068D8
:101F6000016821F040010160A088218900F482709D
:101F700001F404410843A18901F400610843217C74
:101F800001F002010843217D01F001010843218B8A
:101F900001F400710843217F01F03801084394F8EF
:101FA000201001F080010843218D01F40051084305
:101FB00021680860A069042101EA104094F8241007
:101FC00001F010010843216848602068C16921F4CC
:101FD0000061C1616565012084F85100002070BD79
:101FE00010B586B0044614216846FEF735F913494A
:101FF0002068884220D112480021026842F48052B1
:102000000260006800F4805005900D4814380268A2
:1020100042F001020260006800F001000590A0207B
:1020200000900220CDE901010320039005200490D7
:1020300069460448FEF7A6FE06B010BD0030014018
:1020400044380240000002402DE9F84F98461646F9
:102050008A460446FEF7A0FF814694F85100012805
:102060001ED1BAF1000F73D0002E71D094F8500039
:10207000012815D0012784F85070032084F85100FE
:1020800000256565C4F830A0A686E686A563A58709
:10209000E58765642564A068B0F5004F03D00CE0C7
:1020A0000220BDE8F88F2068016821F0400101603E
:1020B0002068016841F48041016020680168490698
:1020C00003D4016841F040010160E068B0F5006FA1
:1020D000606803D048B3012E27D047E008B1012E35
:1020E0001FD1206B21680088C86006E020688168E5
:1020F000890709D5216B0988C160206B801C20638A
:10210000E08E401EE0860CE0FEF746FFA0EB0901E2
:10211000414503D3B8F1FF3F03D035E0B8F1000FDC
:1021200032D0E08E0028E1D123E0206B21680078D6
:10213000087306E02068816889070AD5216B097851
:102140000173206B401C2063E08E401EE0860DE092
:102150002BE0FEF721FFA0EB0901414503D3B8F1C5
:10216000FF3F03D010E0B8F1000F0DD0E08E002843
:10217000E0D14A464146204601F074FF08B12020D4
:102180006065A06830B109E084F8517084F850505F
:10219000032086E72068C1688068009084F8517049
:1021A00004F8505F60680028F3D0012079E710B58B
:1021B000401EB0F1807F01D3012010BD4FF0E0241C
:1021C00060610F21601702F0FDFD0020A061072073
:1021D0002061002010BD000010B5074800F058F83D
:1021E0000128054803D0BDE8104000F0DFB8BDE885
:1021F000104000F09BB80000D007002070477047E7
:1022000070B590F83C20012A32D0012480F83C407F
:10221000022280F83D2003685A689D6822F070060B
:102220000A6832435A60134B02689A4214D0B2F1E2
:10223000804F11D0104B9A420ED0104B9A420BD0C7
:102240000F4B9A4208D00F4B9A4205D00E4B9A4240
:1022500002D00E4B9A4204D1496825F080031943FD
:10226000916080F83D40002180F83C10084670BD28
:10227000022070BD00000140000400400008004042
:10228000000C0040000401400040014000180040E4
:1022900090F83D00704710B5040003D094F83D005D
:1022A00010B107E0012010BD002084F83C0020465A
:1022B00000F01EF8022084F83D00211D206802F085
:1022C0004DF9012084F8460084F83E0084F83F0070
:1022D00084F8400084F8410084F8420084F8430008
:1022E00084F8440084F8450084F83D00002010BDC7
:1022F00008B500680B49884212D10B48016841F0CB
:10230000100101600068002200F010000090082118
:102310003620FEF7AFFEBDE808403620FEF79CBE33
:1023200008BD0000001000404038024090F83D1009
:10233000012901D001207047022180F83D10016879
:10234000CA6842F00102CA6000681149884214D08C
:10235000B0F1804F11D00F4988420ED00E4988420B
:102360000BD00E49884208D00D49884205D00D494E
:10237000884202D00C49884204D1816801F00701EB
:10238000062903D0016841F0010101600020704777
:10239000000001400004004000080040000C004024
:1023A0000004014000400140001800400168CA6874
:1023B00022F00102CA6001680A6A41F211131A424E
:1023C00007D10A6A9B101A4203D10A6822F001025F
:1023D0000A60012180F83D10002070472DE9F0418E
:1023E0000D46040003D094F83D0018B108E0012028
:1023F000BDE8F081002084F83C00204600F040F861
:10240000022084F83D002068816844F2070291436D
:102410008160211D206802F0A1F82268906891690E
:10242000166A2B68AF69034340F20330814341EAE7
:102430000721A868EF6908434FF6FC418843E96823
:1024400040EA0720014328692F6A000140EA07306B
:10245000084369686D6926F0AA0646EA051529430E
:1024600093602268906154F8460B0162012004F8E1
:102470001F09E0752076E0762077A0750020B7E789
:1024800030B587B0044614216846FDF7E5FE2048C4
:1024900024681E4D00221E4910380223AC4216D17A
:1024A0000C6844F002040C60096801F00201059117
:1024B000016841F0040101600068694600F0040011
:1024C0000590C0200090CDE90132124818E0124D6D
:1024D000AC4219D10C6844F008040C60096801F0A2
:1024E00008010591016841F0010101600068694639
:1024F00000F00100059003200090CDE9013207486B
:10250000CDE90323FEF73EFC07B030BD00040040D8
:102510004038024000080240000C00400000024029
:1025200070B590F83E60044690F83F5090F8423005
:1025300090F84320022021B104290ED0012E1BD196
:1025400014E0012E18D1012B16D184F83E0084F836
:10255000420001220021206820E0012D0CD1012A37
:102560000AD184F83F0084F8430014E0012D03D120
:10257000012B01D1012A01D0012070BD84F83E0059
:1025800084F83F0084F8420084F8430001220021CF
:10259000206802F04FF801220421206802F04AF876
:1025A0002068016841F001010160002070BD7047A2
:1025B0002DE9F04104460068C66805694FF0000740
:1025C000A90713D5B10711D5F91E016101202077A4
:1025D000206880698007204602D0FFF7E8FF04E00A
:1025E00000F0C0F8204600F071F92777680716D58B
:1025F000700714D521686FF004000861022020776D
:102600002068806910F4407F204602D0FFF7CFFF9A
:1026100004E000F0A7F8204600F058F927772807D3
:1026200015D5300713D521686FF008000861042024
:1026300020772068C0698007204602D0FFF7B7FFE7
:1026400004E000F08FF8204600F040F92777E80614
:1026500016D5F00614D521686FF010000861082027
:1026600020772068C06910F4407F204602D0FFF731
:102670009EFF04E000F076F8204600F027F9277767
:10268000E80708D0F00706D021686FF00100086164
:10269000204600F081F9280608D5300606D52168C5
:1026A0006FF0800008612046FFF7A8FD680608D596
:1026B000700606D521686FF040000861204600F0E2
:1026C000ABF9A8060AD5B00608D521686FF020003E
:1026D00008612046BDE8F041FFF791BDBDE8F081FB
:1026E00010B586B0044614216846FDF7B5FD236891
:1026F000002118480222B3F1804F17D0164CA34294
:1027000012D1036843F010030360006800F010006A
:10271000059060200090CDE901210320CDE9031050
:1027200069460E48FEF72EFB06B010BD036843F065
:1027300001030360006800F0010005904FF40040C1
:102740000090CDE901210120CDE90310694604483C
:10275000E8E700003038024000400140001002402D
:1027600000000240704770B5044690F83C00002617
:102770000D4601280FD0012084F83C006AB1042ADC
:102780001DD0082A2FD00C2A3FD00126002084F823
:102790003C00304670BD022070BD206801F058FF3B
:1027A0002068816941F0080181612068816921F018
:1027B00004018161206881692A69114311E0206860
:1027C00001F076FF2068816941F400618161206831
:1027D000816921F480618161206881692A6941EA07
:1027E00002218161D2E7206801F098FF2068C16969
:1027F00041F00801C1612068C16921F00401C16193
:102800002068C1692A69114311E0206801F0BAFF0C
:102810002068C16941F40061C1612068C16921F487
:102820008061C1612068C1692A6941EA0221C161F0
:10283000ACE710B5040003D094F83D0010B107E0F8
:10284000012010BD002084F83C00204600F01EF856
:10285000022084F83D00211D206801F07FFE012048
:1028600084F8460084F83E0084F83F0084F8400075
:1028700084F8410084F8420084F8430084F844005E
:1028800084F8450084F83D00002010BD08B50068BC
:10289000B0F1804F0CD00B49884208D10A4801683A
:1028A00041F480310160006800F48030009008BD80
:1028B0000548001F016841F001010160006800F057
:1028C0000100F3E700400140443802407047000037
:1028D00010B50446022249B104290ED0082913D0AC
:1028E00094F84100012816D0012010BD94F83E0054
:1028F0000128F9D184F83E200FE094F83F00012828
:10290000F2D184F83F2008E094F840000128EBD190
:1029100084F8402001E084F841200122206801F081
:1029200089FE16492068164A884201D0904203D198
:10293000436C43F4004343642068884213D0B0F1F1
:10294000804F10D00F4988420DD00F4988420AD0DD
:102950000E49884207D0904205D00D49884202D0E6
:102960000C49884204D1816801F00701062903D08F
:10297000016841F001010160002010BD000001402C
:10298000000401400004004000080040000C00402A
:10299000004001400018004070B5006819498842A5
:1029A0002ED1032000F0AAFE174CE061052000F0B4
:1029B000A5FE2062216AE069FEF74CF9216AE06910
:1029C00002F080F8216A0546E06902F07BF804F025
:1029D00099FAFDF7CDFF206020682A1A0B480260A3
:1029E000206829180A4801600A480078012804D0A4
:1029F0001046BDE8704001F0F9BB00210846F8E739
:102A000070BD000000100040780200206C00002023
:102A100070000020000000207047704770470000E1
:102A2000F8B5016804460868CA684B6910F00F0FD2
:102A30004FF0000559D003F0010602F490773743B8
:102A400065D0C10705D0D10503D5616C41F0010106
:102A50006164410705D5D90703D0616C41F00201DB
:102A60006164810705D5D90703D0616C41F0040189
:102A70006164010707D502F02001314303D0616C86
:102A800041F008016164616C00293AD0800604D5E8
:102A9000900602D5204601F0CCFE20684069616CAA
:102AA000C0F38010090700D460B3204601F09AFEFD
:102AB00020684069400621D52068143050E8001F86
:102AC00021F0400140E80012002AF5D1E06BA8B1E6
:102AD0006E490165E06BFEF740F9002811D0E06B0C
:102AE000016D01B0BDE8F040084783060FD593069D
:102AF0000DD52046BDE8F84001F09BBE2046FFF70B
:102B00008DFFF8BD2046FFF789FF6564F8BD266B91
:102B10002023012E7DD1C6067BD5D60679D508683F
:102B20004868009048694FF00206400641D5E16BC5
:102B3000086840680004000CE8D0A28D8242E5D904
:102B4000E085C869B0F5807F2DD020680C3050E852
:102B5000001F21F4807140E80012002AF5D120689E
:102B6000143050E8001F21F0010140E80012002A53
:102B7000F5D12068143050E8001F21F0400140E8F2
:102B80000012002AF5D184F84230256320680C3009
:102B900050E8001F21F0100140E80012002AF5D192
:102BA000E06BFEF791F86663A08DE18D401A81B26B
:102BB0002AE0A08DE18D401A81B2E08D0028A5D0D9
:102BC0000029A3D022680C3252E8000F20F4907044
:102BD00042E80007002FF5D12068143050E8002F9C
:102BE00022F0010240E80027002FF5D184F842309E
:102BF000256320680C3050E8002F22F0100240E8D6
:102C00000023002BF5D166632046FFF706FFF8BDD1
:102C1000FFE705062BD5150629D594F84100212894
:102C2000F5D1A068B0F5805F01D12069B0B1206A0C
:102C3000411C2162216800784860E08C401E00043D
:102C4000000CE084E3D12068C16821F08001C160FC
:102C50002068C16841F04001C160D8E7206A00885F
:102C6000C0F308004860206A801C2062E5E7400647
:102C7000CDD55006CBD5CA68204622F04002CA60A6
:102C800084F8413000F03EF9C1E70000D547000864
:102C900070B5040004D094F84100002510B106E09E
:102CA000012070BD84F84050204600F023F8242015
:102CB00084F841002068C16821F40051C1602046B9
:102CC00001F018FE2068016921F49041016120683B
:102CD000416921F02A0141612068C16841F4005135
:102CE000C1606564202084F8410084F84200656377
:102CF000002070BDF0B587B0044614216846FDF78A
:102D0000ABFA2A4F2368002229490224032507260B
:102D10002848BB4221D1264B14331F6847F01007C7
:102D20001F601B6803F0100305930B6843F0010359
:102D30000B60096802AB01F0010105916902CDE960
:102D4000001483E864006946FEF71CF800220321A2
:102D50002520FEF78FF9252023E0174FBB4222D113
:102D6000134B10331F6847F400371F601B6803F4D0
:102D7000003305930B6843F001030B60096802AB55
:102D800001F0010105910C21CDE9001483E86400F4
:102D90006946FDF7F7FF002211462620FEF76AF983
:102DA0002620FEF759F907B0F0BD000000100140E1
:102DB00030380240000002400044004090F84230A9
:102DC000202B01D00220704721B11AB100230363E8
:102DD00001F016BE0120704770B500681A4988429C
:102DE00022D11A4841880A0416D402464C041278AB
:102DF0004FF0000304D50A2A0DD141F4004111E03F
:102E00000D2A0DD0C1F30D04114D491C89B22A556C
:102E10004180C72900D9438001220C490D480DE0AB
:102E200041F480414180F7E70B4988420AD10B48C1
:102E3000007801F0F1FE094909480122BDE870401F
:102E4000FFF7BCBF70BD0000001001407002002001
:102E5000600800205C0C002000440040740000204A
:102E6000700900202DE9F843044690F84100984687
:102E700016460D46202802D00220BDE8F88385B111
:102E80007EB100206064212084F84100FEF784F8C0
:102E9000A6848146E684A0682027B0F5805F02D032
:102EA00003E00120E9E7206910B12E4600250EE07D
:102EB00000260CE08021204601F0BDFDA8B9C6B176
:102EC00016F8010B21684860E08C401EE084E08C1D
:102ED0004B464FF00002CDF800800028EAD14FF0B9
:102EE0004001204601F0A7FD40B184F84170032065
:102EF000C3E735F8020BC0F30800E3E784F841703C
:102F00000020BAE77047FEE71CB51348002240686E
:102F10000189CDE90012C38811460F4804F063FB14
:102F200000234FF6FF7201210B4804F085FC0A22B2
:102F30000AA31146084804F013FC0BA328220A2117
:102F4000054804F00DFC02B03C22BDE810400AA385
:102F50000A21014804F004BC14000020496E666F89
:102F6000205061676500000053544D3332463420D1
:102F700050726F6A656374004C43443A205354376F
:102F800037383920322E3022000000002DE9FF5F53
:102F90005E4C04F130016079E26AFDF747FD60782C
:102FA00030B9A07820B9E07810B9207900287DD018
:102FB000584A9FED570A0020F3EE000A9FED561A7B
:102FC00002F10C0ADFED551A02F1180B544901EB1E
:102FD000400131F9683F02EE103A02EB8003B8EE8F
:102FE000C22A22EE002A22EE202A83ED002AB1F91D
:102FF000063002EE103A0AEB8003B8EEC22A22EE47
:10300000002A22EE012A83ED002AB1F9121002EE05
:10301000101A0BEB8001401CB8EEC22A032822EEE6
:10302000002A22EE212A81ED002ACFDB607891462A
:103030009068FDF736F907468846D9F80400FDF791
:1030400030F905460E46D9F80000FDF72AF98DE85B
:10305000E00141EC100B33A053EC102B01F072FE99
:10306000607820F001006070A078D146DAF808009E
:10307000FDF717F907468846D9F80400FDF711F95E
:1030800005460E46D9F80000FDF70BF98DE8E00182
:1030900041EC100B29A053EC102B01F053FEA0784B
:1030A00020F00200A070E078D94600E02BE0DBF8C9
:1030B0000800FDF7F6F807468846D9F80400FDF742
:1030C000F0F805460E46D9F80000FDF7EAF88DE85D
:1030D000E00141EC100B1FA053EC102B01F032FE6D
:1030E000E07820F00400E07020790D48B0F97830E5
:1030F000B0F97620B0F974101CA001F023FE2079FD
:1031000020F008002071BDE8FF9F0000640300204C
:1031100000000038D81000200000FA4400003443BA
:10312000B80F00206163633A252E336620252E33C5
:103130006620252E33660D0A000000006779726F45
:103140003A252E336620252E336620252E33660D34
:103150000A000000616E676C653A252E33662025F3
:103160002E336620252E33660D0A00006D61673A06
:1031700025642025642025640D0A00000F4910B540
:103180004FF4E13048600846FFF782FD50210020EF
:1031900001F02AFD0A4801F0CBFD0A4801F032FD9A
:1031A000094801F017FD012208490448FFF706FE0F
:1031B000BDE8104006A001F0C5BD00007009002068
:1031C000DD4100088D410008E30A0008740000207A
:1031D0000D0A7769742D6D6F74696F6E206E6F7252
:1031E0006D616C206578616D706C650D0A00000082
:1031F000012808D0022809D003280AD004280AD1BF
:10320000012002F08BBC012002F046BD012002F03B
:1032100025BD02F027BC704710B5FDF7A1FC0400E6
:1032200004D004F043FC2046FFF7E2FFBDE8104065
:1032300002F050BD10B504490448FDF76DFC024989
:10324000491E087010BD000077000020E48E0008C1
:103250002DE9F04F87B014216846FCF7FDFF514877
:103260000024016841F010010160016801F01001C3
:103270000591016841F080010160016801F0800161
:103280000591016841F004010160016801F0040149
:103290000591016841F001010160016801F001013F
:1032A0000591016841F002010160016801F002012D
:1032B0000591016841F0080101600068DFF8E880CD
:1032C00000F008000590012207214046FDF75FFE4F
:1032D000DFF8D890002240214846FDF758FEDFF87D
:1032E000D0A04FF46046002231465046FDF74FFE15
:1032F000DFF8C0B04FF48767002239465846FDF723
:1033000046FE00224FF40C612B48FDF740FE0720DB
:1033100000900125CDE90154694640460394FDF72C
:1033200031FD40200090CDE90154694648460394A0
:10333000FDF728FD0096CDE90154694650460394F7
:10334000FDF720FD0097CDE90154694658460394E6
:10335000FDF718FD4FF428408DE8310069465846C6
:10336000FDF710FD4FF408508DE831006946124812
:10337000FDF708FDE802CDE900050220CDE90204D1
:1033800069460D48FDF7FEFCC02000901120CDE9F4
:1033900001040320039069460748FDF7F3FC07B0DA
:1033A000BDE8F08F303802400008024000000240C3
:1033B0000010024000040240000C0240064805498B
:1033C0000160002141608160C160016141618161F2
:1033D00070470000002C01401C060020114810B569
:1033E0000F4901604FF4827141604FF400418160E8
:1033F00000210222C0E903120122426152028261CD
:103400000822C0E90721416281620A21C162FEF7F8
:1034100089FD002803D0BDE81040FDF77BBB10BD3F
:1034200000300140A006002010B58AB000240794A7
:103430001C2168460894FCF70FFF15484FF08041A7
:10344000C0E90014611EC0E9024104618461FFF714
:10345000F0F908B1FDF75EFB079407A90C48089442
:10346000FEF7CEFE08B1FDF755FB6020CDE9000464
:1034700002940022694606480494FFF774F908B1E3
:10348000FDF748FB0248FFF72BF90AB010BD00001A
:10349000F806002010B58CB024216846FCF7DCFE4D
:1034A00000241648099414490A94C0E900144FF600
:1034B000FF71C0E90241046184610320CDE9000489
:1034C0000120CDE902040494CDE905400794694642
:1034D0000A480894FEF782FF08B1FDF71BFB099428
:1034E00009A906480A94FEF78BFE002801D0FDF7D3
:1034F00011FB0CB010BD000000040040400700208C
:1035000010B58CB024216846FCF7A6FE00241548AF
:10351000099413490A94C0E90014611EC0E90241EC
:10352000046184610320CDE900040120CDE9020497
:103530000494CDE90540079469460A480894FEF7CB
:103540004DFF08B1FDF7E6FA099409A905480A9468
:10355000FEF756FE002801D0FDF7DCFA0CB010BDD6
:10356000000C0040880700201CB500240F48009480
:103570000D490194016042F2CF01C0E901143121EB
:10358000C16080218161FEF786FE08B1FDF7C2FAB5
:103590000094694605480194FEF732FE002801D0E8
:1035A000FDF7B8FA1CBD000000100040D007002055
:1035B00010B588B01C216846FCF74EFE1A48194920
:1035C0000024C0E9001441F61F41C0E902418021F6
:1035D00004618161FFF72DF908B1FDF79BFA6020C6
:1035E000CDE900040294002269460F480494FFF7D5
:1035F000BAF808B1FDF78EFA042269460A48FFF7C7
:10360000B2F808B1FDF786FA00210748FFF760F924
:1036100004210548FFF75CF90348FFF761F808B09B
:1036200010BD000000400140180800200C4810B5F3
:103630000A4901604FF4E1314160002181600C22B0
:10364000C160C0E904128161C161FFF721FB00285C
:1036500003D0BDE81040FDF75DBA10BD0010014079
:10366000280900200E4810B50C4901604FF4E131E3
:103670004160002181600C22C160C0E904128161B7
:10368000C161FFF705FB08B1FDF744FABDE8104042
:10369000012204490248FFF791BB000000440040AA
:1036A0007009002074000020024A0321024802F041
:1036B000C7B90000A5420008D0020020FEE70000C4
:1036C00010B5034802F068FABDE8104002F0AABA4B
:1036D000B8020020FEE70000054A002011780A2900
:1036E00004D2044800EB4110491C117070470000DF
:1036F00060030020780D0020704700000246002083
:103700000146032A06D0052A03D1034A1068116036
:1037100000B27047014AF9E7240C0040240400403D
:103720000A6842624A688262D1E902231A43D1E9F7
:1037300004310B43C16A1A4321F0F7011143C162FE
:1037400000207047006800F003007047084440699B
:10375000704700000148FEF759B800001C06002021
:1037600070B50DF1100C11439CE870002343194310
:1037700029434268314347F6FF639A430A43426054
:10378000002070BD0321016000207047D0F8800048
:1037900070470A688260D1E901231A43D1E90331F5
:1037A0000B43C1681A436FF30B011143C160002042
:1037B00070470968C0F880100020704710B585B0C8
:1037C00004463720CDE900104020029000200390ED
:1037D0004FF48060049069462046FFF7DAFF41F21B
:1037E00088323721204600F06BF905B010BD00008B
:1037F00010B504460A4885B001432920CDE90010E0
:1038000040200290002003904FF4806004906946AD
:103810002046FFF7BEFF204600F00AFA05B010BDB3
:103820000000108010B585B004461020CDE90010CE
:1038300040200290002003904FF48060049069467D
:103840002046FFF7A6FF41F288321021204600F003
:1038500037F905B010BD000030B585B0002405462D
:10386000009401944FF480600294CDE903406946CE
:103870002846FFF78EFF0B484FF4FA510068B0FB63
:10388000F1F041F288314843401E03D24FF000402E
:1038900005B030BD696B0906F6D5C520A863204682
:1038A000F6E700008800002010B585B004464FF40C
:1038B000D5700090082001904020029000200390D5
:1038C0004FF48060049069462046FFF762FF20466F
:1038D00000F014FA05B010BD10B585B004461220F2
:1038E000CDE9001040200290002003904FF480604A
:1038F000049069462046FFF74CFF41F288321221BE
:10390000204600F0DDF805B010BD10B585B00446C6
:103910001120CDE9001040200290002003904FF4C8
:103920008060049069462046FFF733FF41F28832F9
:103930001121204600F0C4F805B010BD10B585B0C7
:1039400004460720CDE9002040200290002003908B
:103950004FF48060049069462046FFF71AFF41F259
:1039600088320721204600F0ABF805B010BD10B535
:1039700085B0044600210220CDE90010C020CDE929
:1039800002014FF48060049069462046FFF701FF72
:10399000204600F025F905B010BD10B585B00446ED
:1039A0000920CDE90010C0200290002003904FF4C0
:1039B0008060049069462046FFF7EBFE204600F049
:1039C0000FF905B010BD10B585B004460D20CDE946
:1039D000001040200290002003904FF4806004907B
:1039E00069462046FFF7D5FE41F288320D21204678
:1039F00000F066F805B010BD30B585B00C46054640
:103A000000210320CDE900104020CDE90201000192
:103A1000049069462846FFF7BCFE2246032128464B
:103A200000F028F905B030BD10B585B0044600217E
:103A30000C20CDE900104020CDE9020100010490E6
:103A400069462046FFF7A5FE034A0C21204600F0F8
:103A500037F805B010BD000000E1F50510B585B0E0
:103A600004461920CDE90010402002900020039068
:103A70004FF48060049069462046FFF78AFE41F2C9
:103A800088321921204600F01BF805B010BD10B592
:103A900085B004461820CDE9001040200290002097
:103AA00003904FF48060049069462046FFF771FE52
:103AB00041F288321821204600F002F805B010BD0E
:103AC000454B10B51B684FF4FA54B3FBF4F3534362
:103AD0005B1E02D24FF0004010BD426B12F0450F4A
:103AE000F6D01205F4D4426B520703D5042181634A
:103AF000084610BD426BD20702D00121816305E068
:103B0000C52282630269D2B28A4201D0012010BD6F
:103B10000021FFF71BFE3149084201D1002010BDF2
:103B2000002802DA4FF0007010BD410001D540209E
:103B300010BD810001D5802010BDC10002D54FF419
:103B4000807010BD010102D54FF4007010BD41011D
:103B500002D54FF4806010BDC10102D54FF4006062
:103B600010BD010202D54FF4805010BD410202D5B4
:103B70004FF4005010BD810202D54FF4804010BDBB
:103B8000C10202D54FF4004010BD410302D54FF4ED
:103B9000003010BD810302D54FF4802010BDC10359
:103BA00002D54FF4002010BD010402D54FF480105F
:103BB00010BD410402D54FF4001010BD810402D5A0
:103BC0004FF4800010BD000702D54FF4000010BD77
:103BD0004FF4803010BD00008800002008E0FFFD99
:103BE00012494FF4FA520968B1FBF2F141F28832FE
:103BF0005143491E02D24FF000407047426B12F011
:103C0000450FF6D01205F4D4416B490703D50421C2
:103C1000816308467047416BC90703D00121816366
:103C200008467047C5218163002070478800002046
:103C30000F494FF4FA520968B1FBF2F141F28832B0
:103C40005143491E02D24FF000407047426B12F0C0
:103C5000450FF6D01205F4D4416B490703D5042172
:103C6000816308467047C5218163002070470000CA
:103C70008800002030B5204B4FF4FA541B68B3FB8A
:103C8000F4F341F2883463435B1E02D24FF00040EC
:103C900030BD446B14F0450FF6D02405F4D4436BCB
:103CA0005B0703D504218163084630BD436BDB0706
:103CB00002D00121816303E00369DBB28B4201D0B2
:103CC000012030BDC52181630021FFF73FFD10F4C5
:103CD000604F04D0410406D54FF4005030BD000CB5
:103CE0001080002030BD000402D54FF4805030BD5C
:103CF0004FF4803030BD00008800002014494FF49C
:103D0000FA520968B1FBF2F141F288325143491E7F
:103D100002D24FF000407047426B12F0450FF6D0D0
:103D20001205F4D4416B490703D504218163084689
:103D30007047416BC90703D0012181630846704772
:103D4000416B490601D54021816300207047000086
:103D50008800002010B5064C01202070FCF794FD6F
:103D600018B9207820F001002070207810BD0000E4
:103D70007500002010B5846B40F23A5021688863CA
:103D80002046FDF72DFD012184F834100021216328
:103D9000062801D0052805D12068FFF745FEA16B54
:103DA0000843A063A06B0028204602D0FDF738FC32
:103DB00010BDFDF731FC10BD10B5846B40F23A50D8
:103DC000216888632046FDF70BFD012184F834103B
:103DD00000212163062801D0052805D12068FFF7BE
:103DE00023FEA16B0843A063A06B0028204602D0ED
:103DF000FDF716FC10BDFDF70FFC10BD10B590B01F
:103E000004460120ADF838002068FFF79BFC00282D
:103E100054D0606C032842D02068FFF7A8FD00282A
:103E20004AD100212068FFF791FC606704212068D7
:103E3000FFF78CFCA06708212068FFF787FCE0678C
:103E40000C212068FFF782FCC4F88000606C032816
:103E500025D00EA92068FFF7CFFD00282CD1606C7B
:103E600003281CD0BDF83800206501042068FFF746
:103E700094FD002820D100212068FFF767FC6066D0
:103E800004212068FFF762FCA06608212068FFF784
:103E90005DFCE0660C212068FFF758FC20670421D8
:103EA0002068FFF753FC000DE06403A92046FDF7EE
:103EB000B9FB30B14FF0805010B010BD4FF08060B2
:103EC000FAE7B4F85000002302042068FFF736FD3B
:103ED0000028F1D104F1100007C88DE8070094E82C
:103EE0000F00FFF73DFC0020E6E700002DE9F84F4A
:103EF0000026044600963546B0460068FFF7ACFC45
:103F0000002827D12068FFF7CFFC4FF0805B4FF0EF
:103F100001094FF6FF7748B1A6642068FFF79CFCC3
:103F2000002817D1A06C012802D020E0C4F84890E6
:103F300000212068FFF742FC58B918E000212068F2
:103F4000FFF73CFC002805D151462068FFF750FCE4
:103F500010B15846BDE8F88F00212068FFF7F6FB46
:103F600005464FEAD0780098401C009002E0DFF848
:103F70002CA00098B84202D2B8F1000FDED0009811
:103F8000B84202D34FF08070E4E7680002D5C4F86D
:103F9000449000E066640020DCE70000000010C1EF
:103FA00070B5064C054601202070FCF779FC18B965
:103FB0002846FFF7CFFE2070207870BD75000020E6
:103FC00010B5124888B014460078C00702D003200C
:103FD00008B010BDC1B1012905D0022908D00329BC
:103FE0000CD00420F4E76846FCF748FC06980AE089
:103FF0006846FCF743FC0798208005E06846FCF71C
:104000003DFC0798400A20600020E1E77500002091
:1040100070B51D46164608460124A31E2A463146A1
:10402000FCF754FC28B900BFFCF72EFC0028FBD19C
:104030000024204670BDFFF78DBE000070B51D4600
:10404000164608460124A31E2A463146FCF750FCBA
:1040500028B900BFFCF718FC0028FBD1002420463B
:1040600070BD0000F8B515460E460B46009204469A
:104070000122022100F02CF8A0B91348134900686E
:10408000B0FBF1F04FF47A71484300906068B0F5EE
:10409000827F0DD13346002280212046009500F01A
:1040A00017F870B1606D40F0200060650320F8BD26
:1040B000009830B1401E009020688068C043000620
:1040C000F6D50020F8BD00008800002000366E0103
:1040D0002DE9F8431E46914688460446089DFCF7A4
:1040E0005BFF401B351AFCF757FF07462548006861
:1040F000C0F3CB30684338E0701C37D0FCF74CFF7E
:10410000C01BA84203D215B1009860B32CE0206810
:10411000416821F0E00141606068B0F5827F0BD119
:10412000A068B0F5004F02D0B0F5806F04D12068D0
:10413000016821F040010160A06AB0F5005F09D17B
:104140002068016821F4005101602068016841F491
:1041500000510160012084F85100002084F85000D3
:104160000320BDE8F8830025401E00902068816888
:1041700038EA010004D000214945BDD10020F0E714
:104180000121F9E7880000207047000010B50023E6
:10419000114A1DE0362806D0392809D03C280CD019
:1041A0003F2813D10EE0547844F0010454700DE020
:1041B000947844F00204947008E0147944F0080400
:1041C000147103E0D47844F00404D470401C5B1CE8
:1041D0008B42DFD310BD0000640300208AB2014689
:1041E00032230148FEF73EBE700900202DE9F04160
:1041F00006000D4619481A4C4FF480614FF40047F1
:1042000004D50022FCF7C3FE012203E00122FCF7E3
:10421000BEFE002239462046FCF7B9FE304603F0C8
:1042200003FD104EB0634FF480414F10002D05DAAE
:1042300000222046FCF7ABFE012204E001222046CA
:10424000FCF7A5FE002239462046FCF7A0FE2846D2
:1042500003F0EAFC7063BDE8F08100000004024056
:104260000010024000400140642801DD642004E0A9
:104270006FF06301884200DA084600EE100A034836
:10428000B8EEC00A80ED000A704700000C00002064
:10429000024A0321024801F0D3BB0000A5420008F6
:1042A000180300202DE9FE4F04460420DFF8B481F6
:1042B0008DF80800A17898F80100DFF8AC911E276E
:1042C0004FF03A0A814204D168486168FBF7DBFF8E
:1042D000C8B102A9204601F08BFC0021624802F01F
:1042E00065FF4FF6E07B00235A4601215E4803F04C
:1042F000A3FA6068052200905DA311465A4803F0B6
:104300002FFA00253DE002A9204601F071FC6278F9
:1043100098F800108A4238D04FF0FF36354600201A
:104320003EE0A0782844C6B26078B04213D1C5EB15
:1043300005100AEB400292B2CDE9002BD9F8041027
:1043400007EB400082B2CB880021474803F04BF9CD
:104350005B46002202E000234FF6FF720121424833
:1043600003F06AFA04EB860041A3C0680090C5EB35
:10437000051007EB400082B20A213B4803F0F0F938
:104380006D1C9DF808008542CBDB5DE0A3780344FB
:10439000DBB28B4200D106469A4200D10546401C52
:1043A0009DF808309842F1DB002E26DBC6EB0610A4
:1043B0000AEB4001002289B2CDE90012D9F80410BD
:1043C00007EB400B1FFA8BF2CB880021264803F045
:1043D0000AF900234FF6FF720121234803F02CFA5B
:1043E000A0781FFA8BF2304404EB800020A3C06851
:1043F00000900A211C4803F0B3F9002D24DBC5EB23
:1044000005100AEB40024FF6E07B92B2CDE9002B9B
:10441000D9F8041007EB4006B2B2CB88002112484D
:1044200003F0E1F85B46002201210F4803F004FA93
:10443000A078B2B2284404EB80000DA3C0680090BD
:104440000A21094803F08CF9617888F80010A178F6
:1044500088F801101F2205486168FBF708FFBDE8D6
:10446000FE8F0000B402002014000020440D002044
:1044700025730000FCF796BD30B593B03021684637
:10448000FBF7EAFE14210CA8FBF7E6FE1D48002509
:10449000016841F080510160006800F08050119087
:1044A0001948016841F4804101600068022400F469
:1044B0008040119001200090000401908001CDE91E
:1044C000064004200890A820CDE9090407200B909D
:1044D0006846FCF7EBFE08B172B6FEE70CA90F20A8
:1044E00081E831004FF4A0500F904FF480501090AD
:1044F00005210CA8FCF7F0FD002801D072B6FEE7FC
:1045000013B030BD403802400070004002480168DE
:1045100041F470010160704788ED00E010B50A4C6D
:104520002068C068C043C00709D1084800698047B7
:1045300021680020486221686420C862E060216828
:104540006FF00100086110BD140C002078010020FC
:104550000148FEF72DB80000D0070020F0B5026832
:10456000294C2A4D2A4E2B4F2B4B4FF0804CA0420A
:1045700009D0604507D0A84205D0B04203D0B84268
:1045800001D0984204D122F0700E4A6842EA0E022D
:10459000A0421BD0604519D0A84217D0B04215D018
:1045A000B84213D0984211D01C4DA8420ED01C4DD9
:1045B000A8420BD01B4DA84208D01B4DA84205D0E5
:1045C0001A4DA84202D01A4DA84203D122F44075D8
:1045D000CA682A434D6922F080022A4302608A6831
:1045E000C2620A688262A04201D0984201D1096980
:1045F0000163012141610169C90703D0016921F00B
:1046000001010161F0BD0000000001400004004014
:1046100000080040000C0040000401400040014040
:10462000004401400048014000180040001C0040C8
:104630000020004010B501F01F030121046A9940D9
:104640008C430462016A9A401143016210BD00006C
:10465000F0B5036A026A22F00102026242688469CC
:10466000124E24F073050C682C4323F002058B686E
:104670002B430D4DA84201D0B04205D123F00807CD
:10468000CB683B4323F00403A84201D0B04205D1DC
:104690004D6922F4407215438A692A43426084615D
:1046A000496841630362F0BD00000140000401401D
:1046B000F0B5026A036A23F0100303624368846959
:1046C0000D6824F4E64444EA05248D6822F02002B3
:1046D00042EA05120F4D104EA84201D0B04206D159
:1046E000CF6822F0800242EA071222F04002A8427C
:1046F00001D0B04207D14D6923F4406343EA8503FA
:104700008D6943EA8503436084614968816302627D
:10471000F0BD00000000014000040140F0B5026A55
:10472000036A23F4807303624368C46922F400724D
:1047300024F073050C68124E2C438D6842EA052262
:104740000E4DA84201D0B04206D1CF6822F40062DB
:1047500042EA072222F48062A84201D0B04207D187
:104760004D6923F4405343EA05138D6943EA051369
:104770004360C4614968C1630262F0BD000001404A
:104780000004014030B5046A026A22F480520262D9
:104790004268C3690D6823F4E64343EA05238D6844
:1047A00024F4005444EA0534084DA84202D0084DD0
:1047B000A84204D14D6922F4804242EA8512426047
:1047C000C36149680164046230BD0000000001401B
:1047D0000004014010B5806B0021C185C184FEF743
:1047E0001DF910BD01680C3151E8002F22F49072C0
:1047F00041E80023002BF5D10168143151E8002F66
:1048000022F0010241E80023002BF5D1016B0129C0
:1048100009D101680C3151E8002F22F0100241E863
:104820000023002BF5D1202180F8421000210163E4
:10483000704708B590F84210222901D0022008BD27
:1048400082684FF480539A4201D1016921B1816A93
:104850009A421BD04AB10AE00268816A5268C2F3E8
:1048600008020A80816A891C08E0026972B1026844
:10487000526802F07F020A70816A491C8162C18D10
:10488000491E0904090CC18503D01BE00268526867
:10489000F1E70168CA6822F02002CA600168CA68AC
:1048A00022F48072CA6001684A6922F001024A61FA
:1048B000202180F8421000214163026B012A03D0BD
:1048C000FEF78AFA002008BD016301680C3151E847
:1048D000002F22F0100241E80023002BF5D10168DF
:1048E0000A68D20602D50A6849680091818DFEF7F0
:1048F00094F8E7E770B5044600680169E26821F4BE
:104900004051114301612169A068E269084361696E
:10491000114308432168CA6849F20C639A43024371
:10492000CA6020684169A26921F440711143416164
:1049300031492068884202D03049884202D1FCF7D0
:1049400075FC01E0FCF762FCE26900231921642593
:104950003226B2F5004F626828D0A0FB0101930F08
:104960009200FBF72FFC0146B0FBF5F06FF0180248
:10497000504301EB800006EB0010B0FBF5F000F0B7
:10498000F002B1FBF5F002EB0012B1FBF5F06FF0B5
:104990001803584301EB800006EB0010B0FBF5F064
:1049A00000F00F0021681044886070BDA0FB010179
:1049B00092185B41FBF706FC0146B0FBF5F00201E3
:1049C000B1FBF5F06FF01803584301EB800006EBE4
:1049D000C000B0FBF5F000F0F80002EB4002B1FBC4
:1049E000F5F0584301EB800006EBC000B0FBF5F09A
:1049F00000F00700D6E7000000100140001401405D
:104A000081628285C28500214164222180F84210A2
:104A1000016921B10168CA6842F48072CA60016804
:104A20004A6942F001024A610068C16841F0200110
:104A3000C160002070472DE9F843984617460D469F
:104A40000446089E24E0701C22D0FCF7A5FAA0EBD7
:104A50000800B0421AD8CEB12068C168490717D5FE
:104A6000802D15D0402D13D00168C94309070FD4FC
:104A700001680025406800902046FFF7B3FE08203B
:104A8000606484F840500120BDE8F8830320FBE710
:104A90002068006835EA000004D00020B842D2D077
:104AA0000020F1E70120F9E70148FDF7B9BF000058
:104AB0005C0C00200148FDF7B3BF00007009002026
:104AC000FEE70000084400EE100A3548B0EE001A78
:104AD000B8EEC00AD0ED000A3248354A10EE810A1D
:104AE000DFED310A9FED311A80ED020A90ED030AE5
:104AF00020EE200A80ED030A90ED030AD0ED020AB1
:104B000000EE810A80ED030A90ED040AD0ED030A5D
:104B100030EE200A80ED040A90ED040A10EE101A1F
:104B2000914203DD9FED230A80ED040A90ED040A13
:104B3000214A10EE101A914203D99FED200A80ED10
:104B4000040A1F4990ED030AD1ED000A1E4920EE28
:104B5000201A9FED1C0AD1ED001A1C49C1EE000A73
:104B600090ED041A21EE211AC1EE001A30EEA10ACE
:104B700080ED010A0978012903D19FED150A80ED26
:104B8000040A90ED010ABDEEC00A10EE101A41624F
:104B900090ED010ABDEEC00A10EE100A7047000049
:104BA0000C00002078020020F6285C3F295C0F3EB4
:104BB00000007A4500007A4500007AC500007AC5F9
:104BC000040000200000C84208000020000000206F
:104BD0000000000018B10349C861002070476FF061
:104BE0000500704764030020032802D96FF0050018
:104BF0007047034A50621170002010627047000035
:104C00006403002018B103498861002070476FF0E9
:104C100005007047640300202DE9F047414DA96964
:104C200000293FD040492A6A8854521C2A62686A87
:104C3000002630B1012837D0022870D003286BD16C
:104C40006DE00878552834D1A9460B2A64D30A2789
:104C5000DFF8D4C0002005461CF805806D1C4044D8
:104C6000C0B2BD42F8D38D7A854205D0521EC9F834
:104C700020202D48491C34E0488860F30F048888C0
:104C800060F31F44C88860F30F030889C9F82060E7
:104C9000497889F8051060F31F43C9E90C430421E2
:104CA000C9F82C10BDE8F087022A35D948780328C6
:104CB00002D0521E2A62DCE78878401D9042F1D86B
:104CC00088180C4630F8020C921E47BA91B216486A
:104CD00000F062F8874208D02A6A1348521E611C0D
:104CE0002A62BDE8F047FBF79EBAA0780F4B410857
:104CF0000022A86A0BE000BF04EB420702EB000CA5
:104D0000B7F80370521C7FBA23F81C7092B28A4223
:104D1000F2D3AA69904702E0B2F5807FC2D12E6239
:104D2000C0E7000064030020B80E0020B80F002088
:104D300018B103498860002070476FF00500704784
:104D4000640300200FB4054B10B503A9044A029870
:104D500000F01AF910BC5DF814FB0000F56A0008B9
:104D6000740200207CB50C001D461646014601D099
:104D7000601E00E00020CDE90010064B6A4629467F
:104D8000304600F001F9002C02D0009A0021117089
:104D90007CBD00008F560008F0B5FF23084E1C466E
:104DA000002206F5807705E0855C5D40735D634019
:104DB0007C5D521C8A42F7DB44EA0320F0BD000010
:104DC000E0C300080907090E002804DB00F1E02019
:104DD00080F80014704700F00F0000F1E02080F828
:104DE000141D704702E008C8121F08C1002AFAD13A
:104DF00070477047002001E001C1121F002AFBD15B
:104E0000704700002DE9FF5F82B00021DDE904302A
:104E1000020DDDF840B0034318D044F61050A2F262
:104E2000FF3242431514119801281FD0A5EB0B0047
:104E3000401C5FEA000A4FF000064E4FDFF8389141
:104E4000B046504615D5CAF1000413E0119801246C
:104E50004AA3012801D16FEA0B010298119AC0E917
:104E60000031C0E9024206B0BDE8F09FCBF100007E
:104E7000DFE704460021404A491842EB0450CDE9DF
:104E8000001012E0E00707D032463B464046494654
:104E9000FBF7F6FA8046894632463B4610461946ED
:104EA000FBF7EEFA06460F466410002CEAD1DDE966
:104EB0000401DDE90023BAF1000F06DAFBF7E0FA9E
:104EC00042464B46FBF7DCFA05E0FBF74BFB42465C
:104ED0004B46FBF747FB04460E460022284BFBF7E8
:104EE000C9FB03D84FF0FF30014607E00022254BF5
:104EF00020463146FBF71DFAFBF7A3FB102409E01F
:104F0000002C0ADB0A220023FBF75CF9039B3032FA
:104F10001A55641E50EA0102F2D1641C039AC4F1CE
:104F200011031444119A012A03D0012208430DD120
:104F30000AE0084304D000204FF0110B119072E7F3
:104F4000A3EB0B056D1E0DE05B4504DD4FF0000289
:104F500005F1010504E003DA4FF00002A5F10105B7
:104F6000002AECD002981199C0E90231C0E900454D
:104F700079E70000000014400000F03F300000001E
:104F80000000F0430000E03F2DE9FF4F95B09A4646
:104F9000884606460025EEE1252877D100242746DD
:104FA000F94A0121039400E0044316F8013F203B35
:104FB00001FA03F01042F7D130782A2811D06FF0AF
:104FC0002F033078A0F13002092A16D8039A44F052
:104FD000020402EB820203EB42021044761C0390AF
:104FE000EFE758F8042B0392002A03DA504244F406
:104FF0000054039044F00204761C30782E2816D119
:1050000016F8010F44F004042A280DD06FF02F0287
:105010003078A0F13003092B09D807EB870302EBA6
:105020004303C718761CF3E758F8047B761C3078E6
:105030006C280FD006DC4C2817D068280DD06A28C1
:1050400014D104E0742810D07A280FD10DE044F474
:1050500000140AE044F4801401E044F4401472782F
:10506000824202D104F58014761C761C30786628C2
:105070000BD013DC582877D009DC002875D04528E0
:10508000F6D04628F4D047281AD193E118E06328D7
:1050900035D0642879D0652812D18BE1702873D07F
:1050A00008DC6728F1D069286FD06E280DD06F28F2
:1050B00006D1ACE073282CD0752874D0782853D052
:1050C0005246179990476D1C54E1C4F302500228D0
:1050D00009D003280DD0D8F8001004280DD00D6099
:1050E00008F1040846E1D8F80010EA17C1E90052B7
:1050F000F6E7D8F800100D80F2E70D70F0E718F829
:10510000041B8DF8001000208DF80100EB460120F3
:1051100003E058F804BB4FF0FF3061074FF0000187
:1051200002D40DE009F101018946B9420FDA814547
:10513000F8DB1BF809100029F4D108E009F101019E
:1051400089468142FADB1BF809100029F6D1039841
:105150005346A0EB090721463846179A00F080FA1B
:10516000284400EB090507E044E008E10DE01BF8E6
:10517000010B524617999047B9F10109F7D25346EE
:1051800021463846179AF2E039E00A21C4F3025268
:105190004FF0000B0091022A06D058F8040BC117FB
:1051A000032A09D00AE023E008F1070020F00702F3
:1051B000F2E80201904605E000B2C117042A01D1CD
:1051C00040B2C117002906DA0A460021404261EBCD
:1051D00002012D2202E0220504D52B228DF80420A5
:1051E000012203E0E20701D02022F7E7914657E0D1
:1051F0000A2100E010214FF0000B00910BE010217C
:105200004FF0000B44F004040827009103E008204D
:105210004FF0000B0090C4F30252022A05D058F858
:10522000040B0021032A08D008E008F1070020F051
:105230000702F2E80201904603E080B2042A00D19E
:10524000C0B24FF0000922072AD53278702A07D061
:10525000DDF800C08CF0100C5CEA0B0C05D00EE001
:1052600040228DF80420012208E050EA010306D014
:1052700030238DF804308DF8052002229146009BE2
:1052800083F0080353EA0B030AD150EA010201D16B
:10529000620705D530228DF804204FF001097F1EEA
:1052A0003278582A04D039A20C920CAA02920BE050
:1052B0003BA2F9E75B46009AFAF784FF0C9B9B5CE4
:1052C000029A521E0292137050EA0102F2D1029821
:1052D00004A9081A00F1200B600702D524F48034D9
:1052E00000E001275F4502DDA7EB0B0000E0002096
:1052F00000EB0B01009003984944401A0390E0032F
:1053000006D453462146179A039800F0A9F905449C
:10531000002706E001A85246C05D179990476D1C12
:105320007F1C4F45F6DBE0030CD553462146179A08
:10533000039800F095F9054404E03020524617998F
:1053400090476D1C0099481E00900029F5DC08E08C
:105350000298029952460078491C02911799904789
:105360006D1CBBF10001ABF1010BF1DC5BE100F066
:1053700065F90544761C307800287FF40DAE19B02D
:105380002846BDE8F08F0000092801003031323393
:105390003435363738396162636465660000000071
:1053A000303132333435363738394142434445465B
:1053B00000000000600700D4062708F1070020F075
:1053C0000700F0E80223804603F0004C5FEA0C007F
:1053D00001D097A009E0200501D596A005E0E007DF
:1053E00001D095A001E0AFF24C001390307823F08B
:1053F000004365280CD006DC452809D046281DD07E
:1054000047287FD13BE0662818D067287AD136E05C
:105410000021112F01DB112000E0781CCDE90001F3
:1054200004A90CA8FFF7EEFCDDE90D010C9A4FF082
:10543000000B07F10109109200914EE04FF000407F
:105440000097CDE9011004A90CA8FFF7DBFCDDE90A
:105450000D020C9B0F994FF0000B91461093009298
:1054600011B9791C00EB0109B7EB090003D4C0F1B5
:10547000FF3B07F10109A9EB0700019042E0012F72
:1054800000DA01270021112F01DD112000E038464C
:10549000CDE9000104A90CA8FFF7B4FCDDE90D017A
:1054A0000C9A00914FF0000BB946109221070FD4CF
:1054B000009A4A4503DA914601E0A9F10109B9F1E0
:1054C000010F05DD109AA9F10101515C3029F4D0DA
:1054D000B84202DA10F1040F03DA0121CDE901101C
:1054E00010E0002803DC8344A9EB000102E0411C2A
:1054F000494500DD8946A0EB0B00401C01904FF0B0
:1055000000400290200705D40198484502DB4FF087
:10551000FF30019000208DF84B0002980DF14B07F1
:10552000B0F1004F25D002200C902B200D90029856
:1055300000280CDA404202902D200D9007E00A214D
:105540000298FAF7C1FE3031029007F8011D0C995C
:10555000481E0C900029F2DC02980028EFD1791E39
:105560000D980870307800F0200040F0450007F8F2
:10557000020D11A8C01BC01D02901398007800B145
:10558000012000EB0901019801EBE0710298014450
:105590000398401A401E0390E00306D45346214668
:1055A000179A039800F05CF805441398007818B136
:1055B0005246179990476D1CE00323D55346214668
:1055C000179A039800F04CF805441BE0BBF1000F5C
:1055D00007DB0098584504DD1098179910F80B0068
:1055E00001E0179930205246904701980BF1010BCA
:1055F000401E05F10105019004D12E205246179955
:1056000090476D1CB9F10001A9F10109DEDC05E04C
:1056100017F8010B5246179990476D1C0299481EC6
:1056200002900029F4DC53462146179A03989EE61F
:105630002D0000002B000000200000002DE9F041AB
:10564000044600251E461746880404D405E0394662
:105650002020B0476D1C641EF9D52846BDE8F081B6
:105660002DE9F041044600251E469046C80301D5A9
:10567000302700E02027880404D505E0414638465D
:10568000B0476D1C641EF9D52846BDE8F0814A6814
:10569000002A06D00A68531C0B6010704868401E30
:1056A0004860704710B502F0C7F902F0DBF9BDE8B9
:1056B000104002F0E7B9000010B5ADF5327D2822A8
:1056C00030A1A8A8FAF7AFFD00223849384800F009
:1056D000C3FD08B137A009E03BA0FFF733FB0A2266
:1056E0003EA101A800F0E4FD38B13FA0FFF72AFB7E
:1056F000FBF710FA0DF5327D10BD41A0FFF722FB3C
:10570000A6AB2522A8A901A800F0C8FFA69901B15F
:1057100008B141A0EAE701A800F08AFD43A0FFF725
:1057200011FB01222DA101A800F0C2FD08B144A087
:10573000DCE7A7AB64228DA901A800F0BFFE0446F8
:1057400000231F220121454802F076F88DA8009021
:1057500043A396220021414802F002F8A79800B125
:105760000CB144A0C2E701A800F062FDDDE9A6018A
:10577000814201D044A0B9E74AA0FFF7E3FA02F062
:1057800093F9B7E7582050756C73652053544D3327
:10579000324634303720776F726B696E67207769D5
:1057A0007468204661744673000000007700002092
:1057B000B80900204661744673206D6F756E7420C1
:1057C0006572726F720D0A004372656174696E676B
:1057D0002066696C652E2E2E0D0A000053544D3341
:1057E000322E54585400000046696C65206372657F
:1057F0006174696F6E206572726F720D0A0000002D
:1058000057726974696E6720746F2066696C652EC3
:105810002E2E0D0A0000000046696C652077726923
:105820007465206572726F720D0A000052656164C2
:10583000696E672066696C652E2E2E0D0A000000C9
:1058400046696C65206F70656E20666F72207265A8
:105850006164206572726F720D0A000014000020EE
:10586000526561642066726F6D2066696C653A20CE
:105870002573000046696C6520726561642065725D
:10588000726F720D0A0000004461746120766572C7
:10589000696669636174696F6E206661696C6564CD
:1058A0000D0A0000534420436172642074657374D0
:1058B00020706173736564207375636365737366C9
:1058C000756C6C79210D0A0010B505A0FFF73AFA46
:1058D000FFF7F2FEBDE8104008A0FFF733BA000062
:1058E0005374617274696E6720534420436172641B
:1058F00020746573742E2E2E0D0A0000534420432D
:10590000617264207465737420636F6D706C65746C
:105910006564210D0A00000010B504460020E07007
:10592000401EE062204602F066F908B1042010BD76
:1059300004F22E2002F07AF8A0F52A41553901D060
:10594000032010BD94F83000E92805D0EB2814D1CD
:1059500094F83200902810D104F1660002F05BF850
:105960000749B1EB002F06D004F1820002F053F892
:105970000449884201D1002010BD022010BD000062
:105980000046415446415433F0B50022144D1346AD
:1059900005EB021426685EB10768BE4209D166684D
:1059A0008768BE4205D1A4684669B44204D000E0CD
:1059B0000123521C022AEBD3022A01D069B904E068
:1059C0004BB9022907D01220F0BD05EB02108089E7
:1059D000B0F5807F01D00020F0BD1020F0BD0000A8
:1059E000E80B002030B50021054B0C4603EB0112FB
:1059F0001568854200D11460491C0229F6D330BDD8
:105A0000E80B00200268490AC06A5289B1FBF2F132
:105A1000001D04C81AB1914203D3891AF8E7002087
:105A200070470068084470474269891E921E8A4286
:105A300001D800207047826A408901FB002070472E
:105A4000074B10B51B6813B11C693CB902E04FF05D
:105A5000FF3010BD1861197702B1DA60002010BD67
:105A6000640D00202DE9FC412B4D4FF0FF362C68D2
:105A7000002C4FD02069E8B3287CC0074AD0FDF73E
:105A80002BFEB8B3A27F216902EB4202142351F826
:105A900032104160A27F216902EB420203EBC20295
:105AA0000C2689588160002101610177E268C2609B
:105AB000A37F226903EB430306EBC3031027D258ED
:105AC0004261A67F236906EB460607EBC6069B5993
:105AD000836181770121C1770460EA602860A17F3A
